{
	"myNFT.sol": {
		"MyNFT": {
			"abi": [
				{
					"inputs": [
						{
							"internalType": "string",
							"name": "_name",
							"type": "string"
						},
						{
							"internalType": "string",
							"name": "_symbol",
							"type": "string"
						}
					],
					"stateMutability": "nonpayable",
					"type": "constructor"
				},
				{
					"inputs": [
						{
							"internalType": "address",
							"name": "sender",
							"type": "address"
						},
						{
							"internalType": "uint256",
							"name": "tokenId",
							"type": "uint256"
						},
						{
							"internalType": "address",
							"name": "owner",
							"type": "address"
						}
					],
					"name": "ERC721IncorrectOwner",
					"type": "error"
				},
				{
					"inputs": [
						{
							"internalType": "address",
							"name": "operator",
							"type": "address"
						},
						{
							"internalType": "uint256",
							"name": "tokenId",
							"type": "uint256"
						}
					],
					"name": "ERC721InsufficientApproval",
					"type": "error"
				},
				{
					"inputs": [
						{
							"internalType": "address",
							"name": "approver",
							"type": "address"
						}
					],
					"name": "ERC721InvalidApprover",
					"type": "error"
				},
				{
					"inputs": [
						{
							"internalType": "address",
							"name": "operator",
							"type": "address"
						}
					],
					"name": "ERC721InvalidOperator",
					"type": "error"
				},
				{
					"inputs": [
						{
							"internalType": "address",
							"name": "owner",
							"type": "address"
						}
					],
					"name": "ERC721InvalidOwner",
					"type": "error"
				},
				{
					"inputs": [
						{
							"internalType": "address",
							"name": "receiver",
							"type": "address"
						}
					],
					"name": "ERC721InvalidReceiver",
					"type": "error"
				},
				{
					"inputs": [
						{
							"internalType": "address",
							"name": "sender",
							"type": "address"
						}
					],
					"name": "ERC721InvalidSender",
					"type": "error"
				},
				{
					"inputs": [
						{
							"internalType": "uint256",
							"name": "tokenId",
							"type": "uint256"
						}
					],
					"name": "ERC721NonexistentToken",
					"type": "error"
				},
				{
					"anonymous": false,
					"inputs": [
						{
							"indexed": true,
							"internalType": "address",
							"name": "owner",
							"type": "address"
						},
						{
							"indexed": true,
							"internalType": "address",
							"name": "approved",
							"type": "address"
						},
						{
							"indexed": true,
							"internalType": "uint256",
							"name": "tokenId",
							"type": "uint256"
						}
					],
					"name": "Approval",
					"type": "event"
				},
				{
					"anonymous": false,
					"inputs": [
						{
							"indexed": true,
							"internalType": "address",
							"name": "owner",
							"type": "address"
						},
						{
							"indexed": true,
							"internalType": "address",
							"name": "operator",
							"type": "address"
						},
						{
							"indexed": false,
							"internalType": "bool",
							"name": "approved",
							"type": "bool"
						}
					],
					"name": "ApprovalForAll",
					"type": "event"
				},
				{
					"anonymous": false,
					"inputs": [
						{
							"indexed": true,
							"internalType": "address",
							"name": "from",
							"type": "address"
						},
						{
							"indexed": true,
							"internalType": "address",
							"name": "to",
							"type": "address"
						},
						{
							"indexed": true,
							"internalType": "uint256",
							"name": "tokenId",
							"type": "uint256"
						}
					],
					"name": "Transfer",
					"type": "event"
				},
				{
					"inputs": [
						{
							"internalType": "address",
							"name": "to",
							"type": "address"
						},
						{
							"internalType": "uint256",
							"name": "tokenId",
							"type": "uint256"
						}
					],
					"name": "approve",
					"outputs": [],
					"stateMutability": "nonpayable",
					"type": "function"
				},
				{
					"inputs": [
						{
							"internalType": "address",
							"name": "owner",
							"type": "address"
						}
					],
					"name": "balanceOf",
					"outputs": [
						{
							"internalType": "uint256",
							"name": "",
							"type": "uint256"
						}
					],
					"stateMutability": "view",
					"type": "function"
				},
				{
					"inputs": [
						{
							"internalType": "uint256",
							"name": "tokenId",
							"type": "uint256"
						}
					],
					"name": "getApproved",
					"outputs": [
						{
							"internalType": "address",
							"name": "",
							"type": "address"
						}
					],
					"stateMutability": "view",
					"type": "function"
				},
				{
					"inputs": [
						{
							"internalType": "address",
							"name": "owner",
							"type": "address"
						},
						{
							"internalType": "address",
							"name": "operator",
							"type": "address"
						}
					],
					"name": "isApprovedForAll",
					"outputs": [
						{
							"internalType": "bool",
							"name": "",
							"type": "bool"
						}
					],
					"stateMutability": "view",
					"type": "function"
				},
				{
					"inputs": [
						{
							"internalType": "uint256",
							"name": "_tokenId",
							"type": "uint256"
						},
						{
							"internalType": "string",
							"name": "_uri",
							"type": "string"
						}
					],
					"name": "minting",
					"outputs": [],
					"stateMutability": "nonpayable",
					"type": "function"
				},
				{
					"inputs": [],
					"name": "name",
					"outputs": [
						{
							"internalType": "string",
							"name": "",
							"type": "string"
						}
					],
					"stateMutability": "view",
					"type": "function"
				},
				{
					"inputs": [
						{
							"internalType": "uint256",
							"name": "tokenId",
							"type": "uint256"
						}
					],
					"name": "ownerOf",
					"outputs": [
						{
							"internalType": "address",
							"name": "",
							"type": "address"
						}
					],
					"stateMutability": "view",
					"type": "function"
				},
				{
					"inputs": [
						{
							"internalType": "address",
							"name": "from",
							"type": "address"
						},
						{
							"internalType": "address",
							"name": "to",
							"type": "address"
						},
						{
							"internalType": "uint256",
							"name": "tokenId",
							"type": "uint256"
						}
					],
					"name": "safeTransferFrom",
					"outputs": [],
					"stateMutability": "nonpayable",
					"type": "function"
				},
				{
					"inputs": [
						{
							"internalType": "address",
							"name": "from",
							"type": "address"
						},
						{
							"internalType": "address",
							"name": "to",
							"type": "address"
						},
						{
							"internalType": "uint256",
							"name": "tokenId",
							"type": "uint256"
						},
						{
							"internalType": "bytes",
							"name": "data",
							"type": "bytes"
						}
					],
					"name": "safeTransferFrom",
					"outputs": [],
					"stateMutability": "nonpayable",
					"type": "function"
				},
				{
					"inputs": [
						{
							"internalType": "address",
							"name": "owner",
							"type": "address"
						},
						{
							"internalType": "address",
							"name": "operator",
							"type": "address"
						},
						{
							"internalType": "bool",
							"name": "approved",
							"type": "bool"
						}
					],
					"name": "setAppAll",
					"outputs": [],
					"stateMutability": "nonpayable",
					"type": "function"
				},
				{
					"inputs": [
						{
							"internalType": "address",
							"name": "operator",
							"type": "address"
						},
						{
							"internalType": "bool",
							"name": "approved",
							"type": "bool"
						}
					],
					"name": "setApprovalForAll",
					"outputs": [],
					"stateMutability": "nonpayable",
					"type": "function"
				},
				{
					"inputs": [
						{
							"internalType": "bytes4",
							"name": "interfaceId",
							"type": "bytes4"
						}
					],
					"name": "supportsInterface",
					"outputs": [
						{
							"internalType": "bool",
							"name": "",
							"type": "bool"
						}
					],
					"stateMutability": "view",
					"type": "function"
				},
				{
					"inputs": [],
					"name": "symbol",
					"outputs": [
						{
							"internalType": "string",
							"name": "",
							"type": "string"
						}
					],
					"stateMutability": "view",
					"type": "function"
				},
				{
					"inputs": [
						{
							"internalType": "uint256",
							"name": "_tokenId",
							"type": "uint256"
						}
					],
					"name": "tokenURI",
					"outputs": [
						{
							"internalType": "string",
							"name": "",
							"type": "string"
						}
					],
					"stateMutability": "view",
					"type": "function"
				},
				{
					"inputs": [
						{
							"internalType": "address",
							"name": "from",
							"type": "address"
						},
						{
							"internalType": "address",
							"name": "to",
							"type": "address"
						},
						{
							"internalType": "uint256",
							"name": "tokenId",
							"type": "uint256"
						}
					],
					"name": "transferFrom",
					"outputs": [],
					"stateMutability": "nonpayable",
					"type": "function"
				}
			],
			"devdoc": {
				"errors": {
					"ERC721IncorrectOwner(address,uint256,address)": [
						{
							"details": "Indicates an error related to the ownership over a particular token. Used in transfers.",
							"params": {
								"owner": "Address of the current owner of a token.",
								"sender": "Address whose tokens are being transferred.",
								"tokenId": "Identifier number of a token."
							}
						}
					],
					"ERC721InsufficientApproval(address,uint256)": [
						{
							"details": "Indicates a failure with the `operator`’s approval. Used in transfers.",
							"params": {
								"operator": "Address that may be allowed to operate on tokens without being their owner.",
								"tokenId": "Identifier number of a token."
							}
						}
					],
					"ERC721InvalidApprover(address)": [
						{
							"details": "Indicates a failure with the `approver` of a token to be approved. Used in approvals.",
							"params": {
								"approver": "Address initiating an approval operation."
							}
						}
					],
					"ERC721InvalidOperator(address)": [
						{
							"details": "Indicates a failure with the `operator` to be approved. Used in approvals.",
							"params": {
								"operator": "Address that may be allowed to operate on tokens without being their owner."
							}
						}
					],
					"ERC721InvalidOwner(address)": [
						{
							"details": "Indicates that an address can't be an owner. For example, `address(0)` is a forbidden owner in EIP-20. Used in balance queries.",
							"params": {
								"owner": "Address of the current owner of a token."
							}
						}
					],
					"ERC721InvalidReceiver(address)": [
						{
							"details": "Indicates a failure with the token `receiver`. Used in transfers.",
							"params": {
								"receiver": "Address to which tokens are being transferred."
							}
						}
					],
					"ERC721InvalidSender(address)": [
						{
							"details": "Indicates a failure with the token `sender`. Used in transfers.",
							"params": {
								"sender": "Address whose tokens are being transferred."
							}
						}
					],
					"ERC721NonexistentToken(uint256)": [
						{
							"details": "Indicates a `tokenId` whose `owner` is the zero address.",
							"params": {
								"tokenId": "Identifier number of a token."
							}
						}
					]
				},
				"events": {
					"Approval(address,address,uint256)": {
						"details": "Emitted when `owner` enables `approved` to manage the `tokenId` token."
					},
					"ApprovalForAll(address,address,bool)": {
						"details": "Emitted when `owner` enables or disables (`approved`) `operator` to manage all of its assets."
					},
					"Transfer(address,address,uint256)": {
						"details": "Emitted when `tokenId` token is transferred from `from` to `to`."
					}
				},
				"kind": "dev",
				"methods": {
					"approve(address,uint256)": {
						"details": "See {IERC721-approve}."
					},
					"balanceOf(address)": {
						"details": "See {IERC721-balanceOf}."
					},
					"getApproved(uint256)": {
						"details": "See {IERC721-getApproved}."
					},
					"isApprovedForAll(address,address)": {
						"details": "See {IERC721-isApprovedForAll}."
					},
					"name()": {
						"details": "See {IERC721Metadata-name}."
					},
					"ownerOf(uint256)": {
						"details": "See {IERC721-ownerOf}."
					},
					"safeTransferFrom(address,address,uint256)": {
						"details": "See {IERC721-safeTransferFrom}."
					},
					"safeTransferFrom(address,address,uint256,bytes)": {
						"details": "See {IERC721-safeTransferFrom}."
					},
					"setApprovalForAll(address,bool)": {
						"details": "See {IERC721-setApprovalForAll}."
					},
					"supportsInterface(bytes4)": {
						"details": "See {IERC165-supportsInterface}."
					},
					"symbol()": {
						"details": "See {IERC721Metadata-symbol}."
					},
					"transferFrom(address,address,uint256)": {
						"details": "See {IERC721-transferFrom}."
					}
				},
				"version": 1
			},
			"evm": {
				"assembly": "    /* \"myNFT.sol\":132:1222  contract MyNFT is ERC721 {... */\n  mstore(0x40, 0x80)\n    /* \"myNFT.sol\":215:296  constructor(string memory _name, string memory _symbol) ERC721(_name, _symbol) {} */\n  callvalue\n  dup1\n  iszero\n  tag_1\n  jumpi\n  0x00\n  dup1\n  revert\ntag_1:\n  pop\n  mload(0x40)\n  sub(codesize, bytecodeSize)\n  dup1\n  bytecodeSize\n  dup4\n  codecopy\n  dup2\n  dup2\n  add\n  0x40\n  mstore\n  dup2\n  add\n  swap1\n  tag_2\n  swap2\n  swap1\n  tag_3\n  jump\t// in\ntag_2:\n    /* \"myNFT.sol\":278:283  _name */\n  dup2\n    /* \"myNFT.sol\":285:292  _symbol */\n  dup2\n    /* \"node_modules/@openzeppelin/contracts/token/ERC721/ERC721.sol\":2267:2272  name_ */\n  dup2\n    /* \"node_modules/@openzeppelin/contracts/token/ERC721/ERC721.sol\":2259:2264  _name */\n  0x00\n    /* \"node_modules/@openzeppelin/contracts/token/ERC721/ERC721.sol\":2259:2272  _name = name_ */\n  swap1\n  dup2\n  tag_7\n  swap2\n  swap1\n  tag_8\n  jump\t// in\ntag_7:\n  pop\n    /* \"node_modules/@openzeppelin/contracts/token/ERC721/ERC721.sol\":2292:2299  symbol_ */\n  dup1\n    /* \"node_modules/@openzeppelin/contracts/token/ERC721/ERC721.sol\":2282:2289  _symbol */\n  0x01\n    /* \"node_modules/@openzeppelin/contracts/token/ERC721/ERC721.sol\":2282:2299  _symbol = symbol_ */\n  swap1\n  dup2\n  tag_9\n  swap2\n  swap1\n  tag_8\n  jump\t// in\ntag_9:\n  pop\n    /* \"node_modules/@openzeppelin/contracts/token/ERC721/ERC721.sol\":2193:2306  constructor(string memory name_, string memory symbol_) {... */\n  pop\n  pop\n    /* \"myNFT.sol\":215:296  constructor(string memory _name, string memory _symbol) ERC721(_name, _symbol) {} */\n  pop\n  pop\n    /* \"myNFT.sol\":132:1222  contract MyNFT is ERC721 {... */\n  jump(tag_11)\n    /* \"#utility.yul\":7:82   */\ntag_12:\n    /* \"#utility.yul\":40:46   */\n  0x00\n    /* \"#utility.yul\":73:75   */\n  0x40\n    /* \"#utility.yul\":67:76   */\n  mload\n    /* \"#utility.yul\":57:76   */\n  swap1\n  pop\n    /* \"#utility.yul\":7:82   */\n  swap1\n  jump\t// out\n    /* \"#utility.yul\":88:205   */\ntag_13:\n    /* \"#utility.yul\":197:198   */\n  0x00\n    /* \"#utility.yul\":194:195   */\n  dup1\n    /* \"#utility.yul\":187:199   */\n  revert\n    /* \"#utility.yul\":211:328   */\ntag_14:\n    /* \"#utility.yul\":320:321   */\n  0x00\n    /* \"#utility.yul\":317:318   */\n  dup1\n    /* \"#utility.yul\":310:322   */\n  revert\n    /* \"#utility.yul\":334:451   */\ntag_15:\n    /* \"#utility.yul\":443:444   */\n  0x00\n    /* \"#utility.yul\":440:441   */\n  dup1\n    /* \"#utility.yul\":433:445   */\n  revert\n    /* \"#utility.yul\":457:574   */\ntag_16:\n    /* \"#utility.yul\":566:567   */\n  0x00\n    /* \"#utility.yul\":563:564   */\n  dup1\n    /* \"#utility.yul\":556:568   */\n  revert\n    /* \"#utility.yul\":580:682   */\ntag_17:\n    /* \"#utility.yul\":621:627   */\n  0x00\n    /* \"#utility.yul\":672:674   */\n  0x1f\n    /* \"#utility.yul\":668:675   */\n  not\n    /* \"#utility.yul\":663:665   */\n  0x1f\n    /* \"#utility.yul\":656:661   */\n  dup4\n    /* \"#utility.yul\":652:666   */\n  add\n    /* \"#utility.yul\":648:676   */\n  and\n    /* \"#utility.yul\":638:676   */\n  swap1\n  pop\n    /* \"#utility.yul\":580:682   */\n  swap2\n  swap1\n  pop\n  jump\t// out\n    /* \"#utility.yul\":688:868   */\ntag_18:\n    /* \"#utility.yul\":736:813   */\n  0x4e487b7100000000000000000000000000000000000000000000000000000000\n    /* \"#utility.yul\":733:734   */\n  0x00\n    /* \"#utility.yul\":726:814   */\n  mstore\n    /* \"#utility.yul\":833:837   */\n  0x41\n    /* \"#utility.yul\":830:831   */\n  0x04\n    /* \"#utility.yul\":823:838   */\n  mstore\n    /* \"#utility.yul\":857:861   */\n  0x24\n    /* \"#utility.yul\":854:855   */\n  0x00\n    /* \"#utility.yul\":847:862   */\n  revert\n    /* \"#utility.yul\":874:1155   */\ntag_19:\n    /* \"#utility.yul\":957:984   */\n  tag_53\n    /* \"#utility.yul\":979:983   */\n  dup3\n    /* \"#utility.yul\":957:984   */\n  tag_17\n  jump\t// in\ntag_53:\n    /* \"#utility.yul\":949:955   */\n  dup2\n    /* \"#utility.yul\":945:985   */\n  add\n    /* \"#utility.yul\":1087:1093   */\n  dup2\n    /* \"#utility.yul\":1075:1085   */\n  dup2\n    /* \"#utility.yul\":1072:1094   */\n  lt\n    /* \"#utility.yul\":1051:1069   */\n  0xffffffffffffffff\n    /* \"#utility.yul\":1039:1049   */\n  dup3\n    /* \"#utility.yul\":1036:1070   */\n  gt\n    /* \"#utility.yul\":1033:1095   */\n  or\n    /* \"#utility.yul\":1030:1118   */\n  iszero\n  tag_54\n  jumpi\n    /* \"#utility.yul\":1098:1116   */\n  tag_55\n  tag_18\n  jump\t// in\ntag_55:\n    /* \"#utility.yul\":1030:1118   */\ntag_54:\n    /* \"#utility.yul\":1138:1148   */\n  dup1\n    /* \"#utility.yul\":1134:1136   */\n  0x40\n    /* \"#utility.yul\":1127:1149   */\n  mstore\n    /* \"#utility.yul\":917:1155   */\n  pop\n    /* \"#utility.yul\":874:1155   */\n  pop\n  pop\n  jump\t// out\n    /* \"#utility.yul\":1161:1290   */\ntag_20:\n    /* \"#utility.yul\":1195:1201   */\n  0x00\n    /* \"#utility.yul\":1222:1242   */\n  tag_57\n  tag_12\n  jump\t// in\ntag_57:\n    /* \"#utility.yul\":1212:1242   */\n  swap1\n  pop\n    /* \"#utility.yul\":1251:1284   */\n  tag_58\n    /* \"#utility.yul\":1279:1283   */\n  dup3\n    /* \"#utility.yul\":1271:1277   */\n  dup3\n    /* \"#utility.yul\":1251:1284   */\n  tag_19\n  jump\t// in\ntag_58:\n    /* \"#utility.yul\":1161:1290   */\n  swap2\n  swap1\n  pop\n  jump\t// out\n    /* \"#utility.yul\":1296:1604   */\ntag_21:\n    /* \"#utility.yul\":1358:1362   */\n  0x00\n    /* \"#utility.yul\":1448:1466   */\n  0xffffffffffffffff\n    /* \"#utility.yul\":1440:1446   */\n  dup3\n    /* \"#utility.yul\":1437:1467   */\n  gt\n    /* \"#utility.yul\":1434:1490   */\n  iszero\n  tag_60\n  jumpi\n    /* \"#utility.yul\":1470:1488   */\n  tag_61\n  tag_18\n  jump\t// in\ntag_61:\n    /* \"#utility.yul\":1434:1490   */\ntag_60:\n    /* \"#utility.yul\":1508:1537   */\n  tag_62\n    /* \"#utility.yul\":1530:1536   */\n  dup3\n    /* \"#utility.yul\":1508:1537   */\n  tag_17\n  jump\t// in\ntag_62:\n    /* \"#utility.yul\":1500:1537   */\n  swap1\n  pop\n    /* \"#utility.yul\":1592:1596   */\n  0x20\n    /* \"#utility.yul\":1586:1590   */\n  dup2\n    /* \"#utility.yul\":1582:1597   */\n  add\n    /* \"#utility.yul\":1574:1597   */\n  swap1\n  pop\n    /* \"#utility.yul\":1296:1604   */\n  swap2\n  swap1\n  pop\n  jump\t// out\n    /* \"#utility.yul\":1610:1856   */\ntag_22:\n    /* \"#utility.yul\":1691:1692   */\n  0x00\n    /* \"#utility.yul\":1701:1814   */\ntag_64:\n    /* \"#utility.yul\":1715:1721   */\n  dup4\n    /* \"#utility.yul\":1712:1713   */\n  dup2\n    /* \"#utility.yul\":1709:1722   */\n  lt\n    /* \"#utility.yul\":1701:1814   */\n  iszero\n  tag_66\n  jumpi\n    /* \"#utility.yul\":1800:1801   */\n  dup1\n    /* \"#utility.yul\":1795:1798   */\n  dup3\n    /* \"#utility.yul\":1791:1802   */\n  add\n    /* \"#utility.yul\":1785:1803   */\n  mload\n    /* \"#utility.yul\":1781:1782   */\n  dup2\n    /* \"#utility.yul\":1776:1779   */\n  dup5\n    /* \"#utility.yul\":1772:1783   */\n  add\n    /* \"#utility.yul\":1765:1804   */\n  mstore\n    /* \"#utility.yul\":1737:1739   */\n  0x20\n    /* \"#utility.yul\":1734:1735   */\n  dup2\n    /* \"#utility.yul\":1730:1740   */\n  add\n    /* \"#utility.yul\":1725:1740   */\n  swap1\n  pop\n    /* \"#utility.yul\":1701:1814   */\n  jump(tag_64)\ntag_66:\n    /* \"#utility.yul\":1848:1849   */\n  0x00\n    /* \"#utility.yul\":1839:1845   */\n  dup5\n    /* \"#utility.yul\":1834:1837   */\n  dup5\n    /* \"#utility.yul\":1830:1846   */\n  add\n    /* \"#utility.yul\":1823:1850   */\n  mstore\n    /* \"#utility.yul\":1672:1856   */\n  pop\n    /* \"#utility.yul\":1610:1856   */\n  pop\n  pop\n  pop\n  jump\t// out\n    /* \"#utility.yul\":1862:2296   */\ntag_23:\n    /* \"#utility.yul\":1951:1956   */\n  0x00\n    /* \"#utility.yul\":1976:2042   */\n  tag_68\n    /* \"#utility.yul\":1992:2041   */\n  tag_69\n    /* \"#utility.yul\":2034:2040   */\n  dup5\n    /* \"#utility.yul\":1992:2041   */\n  tag_21\n  jump\t// in\ntag_69:\n    /* \"#utility.yul\":1976:2042   */\n  tag_20\n  jump\t// in\ntag_68:\n    /* \"#utility.yul\":1967:2042   */\n  swap1\n  pop\n    /* \"#utility.yul\":2065:2071   */\n  dup3\n    /* \"#utility.yul\":2058:2063   */\n  dup2\n    /* \"#utility.yul\":2051:2072   */\n  mstore\n    /* \"#utility.yul\":2103:2107   */\n  0x20\n    /* \"#utility.yul\":2096:2101   */\n  dup2\n    /* \"#utility.yul\":2092:2108   */\n  add\n    /* \"#utility.yul\":2141:2144   */\n  dup5\n    /* \"#utility.yul\":2132:2138   */\n  dup5\n    /* \"#utility.yul\":2127:2130   */\n  dup5\n    /* \"#utility.yul\":2123:2139   */\n  add\n    /* \"#utility.yul\":2120:2145   */\n  gt\n    /* \"#utility.yul\":2117:2229   */\n  iszero\n  tag_70\n  jumpi\n    /* \"#utility.yul\":2148:2227   */\n  tag_71\n  tag_16\n  jump\t// in\ntag_71:\n    /* \"#utility.yul\":2117:2229   */\ntag_70:\n    /* \"#utility.yul\":2238:2290   */\n  tag_72\n    /* \"#utility.yul\":2283:2289   */\n  dup5\n    /* \"#utility.yul\":2278:2281   */\n  dup3\n    /* \"#utility.yul\":2273:2276   */\n  dup6\n    /* \"#utility.yul\":2238:2290   */\n  tag_22\n  jump\t// in\ntag_72:\n    /* \"#utility.yul\":1957:2296   */\n  pop\n    /* \"#utility.yul\":1862:2296   */\n  swap4\n  swap3\n  pop\n  pop\n  pop\n  jump\t// out\n    /* \"#utility.yul\":2316:2671   */\ntag_24:\n    /* \"#utility.yul\":2383:2388   */\n  0x00\n    /* \"#utility.yul\":2432:2435   */\n  dup3\n    /* \"#utility.yul\":2425:2429   */\n  0x1f\n    /* \"#utility.yul\":2417:2423   */\n  dup4\n    /* \"#utility.yul\":2413:2430   */\n  add\n    /* \"#utility.yul\":2409:2436   */\n  slt\n    /* \"#utility.yul\":2399:2521   */\n  tag_74\n  jumpi\n    /* \"#utility.yul\":2440:2519   */\n  tag_75\n  tag_15\n  jump\t// in\ntag_75:\n    /* \"#utility.yul\":2399:2521   */\ntag_74:\n    /* \"#utility.yul\":2550:2556   */\n  dup2\n    /* \"#utility.yul\":2544:2557   */\n  mload\n    /* \"#utility.yul\":2575:2665   */\n  tag_76\n    /* \"#utility.yul\":2661:2664   */\n  dup5\n    /* \"#utility.yul\":2653:2659   */\n  dup3\n    /* \"#utility.yul\":2646:2650   */\n  0x20\n    /* \"#utility.yul\":2638:2644   */\n  dup7\n    /* \"#utility.yul\":2634:2651   */\n  add\n    /* \"#utility.yul\":2575:2665   */\n  tag_23\n  jump\t// in\ntag_76:\n    /* \"#utility.yul\":2566:2665   */\n  swap2\n  pop\n    /* \"#utility.yul\":2389:2671   */\n  pop\n    /* \"#utility.yul\":2316:2671   */\n  swap3\n  swap2\n  pop\n  pop\n  jump\t// out\n    /* \"#utility.yul\":2677:3530   */\ntag_3:\n    /* \"#utility.yul\":2776:2782   */\n  0x00\n    /* \"#utility.yul\":2784:2790   */\n  dup1\n    /* \"#utility.yul\":2833:2835   */\n  0x40\n    /* \"#utility.yul\":2821:2830   */\n  dup4\n    /* \"#utility.yul\":2812:2819   */\n  dup6\n    /* \"#utility.yul\":2808:2831   */\n  sub\n    /* \"#utility.yul\":2804:2836   */\n  slt\n    /* \"#utility.yul\":2801:2920   */\n  iszero\n  tag_78\n  jumpi\n    /* \"#utility.yul\":2839:2918   */\n  tag_79\n  tag_13\n  jump\t// in\ntag_79:\n    /* \"#utility.yul\":2801:2920   */\ntag_78:\n    /* \"#utility.yul\":2980:2981   */\n  0x00\n    /* \"#utility.yul\":2969:2978   */\n  dup4\n    /* \"#utility.yul\":2965:2982   */\n  add\n    /* \"#utility.yul\":2959:2983   */\n  mload\n    /* \"#utility.yul\":3010:3028   */\n  0xffffffffffffffff\n    /* \"#utility.yul\":3002:3008   */\n  dup2\n    /* \"#utility.yul\":2999:3029   */\n  gt\n    /* \"#utility.yul\":2996:3113   */\n  iszero\n  tag_80\n  jumpi\n    /* \"#utility.yul\":3032:3111   */\n  tag_81\n  tag_14\n  jump\t// in\ntag_81:\n    /* \"#utility.yul\":2996:3113   */\ntag_80:\n    /* \"#utility.yul\":3137:3211   */\n  tag_82\n    /* \"#utility.yul\":3203:3210   */\n  dup6\n    /* \"#utility.yul\":3194:3200   */\n  dup3\n    /* \"#utility.yul\":3183:3192   */\n  dup7\n    /* \"#utility.yul\":3179:3201   */\n  add\n    /* \"#utility.yul\":3137:3211   */\n  tag_24\n  jump\t// in\ntag_82:\n    /* \"#utility.yul\":3127:3211   */\n  swap3\n  pop\n    /* \"#utility.yul\":2930:3221   */\n  pop\n    /* \"#utility.yul\":3281:3283   */\n  0x20\n    /* \"#utility.yul\":3270:3279   */\n  dup4\n    /* \"#utility.yul\":3266:3284   */\n  add\n    /* \"#utility.yul\":3260:3285   */\n  mload\n    /* \"#utility.yul\":3312:3330   */\n  0xffffffffffffffff\n    /* \"#utility.yul\":3304:3310   */\n  dup2\n    /* \"#utility.yul\":3301:3331   */\n  gt\n    /* \"#utility.yul\":3298:3415   */\n  iszero\n  tag_83\n  jumpi\n    /* \"#utility.yul\":3334:3413   */\n  tag_84\n  tag_14\n  jump\t// in\ntag_84:\n    /* \"#utility.yul\":3298:3415   */\ntag_83:\n    /* \"#utility.yul\":3439:3513   */\n  tag_85\n    /* \"#utility.yul\":3505:3512   */\n  dup6\n    /* \"#utility.yul\":3496:3502   */\n  dup3\n    /* \"#utility.yul\":3485:3494   */\n  dup7\n    /* \"#utility.yul\":3481:3503   */\n  add\n    /* \"#utility.yul\":3439:3513   */\n  tag_24\n  jump\t// in\ntag_85:\n    /* \"#utility.yul\":3429:3513   */\n  swap2\n  pop\n    /* \"#utility.yul\":3231:3523   */\n  pop\n    /* \"#utility.yul\":2677:3530   */\n  swap3\n  pop\n  swap3\n  swap1\n  pop\n  jump\t// out\n    /* \"#utility.yul\":3536:3635   */\ntag_25:\n    /* \"#utility.yul\":3588:3594   */\n  0x00\n    /* \"#utility.yul\":3622:3627   */\n  dup2\n    /* \"#utility.yul\":3616:3628   */\n  mload\n    /* \"#utility.yul\":3606:3628   */\n  swap1\n  pop\n    /* \"#utility.yul\":3536:3635   */\n  swap2\n  swap1\n  pop\n  jump\t// out\n    /* \"#utility.yul\":3641:3821   */\ntag_26:\n    /* \"#utility.yul\":3689:3766   */\n  0x4e487b7100000000000000000000000000000000000000000000000000000000\n    /* \"#utility.yul\":3686:3687   */\n  0x00\n    /* \"#utility.yul\":3679:3767   */\n  mstore\n    /* \"#utility.yul\":3786:3790   */\n  0x22\n    /* \"#utility.yul\":3783:3784   */\n  0x04\n    /* \"#utility.yul\":3776:3791   */\n  mstore\n    /* \"#utility.yul\":3810:3814   */\n  0x24\n    /* \"#utility.yul\":3807:3808   */\n  0x00\n    /* \"#utility.yul\":3800:3815   */\n  revert\n    /* \"#utility.yul\":3827:4147   */\ntag_27:\n    /* \"#utility.yul\":3871:3877   */\n  0x00\n    /* \"#utility.yul\":3908:3909   */\n  0x02\n    /* \"#utility.yul\":3902:3906   */\n  dup3\n    /* \"#utility.yul\":3898:3910   */\n  div\n    /* \"#utility.yul\":3888:3910   */\n  swap1\n  pop\n    /* \"#utility.yul\":3955:3956   */\n  0x01\n    /* \"#utility.yul\":3949:3953   */\n  dup3\n    /* \"#utility.yul\":3945:3957   */\n  and\n    /* \"#utility.yul\":3976:3994   */\n  dup1\n    /* \"#utility.yul\":3966:4047   */\n  tag_89\n  jumpi\n    /* \"#utility.yul\":4032:4036   */\n  0x7f\n    /* \"#utility.yul\":4024:4030   */\n  dup3\n    /* \"#utility.yul\":4020:4037   */\n  and\n    /* \"#utility.yul\":4010:4037   */\n  swap2\n  pop\n    /* \"#utility.yul\":3966:4047   */\ntag_89:\n    /* \"#utility.yul\":4094:4096   */\n  0x20\n    /* \"#utility.yul\":4086:4092   */\n  dup3\n    /* \"#utility.yul\":4083:4097   */\n  lt\n    /* \"#utility.yul\":4063:4081   */\n  dup2\n    /* \"#utility.yul\":4060:4098   */\n  sub\n    /* \"#utility.yul\":4057:4141   */\n  tag_90\n  jumpi\n    /* \"#utility.yul\":4113:4131   */\n  tag_91\n  tag_26\n  jump\t// in\ntag_91:\n    /* \"#utility.yul\":4057:4141   */\ntag_90:\n    /* \"#utility.yul\":3878:4147   */\n  pop\n    /* \"#utility.yul\":3827:4147   */\n  swap2\n  swap1\n  pop\n  jump\t// out\n    /* \"#utility.yul\":4153:4294   */\ntag_28:\n    /* \"#utility.yul\":4202:4206   */\n  0x00\n    /* \"#utility.yul\":4225:4228   */\n  dup2\n    /* \"#utility.yul\":4217:4228   */\n  swap1\n  pop\n    /* \"#utility.yul\":4248:4251   */\n  dup2\n    /* \"#utility.yul\":4245:4246   */\n  0x00\n    /* \"#utility.yul\":4238:4252   */\n  mstore\n    /* \"#utility.yul\":4282:4286   */\n  0x20\n    /* \"#utility.yul\":4279:4280   */\n  0x00\n    /* \"#utility.yul\":4269:4287   */\n  keccak256\n    /* \"#utility.yul\":4261:4287   */\n  swap1\n  pop\n    /* \"#utility.yul\":4153:4294   */\n  swap2\n  swap1\n  pop\n  jump\t// out\n    /* \"#utility.yul\":4300:4393   */\ntag_29:\n    /* \"#utility.yul\":4337:4343   */\n  0x00\n    /* \"#utility.yul\":4384:4386   */\n  0x20\n    /* \"#utility.yul\":4379:4381   */\n  0x1f\n    /* \"#utility.yul\":4372:4377   */\n  dup4\n    /* \"#utility.yul\":4368:4382   */\n  add\n    /* \"#utility.yul\":4364:4387   */\n  div\n    /* \"#utility.yul\":4354:4387   */\n  swap1\n  pop\n    /* \"#utility.yul\":4300:4393   */\n  swap2\n  swap1\n  pop\n  jump\t// out\n    /* \"#utility.yul\":4399:4506   */\ntag_30:\n    /* \"#utility.yul\":4443:4451   */\n  0x00\n    /* \"#utility.yul\":4493:4498   */\n  dup3\n    /* \"#utility.yul\":4487:4491   */\n  dup3\n    /* \"#utility.yul\":4483:4499   */\n  shl\n    /* \"#utility.yul\":4462:4499   */\n  swap1\n  pop\n    /* \"#utility.yul\":4399:4506   */\n  swap3\n  swap2\n  pop\n  pop\n  jump\t// out\n    /* \"#utility.yul\":4512:4905   */\ntag_31:\n    /* \"#utility.yul\":4581:4587   */\n  0x00\n    /* \"#utility.yul\":4631:4632   */\n  0x08\n    /* \"#utility.yul\":4619:4629   */\n  dup4\n    /* \"#utility.yul\":4615:4633   */\n  mul\n    /* \"#utility.yul\":4654:4751   */\n  tag_96\n    /* \"#utility.yul\":4684:4750   */\n  0xffffffffffffffffffffffffffffffffffffffffffffffffffffffffffffffff\n    /* \"#utility.yul\":4673:4682   */\n  dup3\n    /* \"#utility.yul\":4654:4751   */\n  tag_30\n  jump\t// in\ntag_96:\n    /* \"#utility.yul\":4772:4811   */\n  tag_97\n    /* \"#utility.yul\":4802:4810   */\n  dup7\n    /* \"#utility.yul\":4791:4800   */\n  dup4\n    /* \"#utility.yul\":4772:4811   */\n  tag_30\n  jump\t// in\ntag_97:\n    /* \"#utility.yul\":4760:4811   */\n  swap6\n  pop\n    /* \"#utility.yul\":4844:4848   */\n  dup1\n    /* \"#utility.yul\":4840:4849   */\n  not\n    /* \"#utility.yul\":4833:4838   */\n  dup5\n    /* \"#utility.yul\":4829:4850   */\n  and\n    /* \"#utility.yul\":4820:4850   */\n  swap4\n  pop\n    /* \"#utility.yul\":4893:4897   */\n  dup1\n    /* \"#utility.yul\":4883:4891   */\n  dup7\n    /* \"#utility.yul\":4879:4898   */\n  and\n    /* \"#utility.yul\":4872:4877   */\n  dup5\n    /* \"#utility.yul\":4869:4899   */\n  or\n    /* \"#utility.yul\":4859:4899   */\n  swap3\n  pop\n    /* \"#utility.yul\":4588:4905   */\n  pop\n  pop\n    /* \"#utility.yul\":4512:4905   */\n  swap4\n  swap3\n  pop\n  pop\n  pop\n  jump\t// out\n    /* \"#utility.yul\":4911:4988   */\ntag_32:\n    /* \"#utility.yul\":4948:4955   */\n  0x00\n    /* \"#utility.yul\":4977:4982   */\n  dup2\n    /* \"#utility.yul\":4966:4982   */\n  swap1\n  pop\n    /* \"#utility.yul\":4911:4988   */\n  swap2\n  swap1\n  pop\n  jump\t// out\n    /* \"#utility.yul\":4994:5054   */\ntag_33:\n    /* \"#utility.yul\":5022:5025   */\n  0x00\n    /* \"#utility.yul\":5043:5048   */\n  dup2\n    /* \"#utility.yul\":5036:5048   */\n  swap1\n  pop\n    /* \"#utility.yul\":4994:5054   */\n  swap2\n  swap1\n  pop\n  jump\t// out\n    /* \"#utility.yul\":5060:5202   */\ntag_34:\n    /* \"#utility.yul\":5110:5119   */\n  0x00\n    /* \"#utility.yul\":5143:5196   */\n  tag_101\n    /* \"#utility.yul\":5161:5195   */\n  tag_102\n    /* \"#utility.yul\":5170:5194   */\n  tag_103\n    /* \"#utility.yul\":5188:5193   */\n  dup5\n    /* \"#utility.yul\":5170:5194   */\n  tag_32\n  jump\t// in\ntag_103:\n    /* \"#utility.yul\":5161:5195   */\n  tag_33\n  jump\t// in\ntag_102:\n    /* \"#utility.yul\":5143:5196   */\n  tag_32\n  jump\t// in\ntag_101:\n    /* \"#utility.yul\":5130:5196   */\n  swap1\n  pop\n    /* \"#utility.yul\":5060:5202   */\n  swap2\n  swap1\n  pop\n  jump\t// out\n    /* \"#utility.yul\":5208:5283   */\ntag_35:\n    /* \"#utility.yul\":5251:5254   */\n  0x00\n    /* \"#utility.yul\":5272:5277   */\n  dup2\n    /* \"#utility.yul\":5265:5277   */\n  swap1\n  pop\n    /* \"#utility.yul\":5208:5283   */\n  swap2\n  swap1\n  pop\n  jump\t// out\n    /* \"#utility.yul\":5289:5558   */\ntag_36:\n    /* \"#utility.yul\":5399:5438   */\n  tag_106\n    /* \"#utility.yul\":5430:5437   */\n  dup4\n    /* \"#utility.yul\":5399:5438   */\n  tag_34\n  jump\t// in\ntag_106:\n    /* \"#utility.yul\":5460:5551   */\n  tag_107\n    /* \"#utility.yul\":5509:5550   */\n  tag_108\n    /* \"#utility.yul\":5533:5549   */\n  dup3\n    /* \"#utility.yul\":5509:5550   */\n  tag_35\n  jump\t// in\ntag_108:\n    /* \"#utility.yul\":5501:5507   */\n  dup5\n    /* \"#utility.yul\":5494:5498   */\n  dup5\n    /* \"#utility.yul\":5488:5499   */\n  sload\n    /* \"#utility.yul\":5460:5551   */\n  tag_31\n  jump\t// in\ntag_107:\n    /* \"#utility.yul\":5454:5458   */\n  dup3\n    /* \"#utility.yul\":5447:5552   */\n  sstore\n    /* \"#utility.yul\":5365:5558   */\n  pop\n    /* \"#utility.yul\":5289:5558   */\n  pop\n  pop\n  pop\n  jump\t// out\n    /* \"#utility.yul\":5564:5637   */\ntag_37:\n    /* \"#utility.yul\":5609:5612   */\n  0x00\n    /* \"#utility.yul\":5564:5637   */\n  swap1\n  jump\t// out\n    /* \"#utility.yul\":5643:5832   */\ntag_38:\n    /* \"#utility.yul\":5720:5752   */\n  tag_111\n  tag_37\n  jump\t// in\ntag_111:\n    /* \"#utility.yul\":5761:5826   */\n  tag_112\n    /* \"#utility.yul\":5819:5825   */\n  dup2\n    /* \"#utility.yul\":5811:5817   */\n  dup5\n    /* \"#utility.yul\":5805:5809   */\n  dup5\n    /* \"#utility.yul\":5761:5826   */\n  tag_36\n  jump\t// in\ntag_112:\n    /* \"#utility.yul\":5696:5832   */\n  pop\n    /* \"#utility.yul\":5643:5832   */\n  pop\n  pop\n  jump\t// out\n    /* \"#utility.yul\":5838:6024   */\ntag_39:\n    /* \"#utility.yul\":5898:6018   */\ntag_114:\n    /* \"#utility.yul\":5915:5918   */\n  dup2\n    /* \"#utility.yul\":5908:5913   */\n  dup2\n    /* \"#utility.yul\":5905:5919   */\n  lt\n    /* \"#utility.yul\":5898:6018   */\n  iszero\n  tag_116\n  jumpi\n    /* \"#utility.yul\":5969:6008   */\n  tag_117\n    /* \"#utility.yul\":6006:6007   */\n  0x00\n    /* \"#utility.yul\":5999:6004   */\n  dup3\n    /* \"#utility.yul\":5969:6008   */\n  tag_38\n  jump\t// in\ntag_117:\n    /* \"#utility.yul\":5942:5943   */\n  0x01\n    /* \"#utility.yul\":5935:5940   */\n  dup2\n    /* \"#utility.yul\":5931:5944   */\n  add\n    /* \"#utility.yul\":5922:5944   */\n  swap1\n  pop\n    /* \"#utility.yul\":5898:6018   */\n  jump(tag_114)\ntag_116:\n    /* \"#utility.yul\":5838:6024   */\n  pop\n  pop\n  jump\t// out\n    /* \"#utility.yul\":6030:6573   */\ntag_40:\n    /* \"#utility.yul\":6131:6133   */\n  0x1f\n    /* \"#utility.yul\":6126:6129   */\n  dup3\n    /* \"#utility.yul\":6123:6134   */\n  gt\n    /* \"#utility.yul\":6120:6566   */\n  iszero\n  tag_119\n  jumpi\n    /* \"#utility.yul\":6165:6203   */\n  tag_120\n    /* \"#utility.yul\":6197:6202   */\n  dup2\n    /* \"#utility.yul\":6165:6203   */\n  tag_28\n  jump\t// in\ntag_120:\n    /* \"#utility.yul\":6249:6278   */\n  tag_121\n    /* \"#utility.yul\":6267:6277   */\n  dup5\n    /* \"#utility.yul\":6249:6278   */\n  tag_29\n  jump\t// in\ntag_121:\n    /* \"#utility.yul\":6239:6247   */\n  dup2\n    /* \"#utility.yul\":6235:6279   */\n  add\n    /* \"#utility.yul\":6432:6434   */\n  0x20\n    /* \"#utility.yul\":6420:6430   */\n  dup6\n    /* \"#utility.yul\":6417:6435   */\n  lt\n    /* \"#utility.yul\":6414:6463   */\n  iszero\n  tag_122\n  jumpi\n    /* \"#utility.yul\":6453:6461   */\n  dup2\n    /* \"#utility.yul\":6438:6461   */\n  swap1\n  pop\n    /* \"#utility.yul\":6414:6463   */\ntag_122:\n    /* \"#utility.yul\":6476:6556   */\n  tag_123\n    /* \"#utility.yul\":6532:6554   */\n  tag_124\n    /* \"#utility.yul\":6550:6553   */\n  dup6\n    /* \"#utility.yul\":6532:6554   */\n  tag_29\n  jump\t// in\ntag_124:\n    /* \"#utility.yul\":6522:6530   */\n  dup4\n    /* \"#utility.yul\":6518:6555   */\n  add\n    /* \"#utility.yul\":6505:6516   */\n  dup3\n    /* \"#utility.yul\":6476:6556   */\n  tag_39\n  jump\t// in\ntag_123:\n    /* \"#utility.yul\":6135:6566   */\n  pop\n  pop\n    /* \"#utility.yul\":6120:6566   */\ntag_119:\n    /* \"#utility.yul\":6030:6573   */\n  pop\n  pop\n  pop\n  jump\t// out\n    /* \"#utility.yul\":6579:6696   */\ntag_41:\n    /* \"#utility.yul\":6633:6641   */\n  0x00\n    /* \"#utility.yul\":6683:6688   */\n  dup3\n    /* \"#utility.yul\":6677:6681   */\n  dup3\n    /* \"#utility.yul\":6673:6689   */\n  shr\n    /* \"#utility.yul\":6652:6689   */\n  swap1\n  pop\n    /* \"#utility.yul\":6579:6696   */\n  swap3\n  swap2\n  pop\n  pop\n  jump\t// out\n    /* \"#utility.yul\":6702:6871   */\ntag_42:\n    /* \"#utility.yul\":6746:6752   */\n  0x00\n    /* \"#utility.yul\":6779:6830   */\n  tag_127\n    /* \"#utility.yul\":6827:6828   */\n  0x00\n    /* \"#utility.yul\":6823:6829   */\n  not\n    /* \"#utility.yul\":6815:6820   */\n  dup5\n    /* \"#utility.yul\":6812:6813   */\n  0x08\n    /* \"#utility.yul\":6808:6821   */\n  mul\n    /* \"#utility.yul\":6779:6830   */\n  tag_41\n  jump\t// in\ntag_127:\n    /* \"#utility.yul\":6775:6831   */\n  not\n    /* \"#utility.yul\":6860:6864   */\n  dup1\n    /* \"#utility.yul\":6854:6858   */\n  dup4\n    /* \"#utility.yul\":6850:6865   */\n  and\n    /* \"#utility.yul\":6840:6865   */\n  swap2\n  pop\n    /* \"#utility.yul\":6753:6871   */\n  pop\n    /* \"#utility.yul\":6702:6871   */\n  swap3\n  swap2\n  pop\n  pop\n  jump\t// out\n    /* \"#utility.yul\":6876:7171   */\ntag_43:\n    /* \"#utility.yul\":6952:6956   */\n  0x00\n    /* \"#utility.yul\":7098:7127   */\n  tag_129\n    /* \"#utility.yul\":7123:7126   */\n  dup4\n    /* \"#utility.yul\":7117:7121   */\n  dup4\n    /* \"#utility.yul\":7098:7127   */\n  tag_42\n  jump\t// in\ntag_129:\n    /* \"#utility.yul\":7090:7127   */\n  swap2\n  pop\n    /* \"#utility.yul\":7160:7163   */\n  dup3\n    /* \"#utility.yul\":7157:7158   */\n  0x02\n    /* \"#utility.yul\":7153:7164   */\n  mul\n    /* \"#utility.yul\":7147:7151   */\n  dup3\n    /* \"#utility.yul\":7144:7165   */\n  or\n    /* \"#utility.yul\":7136:7165   */\n  swap1\n  pop\n    /* \"#utility.yul\":6876:7171   */\n  swap3\n  swap2\n  pop\n  pop\n  jump\t// out\n    /* \"#utility.yul\":7176:8571   */\ntag_8:\n    /* \"#utility.yul\":7293:7330   */\n  tag_131\n    /* \"#utility.yul\":7326:7329   */\n  dup3\n    /* \"#utility.yul\":7293:7330   */\n  tag_25\n  jump\t// in\ntag_131:\n    /* \"#utility.yul\":7395:7413   */\n  0xffffffffffffffff\n    /* \"#utility.yul\":7387:7393   */\n  dup2\n    /* \"#utility.yul\":7384:7414   */\n  gt\n    /* \"#utility.yul\":7381:7437   */\n  iszero\n  tag_132\n  jumpi\n    /* \"#utility.yul\":7417:7435   */\n  tag_133\n  tag_18\n  jump\t// in\ntag_133:\n    /* \"#utility.yul\":7381:7437   */\ntag_132:\n    /* \"#utility.yul\":7461:7499   */\n  tag_134\n    /* \"#utility.yul\":7493:7497   */\n  dup3\n    /* \"#utility.yul\":7487:7498   */\n  sload\n    /* \"#utility.yul\":7461:7499   */\n  tag_27\n  jump\t// in\ntag_134:\n    /* \"#utility.yul\":7546:7613   */\n  tag_135\n    /* \"#utility.yul\":7606:7612   */\n  dup3\n    /* \"#utility.yul\":7598:7604   */\n  dup3\n    /* \"#utility.yul\":7592:7596   */\n  dup6\n    /* \"#utility.yul\":7546:7613   */\n  tag_40\n  jump\t// in\ntag_135:\n    /* \"#utility.yul\":7640:7641   */\n  0x00\n    /* \"#utility.yul\":7664:7668   */\n  0x20\n    /* \"#utility.yul\":7651:7668   */\n  swap1\n  pop\n    /* \"#utility.yul\":7696:7698   */\n  0x1f\n    /* \"#utility.yul\":7688:7694   */\n  dup4\n    /* \"#utility.yul\":7685:7699   */\n  gt\n    /* \"#utility.yul\":7713:7714   */\n  0x01\n    /* \"#utility.yul\":7708:8326   */\n  dup2\n  eq\n  tag_137\n  jumpi\n    /* \"#utility.yul\":8370:8371   */\n  0x00\n    /* \"#utility.yul\":8387:8393   */\n  dup5\n    /* \"#utility.yul\":8384:8461   */\n  iszero\n  tag_138\n  jumpi\n    /* \"#utility.yul\":8436:8445   */\n  dup3\n    /* \"#utility.yul\":8431:8434   */\n  dup8\n    /* \"#utility.yul\":8427:8446   */\n  add\n    /* \"#utility.yul\":8421:8447   */\n  mload\n    /* \"#utility.yul\":8412:8447   */\n  swap1\n  pop\n    /* \"#utility.yul\":8384:8461   */\ntag_138:\n    /* \"#utility.yul\":8487:8554   */\n  tag_139\n    /* \"#utility.yul\":8547:8553   */\n  dup6\n    /* \"#utility.yul\":8540:8545   */\n  dup3\n    /* \"#utility.yul\":8487:8554   */\n  tag_43\n  jump\t// in\ntag_139:\n    /* \"#utility.yul\":8481:8485   */\n  dup7\n    /* \"#utility.yul\":8474:8555   */\n  sstore\n    /* \"#utility.yul\":8343:8565   */\n  pop\n    /* \"#utility.yul\":7678:8565   */\n  jump(tag_136)\n    /* \"#utility.yul\":7708:8326   */\ntag_137:\n    /* \"#utility.yul\":7760:7764   */\n  0x1f\n    /* \"#utility.yul\":7756:7765   */\n  not\n    /* \"#utility.yul\":7748:7754   */\n  dup5\n    /* \"#utility.yul\":7744:7766   */\n  and\n    /* \"#utility.yul\":7794:7831   */\n  tag_140\n    /* \"#utility.yul\":7826:7830   */\n  dup7\n    /* \"#utility.yul\":7794:7831   */\n  tag_28\n  jump\t// in\ntag_140:\n    /* \"#utility.yul\":7853:7854   */\n  0x00\n    /* \"#utility.yul\":7867:8075   */\ntag_141:\n    /* \"#utility.yul\":7881:7888   */\n  dup3\n    /* \"#utility.yul\":7878:7879   */\n  dup2\n    /* \"#utility.yul\":7875:7889   */\n  lt\n    /* \"#utility.yul\":7867:8075   */\n  iszero\n  tag_143\n  jumpi\n    /* \"#utility.yul\":7960:7969   */\n  dup5\n    /* \"#utility.yul\":7955:7958   */\n  dup10\n    /* \"#utility.yul\":7951:7970   */\n  add\n    /* \"#utility.yul\":7945:7971   */\n  mload\n    /* \"#utility.yul\":7937:7943   */\n  dup3\n    /* \"#utility.yul\":7930:7972   */\n  sstore\n    /* \"#utility.yul\":8011:8012   */\n  0x01\n    /* \"#utility.yul\":8003:8009   */\n  dup3\n    /* \"#utility.yul\":7999:8013   */\n  add\n    /* \"#utility.yul\":7989:8013   */\n  swap2\n  pop\n    /* \"#utility.yul\":8058:8060   */\n  0x20\n    /* \"#utility.yul\":8047:8056   */\n  dup6\n    /* \"#utility.yul\":8043:8061   */\n  add\n    /* \"#utility.yul\":8030:8061   */\n  swap5\n  pop\n    /* \"#utility.yul\":7904:7908   */\n  0x20\n    /* \"#utility.yul\":7901:7902   */\n  dup2\n    /* \"#utility.yul\":7897:7909   */\n  add\n    /* \"#utility.yul\":7892:7909   */\n  swap1\n  pop\n    /* \"#utility.yul\":7867:8075   */\n  jump(tag_141)\ntag_143:\n    /* \"#utility.yul\":8103:8109   */\n  dup7\n    /* \"#utility.yul\":8094:8101   */\n  dup4\n    /* \"#utility.yul\":8091:8110   */\n  lt\n    /* \"#utility.yul\":8088:8267   */\n  iszero\n  tag_144\n  jumpi\n    /* \"#utility.yul\":8161:8170   */\n  dup5\n    /* \"#utility.yul\":8156:8159   */\n  dup10\n    /* \"#utility.yul\":8152:8171   */\n  add\n    /* \"#utility.yul\":8146:8172   */\n  mload\n    /* \"#utility.yul\":8204:8252   */\n  tag_145\n    /* \"#utility.yul\":8246:8250   */\n  0x1f\n    /* \"#utility.yul\":8238:8244   */\n  dup10\n    /* \"#utility.yul\":8234:8251   */\n  and\n    /* \"#utility.yul\":8223:8232   */\n  dup3\n    /* \"#utility.yul\":8204:8252   */\n  tag_42\n  jump\t// in\ntag_145:\n    /* \"#utility.yul\":8196:8202   */\n  dup4\n    /* \"#utility.yul\":8189:8253   */\n  sstore\n    /* \"#utility.yul\":8111:8267   */\n  pop\n    /* \"#utility.yul\":8088:8267   */\ntag_144:\n    /* \"#utility.yul\":8313:8314   */\n  0x01\n    /* \"#utility.yul\":8309:8310   */\n  0x02\n    /* \"#utility.yul\":8301:8307   */\n  dup9\n    /* \"#utility.yul\":8297:8311   */\n  mul\n    /* \"#utility.yul\":8293:8315   */\n  add\n    /* \"#utility.yul\":8287:8291   */\n  dup9\n    /* \"#utility.yul\":8280:8316   */\n  sstore\n    /* \"#utility.yul\":7715:8326   */\n  pop\n  pop\n  pop\n    /* \"#utility.yul\":7678:8565   */\ntag_136:\n  pop\n    /* \"#utility.yul\":7268:8571   */\n  pop\n  pop\n  pop\n    /* \"#utility.yul\":7176:8571   */\n  pop\n  pop\n  jump\t// out\n    /* \"myNFT.sol\":132:1222  contract MyNFT is ERC721 {... */\ntag_11:\n  dataSize(sub_0)\n  dup1\n  dataOffset(sub_0)\n  0x00\n  codecopy\n  0x00\n  return\nstop\n\nsub_0: assembly {\n        /* \"myNFT.sol\":132:1222  contract MyNFT is ERC721 {... */\n      mstore(0x40, 0x80)\n      callvalue\n      dup1\n      iszero\n      tag_1\n      jumpi\n      0x00\n      dup1\n      revert\n    tag_1:\n      pop\n      jumpi(tag_2, lt(calldatasize, 0x04))\n      shr(0xe0, calldataload(0x00))\n      dup1\n      0x6352211e\n      gt\n      tag_18\n      jumpi\n      dup1\n      0xb88d4fde\n      gt\n      tag_19\n      jumpi\n      dup1\n      0xb88d4fde\n      eq\n      tag_14\n      jumpi\n      dup1\n      0xc87b56dd\n      eq\n      tag_15\n      jumpi\n      dup1\n      0xe2c4c4b2\n      eq\n      tag_16\n      jumpi\n      dup1\n      0xe985e9c5\n      eq\n      tag_17\n      jumpi\n      jump(tag_2)\n    tag_19:\n      dup1\n      0x6352211e\n      eq\n      tag_10\n      jumpi\n      dup1\n      0x70a08231\n      eq\n      tag_11\n      jumpi\n      dup1\n      0x95d89b41\n      eq\n      tag_12\n      jumpi\n      dup1\n      0xa22cb465\n      eq\n      tag_13\n      jumpi\n      jump(tag_2)\n    tag_18:\n      dup1\n      0x095ea7b3\n      gt\n      tag_20\n      jumpi\n      dup1\n      0x095ea7b3\n      eq\n      tag_6\n      jumpi\n      dup1\n      0x23b872dd\n      eq\n      tag_7\n      jumpi\n      dup1\n      0x29d6724e\n      eq\n      tag_8\n      jumpi\n      dup1\n      0x42842e0e\n      eq\n      tag_9\n      jumpi\n      jump(tag_2)\n    tag_20:\n      dup1\n      0x01ffc9a7\n      eq\n      tag_3\n      jumpi\n      dup1\n      0x06fdde03\n      eq\n      tag_4\n      jumpi\n      dup1\n      0x081812fc\n      eq\n      tag_5\n      jumpi\n    tag_2:\n      0x00\n      dup1\n      revert\n        /* \"node_modules/@openzeppelin/contracts/token/ERC721/ERC721.sol\":2482:2782  function supportsInterface(bytes4 interfaceId) public view virtual override(ERC165, IERC165) returns (bool) {... */\n    tag_3:\n      tag_21\n      0x04\n      dup1\n      calldatasize\n      sub\n      dup2\n      add\n      swap1\n      tag_22\n      swap2\n      swap1\n      tag_23\n      jump\t// in\n    tag_22:\n      tag_24\n      jump\t// in\n    tag_21:\n      mload(0x40)\n      tag_25\n      swap2\n      swap1\n      tag_26\n      jump\t// in\n    tag_25:\n      mload(0x40)\n      dup1\n      swap2\n      sub\n      swap1\n      return\n        /* \"node_modules/@openzeppelin/contracts/token/ERC721/ERC721.sol\":3599:3688  function name() public view virtual returns (string memory) {... */\n    tag_4:\n      tag_27\n      tag_28\n      jump\t// in\n    tag_27:\n      mload(0x40)\n      tag_29\n      swap2\n      swap1\n      tag_30\n      jump\t// in\n    tag_29:\n      mload(0x40)\n      dup1\n      swap2\n      sub\n      swap1\n      return\n        /* \"node_modules/@openzeppelin/contracts/token/ERC721/ERC721.sol\":5284:5438  function getApproved(uint256 tokenId) public view virtual returns (address) {... */\n    tag_5:\n      tag_31\n      0x04\n      dup1\n      calldatasize\n      sub\n      dup2\n      add\n      swap1\n      tag_32\n      swap2\n      swap1\n      tag_33\n      jump\t// in\n    tag_32:\n      tag_34\n      jump\t// in\n    tag_31:\n      mload(0x40)\n      tag_35\n      swap2\n      swap1\n      tag_36\n      jump\t// in\n    tag_35:\n      mload(0x40)\n      dup1\n      swap2\n      sub\n      swap1\n      return\n        /* \"node_modules/@openzeppelin/contracts/token/ERC721/ERC721.sol\":5110:5223  function approve(address to, uint256 tokenId) public virtual {... */\n    tag_6:\n      tag_37\n      0x04\n      dup1\n      calldatasize\n      sub\n      dup2\n      add\n      swap1\n      tag_38\n      swap2\n      swap1\n      tag_39\n      jump\t// in\n    tag_38:\n      tag_40\n      jump\t// in\n    tag_37:\n      stop\n        /* \"node_modules/@openzeppelin/contracts/token/ERC721/ERC721.sol\":5930:6508  function transferFrom(address from, address to, uint256 tokenId) public virtual {... */\n    tag_7:\n      tag_41\n      0x04\n      dup1\n      calldatasize\n      sub\n      dup2\n      add\n      swap1\n      tag_42\n      swap2\n      swap1\n      tag_43\n      jump\t// in\n    tag_42:\n      tag_44\n      jump\t// in\n    tag_41:\n      stop\n        /* \"myNFT.sol\":1084:1220  function setAppAll(address owner, address operator, bool approved) public {... */\n    tag_8:\n      tag_45\n      0x04\n      dup1\n      calldatasize\n      sub\n      dup2\n      add\n      swap1\n      tag_46\n      swap2\n      swap1\n      tag_47\n      jump\t// in\n    tag_46:\n      tag_48\n      jump\t// in\n    tag_45:\n      stop\n        /* \"node_modules/@openzeppelin/contracts/token/ERC721/ERC721.sol\":6574:6706  function safeTransferFrom(address from, address to, uint256 tokenId) public {... */\n    tag_9:\n      tag_49\n      0x04\n      dup1\n      calldatasize\n      sub\n      dup2\n      add\n      swap1\n      tag_50\n      swap2\n      swap1\n      tag_43\n      jump\t// in\n    tag_50:\n      tag_51\n      jump\t// in\n    tag_49:\n      stop\n        /* \"node_modules/@openzeppelin/contracts/token/ERC721/ERC721.sol\":3374:3492  function ownerOf(uint256 tokenId) public view virtual returns (address) {... */\n    tag_10:\n      tag_52\n      0x04\n      dup1\n      calldatasize\n      sub\n      dup2\n      add\n      swap1\n      tag_53\n      swap2\n      swap1\n      tag_33\n      jump\t// in\n    tag_53:\n      tag_54\n      jump\t// in\n    tag_52:\n      mload(0x40)\n      tag_55\n      swap2\n      swap1\n      tag_36\n      jump\t// in\n    tag_55:\n      mload(0x40)\n      dup1\n      swap2\n      sub\n      swap1\n      return\n        /* \"node_modules/@openzeppelin/contracts/token/ERC721/ERC721.sol\":2929:3137  function balanceOf(address owner) public view virtual returns (uint256) {... */\n    tag_11:\n      tag_56\n      0x04\n      dup1\n      calldatasize\n      sub\n      dup2\n      add\n      swap1\n      tag_57\n      swap2\n      swap1\n      tag_58\n      jump\t// in\n    tag_57:\n      tag_59\n      jump\t// in\n    tag_56:\n      mload(0x40)\n      tag_60\n      swap2\n      swap1\n      tag_61\n      jump\t// in\n    tag_60:\n      mload(0x40)\n      dup1\n      swap2\n      sub\n      swap1\n      return\n        /* \"node_modules/@openzeppelin/contracts/token/ERC721/ERC721.sol\":3752:3845  function symbol() public view virtual returns (string memory) {... */\n    tag_12:\n      tag_62\n      tag_63\n      jump\t// in\n    tag_62:\n      mload(0x40)\n      tag_64\n      swap2\n      swap1\n      tag_30\n      jump\t// in\n    tag_64:\n      mload(0x40)\n      dup1\n      swap2\n      sub\n      swap1\n      return\n        /* \"node_modules/@openzeppelin/contracts/token/ERC721/ERC721.sol\":5505:5649  function setApprovalForAll(address operator, bool approved) public virtual {... */\n    tag_13:\n      tag_65\n      0x04\n      dup1\n      calldatasize\n      sub\n      dup2\n      add\n      swap1\n      tag_66\n      swap2\n      swap1\n      tag_67\n      jump\t// in\n    tag_66:\n      tag_68\n      jump\t// in\n    tag_65:\n      stop\n        /* \"node_modules/@openzeppelin/contracts/token/ERC721/ERC721.sol\":6772:6980  function safeTransferFrom(address from, address to, uint256 tokenId, bytes memory data) public virtual {... */\n    tag_14:\n      tag_69\n      0x04\n      dup1\n      calldatasize\n      sub\n      dup2\n      add\n      swap1\n      tag_70\n      swap2\n      swap1\n      tag_71\n      jump\t// in\n    tag_70:\n      tag_72\n      jump\t// in\n    tag_69:\n      stop\n        /* \"myNFT.sol\":573:767  function tokenURI(uint256 _tokenId) public view override returns (string memory) {... */\n    tag_15:\n      tag_73\n      0x04\n      dup1\n      calldatasize\n      sub\n      dup2\n      add\n      swap1\n      tag_74\n      swap2\n      swap1\n      tag_33\n      jump\t// in\n    tag_74:\n      tag_75\n      jump\t// in\n    tag_73:\n      mload(0x40)\n      tag_76\n      swap2\n      swap1\n      tag_30\n      jump\t// in\n    tag_76:\n      mload(0x40)\n      dup1\n      swap2\n      sub\n      swap1\n      return\n        /* \"myNFT.sol\":302:444  function minting(uint256 _tokenId, string memory _uri) public {... */\n    tag_16:\n      tag_77\n      0x04\n      dup1\n      calldatasize\n      sub\n      dup2\n      add\n      swap1\n      tag_78\n      swap2\n      swap1\n      tag_79\n      jump\t// in\n    tag_78:\n      tag_80\n      jump\t// in\n    tag_77:\n      stop\n        /* \"node_modules/@openzeppelin/contracts/token/ERC721/ERC721.sol\":5715:5868  function isApprovedForAll(address owner, address operator) public view virtual returns (bool) {... */\n    tag_17:\n      tag_81\n      0x04\n      dup1\n      calldatasize\n      sub\n      dup2\n      add\n      swap1\n      tag_82\n      swap2\n      swap1\n      tag_83\n      jump\t// in\n    tag_82:\n      tag_84\n      jump\t// in\n    tag_81:\n      mload(0x40)\n      tag_85\n      swap2\n      swap1\n      tag_26\n      jump\t// in\n    tag_85:\n      mload(0x40)\n      dup1\n      swap2\n      sub\n      swap1\n      return\n        /* \"node_modules/@openzeppelin/contracts/token/ERC721/ERC721.sol\":2482:2782  function supportsInterface(bytes4 interfaceId) public view virtual override(ERC165, IERC165) returns (bool) {... */\n    tag_24:\n        /* \"node_modules/@openzeppelin/contracts/token/ERC721/ERC721.sol\":2584:2588  bool */\n      0x00\n        /* \"node_modules/@openzeppelin/contracts/token/ERC721/ERC721.sol\":2634:2659  type(IERC721).interfaceId */\n      0x80ac58cd00000000000000000000000000000000000000000000000000000000\n        /* \"node_modules/@openzeppelin/contracts/token/ERC721/ERC721.sol\":2619:2659  interfaceId == type(IERC721).interfaceId */\n      not(0xffffffffffffffffffffffffffffffffffffffffffffffffffffffff)\n      and\n        /* \"node_modules/@openzeppelin/contracts/token/ERC721/ERC721.sol\":2619:2630  interfaceId */\n      dup3\n        /* \"node_modules/@openzeppelin/contracts/token/ERC721/ERC721.sol\":2619:2659  interfaceId == type(IERC721).interfaceId */\n      not(0xffffffffffffffffffffffffffffffffffffffffffffffffffffffff)\n      and\n      eq\n        /* \"node_modules/@openzeppelin/contracts/token/ERC721/ERC721.sol\":2619:2723  interfaceId == type(IERC721).interfaceId ||... */\n      dup1\n      tag_87\n      jumpi\n      pop\n        /* \"node_modules/@openzeppelin/contracts/token/ERC721/ERC721.sol\":2690:2723  type(IERC721Metadata).interfaceId */\n      0x5b5e139f00000000000000000000000000000000000000000000000000000000\n        /* \"node_modules/@openzeppelin/contracts/token/ERC721/ERC721.sol\":2675:2723  interfaceId == type(IERC721Metadata).interfaceId */\n      not(0xffffffffffffffffffffffffffffffffffffffffffffffffffffffff)\n      and\n        /* \"node_modules/@openzeppelin/contracts/token/ERC721/ERC721.sol\":2675:2686  interfaceId */\n      dup3\n        /* \"node_modules/@openzeppelin/contracts/token/ERC721/ERC721.sol\":2675:2723  interfaceId == type(IERC721Metadata).interfaceId */\n      not(0xffffffffffffffffffffffffffffffffffffffffffffffffffffffff)\n      and\n      eq\n        /* \"node_modules/@openzeppelin/contracts/token/ERC721/ERC721.sol\":2619:2723  interfaceId == type(IERC721).interfaceId ||... */\n    tag_87:\n        /* \"node_modules/@openzeppelin/contracts/token/ERC721/ERC721.sol\":2619:2775  interfaceId == type(IERC721).interfaceId ||... */\n      dup1\n      tag_88\n      jumpi\n      pop\n        /* \"node_modules/@openzeppelin/contracts/token/ERC721/ERC721.sol\":2739:2775  super.supportsInterface(interfaceId) */\n      tag_89\n        /* \"node_modules/@openzeppelin/contracts/token/ERC721/ERC721.sol\":2763:2774  interfaceId */\n      dup3\n        /* \"node_modules/@openzeppelin/contracts/token/ERC721/ERC721.sol\":2739:2762  super.supportsInterface */\n      tag_90\n        /* \"node_modules/@openzeppelin/contracts/token/ERC721/ERC721.sol\":2739:2775  super.supportsInterface(interfaceId) */\n      jump\t// in\n    tag_89:\n        /* \"node_modules/@openzeppelin/contracts/token/ERC721/ERC721.sol\":2619:2775  interfaceId == type(IERC721).interfaceId ||... */\n    tag_88:\n        /* \"node_modules/@openzeppelin/contracts/token/ERC721/ERC721.sol\":2600:2775  return... */\n      swap1\n      pop\n        /* \"node_modules/@openzeppelin/contracts/token/ERC721/ERC721.sol\":2482:2782  function supportsInterface(bytes4 interfaceId) public view virtual override(ERC165, IERC165) returns (bool) {... */\n      swap2\n      swap1\n      pop\n      jump\t// out\n        /* \"node_modules/@openzeppelin/contracts/token/ERC721/ERC721.sol\":3599:3688  function name() public view virtual returns (string memory) {... */\n    tag_28:\n        /* \"node_modules/@openzeppelin/contracts/token/ERC721/ERC721.sol\":3644:3657  string memory */\n      0x60\n        /* \"node_modules/@openzeppelin/contracts/token/ERC721/ERC721.sol\":3676:3681  _name */\n      0x00\n        /* \"node_modules/@openzeppelin/contracts/token/ERC721/ERC721.sol\":3669:3681  return _name */\n      dup1\n      sload\n      tag_92\n      swap1\n      tag_93\n      jump\t// in\n    tag_92:\n      dup1\n      0x1f\n      add\n      0x20\n      dup1\n      swap2\n      div\n      mul\n      0x20\n      add\n      mload(0x40)\n      swap1\n      dup2\n      add\n      0x40\n      mstore\n      dup1\n      swap3\n      swap2\n      swap1\n      dup2\n      dup2\n      mstore\n      0x20\n      add\n      dup3\n      dup1\n      sload\n      tag_94\n      swap1\n      tag_93\n      jump\t// in\n    tag_94:\n      dup1\n      iszero\n      tag_95\n      jumpi\n      dup1\n      0x1f\n      lt\n      tag_96\n      jumpi\n      0x0100\n      dup1\n      dup4\n      sload\n      div\n      mul\n      dup4\n      mstore\n      swap2\n      0x20\n      add\n      swap2\n      jump(tag_95)\n    tag_96:\n      dup3\n      add\n      swap2\n      swap1\n      0x00\n      mstore\n      keccak256(0x00, 0x20)\n      swap1\n    tag_97:\n      dup2\n      sload\n      dup2\n      mstore\n      swap1\n      0x01\n      add\n      swap1\n      0x20\n      add\n      dup1\n      dup4\n      gt\n      tag_97\n      jumpi\n      dup3\n      swap1\n      sub\n      0x1f\n      and\n      dup3\n      add\n      swap2\n    tag_95:\n      pop\n      pop\n      pop\n      pop\n      pop\n      swap1\n      pop\n        /* \"node_modules/@openzeppelin/contracts/token/ERC721/ERC721.sol\":3599:3688  function name() public view virtual returns (string memory) {... */\n      swap1\n      jump\t// out\n        /* \"node_modules/@openzeppelin/contracts/token/ERC721/ERC721.sol\":5284:5438  function getApproved(uint256 tokenId) public view virtual returns (address) {... */\n    tag_34:\n        /* \"node_modules/@openzeppelin/contracts/token/ERC721/ERC721.sol\":5351:5358  address */\n      0x00\n        /* \"node_modules/@openzeppelin/contracts/token/ERC721/ERC721.sol\":5370:5392  _requireOwned(tokenId) */\n      tag_99\n        /* \"node_modules/@openzeppelin/contracts/token/ERC721/ERC721.sol\":5384:5391  tokenId */\n      dup3\n        /* \"node_modules/@openzeppelin/contracts/token/ERC721/ERC721.sol\":5370:5383  _requireOwned */\n      tag_100\n        /* \"node_modules/@openzeppelin/contracts/token/ERC721/ERC721.sol\":5370:5392  _requireOwned(tokenId) */\n      jump\t// in\n    tag_99:\n      pop\n        /* \"node_modules/@openzeppelin/contracts/token/ERC721/ERC721.sol\":5410:5431  _getApproved(tokenId) */\n      tag_101\n        /* \"node_modules/@openzeppelin/contracts/token/ERC721/ERC721.sol\":5423:5430  tokenId */\n      dup3\n        /* \"node_modules/@openzeppelin/contracts/token/ERC721/ERC721.sol\":5410:5422  _getApproved */\n      tag_102\n        /* \"node_modules/@openzeppelin/contracts/token/ERC721/ERC721.sol\":5410:5431  _getApproved(tokenId) */\n      jump\t// in\n    tag_101:\n        /* \"node_modules/@openzeppelin/contracts/token/ERC721/ERC721.sol\":5403:5431  return _getApproved(tokenId) */\n      swap1\n      pop\n        /* \"node_modules/@openzeppelin/contracts/token/ERC721/ERC721.sol\":5284:5438  function getApproved(uint256 tokenId) public view virtual returns (address) {... */\n      swap2\n      swap1\n      pop\n      jump\t// out\n        /* \"node_modules/@openzeppelin/contracts/token/ERC721/ERC721.sol\":5110:5223  function approve(address to, uint256 tokenId) public virtual {... */\n    tag_40:\n        /* \"node_modules/@openzeppelin/contracts/token/ERC721/ERC721.sol\":5181:5216  _approve(to, tokenId, _msgSender()) */\n      tag_104\n        /* \"node_modules/@openzeppelin/contracts/token/ERC721/ERC721.sol\":5190:5192  to */\n      dup3\n        /* \"node_modules/@openzeppelin/contracts/token/ERC721/ERC721.sol\":5194:5201  tokenId */\n      dup3\n        /* \"node_modules/@openzeppelin/contracts/token/ERC721/ERC721.sol\":5203:5215  _msgSender() */\n      tag_105\n        /* \"node_modules/@openzeppelin/contracts/token/ERC721/ERC721.sol\":5203:5213  _msgSender */\n      tag_106\n        /* \"node_modules/@openzeppelin/contracts/token/ERC721/ERC721.sol\":5203:5215  _msgSender() */\n      jump\t// in\n    tag_105:\n        /* \"node_modules/@openzeppelin/contracts/token/ERC721/ERC721.sol\":5181:5189  _approve */\n      tag_107\n        /* \"node_modules/@openzeppelin/contracts/token/ERC721/ERC721.sol\":5181:5216  _approve(to, tokenId, _msgSender()) */\n      jump\t// in\n    tag_104:\n        /* \"node_modules/@openzeppelin/contracts/token/ERC721/ERC721.sol\":5110:5223  function approve(address to, uint256 tokenId) public virtual {... */\n      pop\n      pop\n      jump\t// out\n        /* \"node_modules/@openzeppelin/contracts/token/ERC721/ERC721.sol\":5930:6508  function transferFrom(address from, address to, uint256 tokenId) public virtual {... */\n    tag_44:\n        /* \"node_modules/@openzeppelin/contracts/token/ERC721/ERC721.sol\":6038:6039  0 */\n      0x00\n        /* \"node_modules/@openzeppelin/contracts/token/ERC721/ERC721.sol\":6024:6040  to == address(0) */\n      0xffffffffffffffffffffffffffffffffffffffff\n      and\n        /* \"node_modules/@openzeppelin/contracts/token/ERC721/ERC721.sol\":6024:6026  to */\n      dup3\n        /* \"node_modules/@openzeppelin/contracts/token/ERC721/ERC721.sol\":6024:6040  to == address(0) */\n      0xffffffffffffffffffffffffffffffffffffffff\n      and\n      sub\n        /* \"node_modules/@openzeppelin/contracts/token/ERC721/ERC721.sol\":6020:6107  if (to == address(0)) {... */\n      tag_109\n      jumpi\n        /* \"node_modules/@openzeppelin/contracts/token/ERC721/ERC721.sol\":6093:6094  0 */\n      0x00\n        /* \"node_modules/@openzeppelin/contracts/token/ERC721/ERC721.sol\":6063:6096  ERC721InvalidReceiver(address(0)) */\n      mload(0x40)\n      0x64a0ae9200000000000000000000000000000000000000000000000000000000\n      dup2\n      mstore\n      0x04\n      add\n      tag_110\n      swap2\n      swap1\n      tag_36\n      jump\t// in\n    tag_110:\n      mload(0x40)\n      dup1\n      swap2\n      sub\n      swap1\n      revert\n        /* \"node_modules/@openzeppelin/contracts/token/ERC721/ERC721.sol\":6020:6107  if (to == address(0)) {... */\n    tag_109:\n        /* \"node_modules/@openzeppelin/contracts/token/ERC721/ERC721.sol\":6325:6346  address previousOwner */\n      0x00\n        /* \"node_modules/@openzeppelin/contracts/token/ERC721/ERC721.sol\":6349:6383  _update(to, tokenId, _msgSender()) */\n      tag_111\n        /* \"node_modules/@openzeppelin/contracts/token/ERC721/ERC721.sol\":6357:6359  to */\n      dup4\n        /* \"node_modules/@openzeppelin/contracts/token/ERC721/ERC721.sol\":6361:6368  tokenId */\n      dup4\n        /* \"node_modules/@openzeppelin/contracts/token/ERC721/ERC721.sol\":6370:6382  _msgSender() */\n      tag_112\n        /* \"node_modules/@openzeppelin/contracts/token/ERC721/ERC721.sol\":6370:6380  _msgSender */\n      tag_106\n        /* \"node_modules/@openzeppelin/contracts/token/ERC721/ERC721.sol\":6370:6382  _msgSender() */\n      jump\t// in\n    tag_112:\n        /* \"node_modules/@openzeppelin/contracts/token/ERC721/ERC721.sol\":6349:6356  _update */\n      tag_113\n        /* \"node_modules/@openzeppelin/contracts/token/ERC721/ERC721.sol\":6349:6383  _update(to, tokenId, _msgSender()) */\n      jump\t// in\n    tag_111:\n        /* \"node_modules/@openzeppelin/contracts/token/ERC721/ERC721.sol\":6325:6383  address previousOwner = _update(to, tokenId, _msgSender()) */\n      swap1\n      pop\n        /* \"node_modules/@openzeppelin/contracts/token/ERC721/ERC721.sol\":6414:6418  from */\n      dup4\n        /* \"node_modules/@openzeppelin/contracts/token/ERC721/ERC721.sol\":6397:6418  previousOwner != from */\n      0xffffffffffffffffffffffffffffffffffffffff\n      and\n        /* \"node_modules/@openzeppelin/contracts/token/ERC721/ERC721.sol\":6397:6410  previousOwner */\n      dup2\n        /* \"node_modules/@openzeppelin/contracts/token/ERC721/ERC721.sol\":6397:6418  previousOwner != from */\n      0xffffffffffffffffffffffffffffffffffffffff\n      and\n      eq\n        /* \"node_modules/@openzeppelin/contracts/token/ERC721/ERC721.sol\":6393:6502  if (previousOwner != from) {... */\n      tag_114\n      jumpi\n        /* \"node_modules/@openzeppelin/contracts/token/ERC721/ERC721.sol\":6462:6466  from */\n      dup4\n        /* \"node_modules/@openzeppelin/contracts/token/ERC721/ERC721.sol\":6468:6475  tokenId */\n      dup3\n        /* \"node_modules/@openzeppelin/contracts/token/ERC721/ERC721.sol\":6477:6490  previousOwner */\n      dup3\n        /* \"node_modules/@openzeppelin/contracts/token/ERC721/ERC721.sol\":6441:6491  ERC721IncorrectOwner(from, tokenId, previousOwner) */\n      mload(0x40)\n      0x64283d7b00000000000000000000000000000000000000000000000000000000\n      dup2\n      mstore\n      0x04\n      add\n      tag_115\n      swap4\n      swap3\n      swap2\n      swap1\n      tag_116\n      jump\t// in\n    tag_115:\n      mload(0x40)\n      dup1\n      swap2\n      sub\n      swap1\n      revert\n        /* \"node_modules/@openzeppelin/contracts/token/ERC721/ERC721.sol\":6393:6502  if (previousOwner != from) {... */\n    tag_114:\n        /* \"node_modules/@openzeppelin/contracts/token/ERC721/ERC721.sol\":6010:6508  {... */\n      pop\n        /* \"node_modules/@openzeppelin/contracts/token/ERC721/ERC721.sol\":5930:6508  function transferFrom(address from, address to, uint256 tokenId) public virtual {... */\n      pop\n      pop\n      pop\n      jump\t// out\n        /* \"myNFT.sol\":1084:1220  function setAppAll(address owner, address operator, bool approved) public {... */\n    tag_48:\n        /* \"myNFT.sol\":1168:1213  _setApprovalForAll(owner, operator, approved) */\n      tag_118\n        /* \"myNFT.sol\":1187:1192  owner */\n      dup4\n        /* \"myNFT.sol\":1194:1202  operator */\n      dup4\n        /* \"myNFT.sol\":1204:1212  approved */\n      dup4\n        /* \"myNFT.sol\":1168:1186  _setApprovalForAll */\n      tag_119\n        /* \"myNFT.sol\":1168:1213  _setApprovalForAll(owner, operator, approved) */\n      jump\t// in\n    tag_118:\n        /* \"myNFT.sol\":1084:1220  function setAppAll(address owner, address operator, bool approved) public {... */\n      pop\n      pop\n      pop\n      jump\t// out\n        /* \"node_modules/@openzeppelin/contracts/token/ERC721/ERC721.sol\":6574:6706  function safeTransferFrom(address from, address to, uint256 tokenId) public {... */\n    tag_51:\n        /* \"node_modules/@openzeppelin/contracts/token/ERC721/ERC721.sol\":6660:6699  safeTransferFrom(from, to, tokenId, \"\") */\n      tag_121\n        /* \"node_modules/@openzeppelin/contracts/token/ERC721/ERC721.sol\":6677:6681  from */\n      dup4\n        /* \"node_modules/@openzeppelin/contracts/token/ERC721/ERC721.sol\":6683:6685  to */\n      dup4\n        /* \"node_modules/@openzeppelin/contracts/token/ERC721/ERC721.sol\":6687:6694  tokenId */\n      dup4\n        /* \"node_modules/@openzeppelin/contracts/token/ERC721/ERC721.sol\":6660:6699  safeTransferFrom(from, to, tokenId, \"\") */\n      mload(0x40)\n      dup1\n      0x20\n      add\n      0x40\n      mstore\n      dup1\n      0x00\n      dup2\n      mstore\n      pop\n        /* \"node_modules/@openzeppelin/contracts/token/ERC721/ERC721.sol\":6660:6676  safeTransferFrom */\n      tag_72\n        /* \"node_modules/@openzeppelin/contracts/token/ERC721/ERC721.sol\":6660:6699  safeTransferFrom(from, to, tokenId, \"\") */\n      jump\t// in\n    tag_121:\n        /* \"node_modules/@openzeppelin/contracts/token/ERC721/ERC721.sol\":6574:6706  function safeTransferFrom(address from, address to, uint256 tokenId) public {... */\n      pop\n      pop\n      pop\n      jump\t// out\n        /* \"node_modules/@openzeppelin/contracts/token/ERC721/ERC721.sol\":3374:3492  function ownerOf(uint256 tokenId) public view virtual returns (address) {... */\n    tag_54:\n        /* \"node_modules/@openzeppelin/contracts/token/ERC721/ERC721.sol\":3437:3444  address */\n      0x00\n        /* \"node_modules/@openzeppelin/contracts/token/ERC721/ERC721.sol\":3463:3485  _requireOwned(tokenId) */\n      tag_123\n        /* \"node_modules/@openzeppelin/contracts/token/ERC721/ERC721.sol\":3477:3484  tokenId */\n      dup3\n        /* \"node_modules/@openzeppelin/contracts/token/ERC721/ERC721.sol\":3463:3476  _requireOwned */\n      tag_100\n        /* \"node_modules/@openzeppelin/contracts/token/ERC721/ERC721.sol\":3463:3485  _requireOwned(tokenId) */\n      jump\t// in\n    tag_123:\n        /* \"node_modules/@openzeppelin/contracts/token/ERC721/ERC721.sol\":3456:3485  return _requireOwned(tokenId) */\n      swap1\n      pop\n        /* \"node_modules/@openzeppelin/contracts/token/ERC721/ERC721.sol\":3374:3492  function ownerOf(uint256 tokenId) public view virtual returns (address) {... */\n      swap2\n      swap1\n      pop\n      jump\t// out\n        /* \"node_modules/@openzeppelin/contracts/token/ERC721/ERC721.sol\":2929:3137  function balanceOf(address owner) public view virtual returns (uint256) {... */\n    tag_59:\n        /* \"node_modules/@openzeppelin/contracts/token/ERC721/ERC721.sol\":2992:2999  uint256 */\n      0x00\n        /* \"node_modules/@openzeppelin/contracts/token/ERC721/ERC721.sol\":3032:3033  0 */\n      dup1\n        /* \"node_modules/@openzeppelin/contracts/token/ERC721/ERC721.sol\":3015:3034  owner == address(0) */\n      0xffffffffffffffffffffffffffffffffffffffff\n      and\n        /* \"node_modules/@openzeppelin/contracts/token/ERC721/ERC721.sol\":3015:3020  owner */\n      dup3\n        /* \"node_modules/@openzeppelin/contracts/token/ERC721/ERC721.sol\":3015:3034  owner == address(0) */\n      0xffffffffffffffffffffffffffffffffffffffff\n      and\n      sub\n        /* \"node_modules/@openzeppelin/contracts/token/ERC721/ERC721.sol\":3011:3098  if (owner == address(0)) {... */\n      tag_125\n      jumpi\n        /* \"node_modules/@openzeppelin/contracts/token/ERC721/ERC721.sol\":3084:3085  0 */\n      0x00\n        /* \"node_modules/@openzeppelin/contracts/token/ERC721/ERC721.sol\":3057:3087  ERC721InvalidOwner(address(0)) */\n      mload(0x40)\n      0x89c62b6400000000000000000000000000000000000000000000000000000000\n      dup2\n      mstore\n      0x04\n      add\n      tag_126\n      swap2\n      swap1\n      tag_36\n      jump\t// in\n    tag_126:\n      mload(0x40)\n      dup1\n      swap2\n      sub\n      swap1\n      revert\n        /* \"node_modules/@openzeppelin/contracts/token/ERC721/ERC721.sol\":3011:3098  if (owner == address(0)) {... */\n    tag_125:\n        /* \"node_modules/@openzeppelin/contracts/token/ERC721/ERC721.sol\":3114:3123  _balances */\n      0x03\n        /* \"node_modules/@openzeppelin/contracts/token/ERC721/ERC721.sol\":3114:3130  _balances[owner] */\n      0x00\n        /* \"node_modules/@openzeppelin/contracts/token/ERC721/ERC721.sol\":3124:3129  owner */\n      dup4\n        /* \"node_modules/@openzeppelin/contracts/token/ERC721/ERC721.sol\":3114:3130  _balances[owner] */\n      0xffffffffffffffffffffffffffffffffffffffff\n      and\n      0xffffffffffffffffffffffffffffffffffffffff\n      and\n      dup2\n      mstore\n      0x20\n      add\n      swap1\n      dup2\n      mstore\n      0x20\n      add\n      0x00\n      keccak256\n      sload\n        /* \"node_modules/@openzeppelin/contracts/token/ERC721/ERC721.sol\":3107:3130  return _balances[owner] */\n      swap1\n      pop\n        /* \"node_modules/@openzeppelin/contracts/token/ERC721/ERC721.sol\":2929:3137  function balanceOf(address owner) public view virtual returns (uint256) {... */\n      swap2\n      swap1\n      pop\n      jump\t// out\n        /* \"node_modules/@openzeppelin/contracts/token/ERC721/ERC721.sol\":3752:3845  function symbol() public view virtual returns (string memory) {... */\n    tag_63:\n        /* \"node_modules/@openzeppelin/contracts/token/ERC721/ERC721.sol\":3799:3812  string memory */\n      0x60\n        /* \"node_modules/@openzeppelin/contracts/token/ERC721/ERC721.sol\":3831:3838  _symbol */\n      0x01\n        /* \"node_modules/@openzeppelin/contracts/token/ERC721/ERC721.sol\":3824:3838  return _symbol */\n      dup1\n      sload\n      tag_128\n      swap1\n      tag_93\n      jump\t// in\n    tag_128:\n      dup1\n      0x1f\n      add\n      0x20\n      dup1\n      swap2\n      div\n      mul\n      0x20\n      add\n      mload(0x40)\n      swap1\n      dup2\n      add\n      0x40\n      mstore\n      dup1\n      swap3\n      swap2\n      swap1\n      dup2\n      dup2\n      mstore\n      0x20\n      add\n      dup3\n      dup1\n      sload\n      tag_129\n      swap1\n      tag_93\n      jump\t// in\n    tag_129:\n      dup1\n      iszero\n      tag_130\n      jumpi\n      dup1\n      0x1f\n      lt\n      tag_131\n      jumpi\n      0x0100\n      dup1\n      dup4\n      sload\n      div\n      mul\n      dup4\n      mstore\n      swap2\n      0x20\n      add\n      swap2\n      jump(tag_130)\n    tag_131:\n      dup3\n      add\n      swap2\n      swap1\n      0x00\n      mstore\n      keccak256(0x00, 0x20)\n      swap1\n    tag_132:\n      dup2\n      sload\n      dup2\n      mstore\n      swap1\n      0x01\n      add\n      swap1\n      0x20\n      add\n      dup1\n      dup4\n      gt\n      tag_132\n      jumpi\n      dup3\n      swap1\n      sub\n      0x1f\n      and\n      dup3\n      add\n      swap2\n    tag_130:\n      pop\n      pop\n      pop\n      pop\n      pop\n      swap1\n      pop\n        /* \"node_modules/@openzeppelin/contracts/token/ERC721/ERC721.sol\":3752:3845  function symbol() public view virtual returns (string memory) {... */\n      swap1\n      jump\t// out\n        /* \"node_modules/@openzeppelin/contracts/token/ERC721/ERC721.sol\":5505:5649  function setApprovalForAll(address operator, bool approved) public virtual {... */\n    tag_68:\n        /* \"node_modules/@openzeppelin/contracts/token/ERC721/ERC721.sol\":5590:5642  _setApprovalForAll(_msgSender(), operator, approved) */\n      tag_134\n        /* \"node_modules/@openzeppelin/contracts/token/ERC721/ERC721.sol\":5609:5621  _msgSender() */\n      tag_135\n        /* \"node_modules/@openzeppelin/contracts/token/ERC721/ERC721.sol\":5609:5619  _msgSender */\n      tag_106\n        /* \"node_modules/@openzeppelin/contracts/token/ERC721/ERC721.sol\":5609:5621  _msgSender() */\n      jump\t// in\n    tag_135:\n        /* \"node_modules/@openzeppelin/contracts/token/ERC721/ERC721.sol\":5623:5631  operator */\n      dup4\n        /* \"node_modules/@openzeppelin/contracts/token/ERC721/ERC721.sol\":5633:5641  approved */\n      dup4\n        /* \"node_modules/@openzeppelin/contracts/token/ERC721/ERC721.sol\":5590:5608  _setApprovalForAll */\n      tag_119\n        /* \"node_modules/@openzeppelin/contracts/token/ERC721/ERC721.sol\":5590:5642  _setApprovalForAll(_msgSender(), operator, approved) */\n      jump\t// in\n    tag_134:\n        /* \"node_modules/@openzeppelin/contracts/token/ERC721/ERC721.sol\":5505:5649  function setApprovalForAll(address operator, bool approved) public virtual {... */\n      pop\n      pop\n      jump\t// out\n        /* \"node_modules/@openzeppelin/contracts/token/ERC721/ERC721.sol\":6772:6980  function safeTransferFrom(address from, address to, uint256 tokenId, bytes memory data) public virtual {... */\n    tag_72:\n        /* \"node_modules/@openzeppelin/contracts/token/ERC721/ERC721.sol\":6885:6916  transferFrom(from, to, tokenId) */\n      tag_137\n        /* \"node_modules/@openzeppelin/contracts/token/ERC721/ERC721.sol\":6898:6902  from */\n      dup5\n        /* \"node_modules/@openzeppelin/contracts/token/ERC721/ERC721.sol\":6904:6906  to */\n      dup5\n        /* \"node_modules/@openzeppelin/contracts/token/ERC721/ERC721.sol\":6908:6915  tokenId */\n      dup5\n        /* \"node_modules/@openzeppelin/contracts/token/ERC721/ERC721.sol\":6885:6897  transferFrom */\n      tag_44\n        /* \"node_modules/@openzeppelin/contracts/token/ERC721/ERC721.sol\":6885:6916  transferFrom(from, to, tokenId) */\n      jump\t// in\n    tag_137:\n        /* \"node_modules/@openzeppelin/contracts/token/ERC721/ERC721.sol\":6926:6973  _checkOnERC721Received(from, to, tokenId, data) */\n      tag_138\n        /* \"node_modules/@openzeppelin/contracts/token/ERC721/ERC721.sol\":6949:6953  from */\n      dup5\n        /* \"node_modules/@openzeppelin/contracts/token/ERC721/ERC721.sol\":6955:6957  to */\n      dup5\n        /* \"node_modules/@openzeppelin/contracts/token/ERC721/ERC721.sol\":6959:6966  tokenId */\n      dup5\n        /* \"node_modules/@openzeppelin/contracts/token/ERC721/ERC721.sol\":6968:6972  data */\n      dup5\n        /* \"node_modules/@openzeppelin/contracts/token/ERC721/ERC721.sol\":6926:6948  _checkOnERC721Received */\n      tag_139\n        /* \"node_modules/@openzeppelin/contracts/token/ERC721/ERC721.sol\":6926:6973  _checkOnERC721Received(from, to, tokenId, data) */\n      jump\t// in\n    tag_138:\n        /* \"node_modules/@openzeppelin/contracts/token/ERC721/ERC721.sol\":6772:6980  function safeTransferFrom(address from, address to, uint256 tokenId, bytes memory data) public virtual {... */\n      pop\n      pop\n      pop\n      pop\n      jump\t// out\n        /* \"myNFT.sol\":573:767  function tokenURI(uint256 _tokenId) public view override returns (string memory) {... */\n    tag_75:\n        /* \"myNFT.sol\":639:652  string memory */\n      0x60\n        /* \"myNFT.sol\":701:702  0 */\n      0x00\n        /* \"myNFT.sol\":672:703  ownerOf(_tokenId) != address(0) */\n      0xffffffffffffffffffffffffffffffffffffffff\n      and\n        /* \"myNFT.sol\":672:689  ownerOf(_tokenId) */\n      tag_141\n        /* \"myNFT.sol\":680:688  _tokenId */\n      dup4\n        /* \"myNFT.sol\":672:679  ownerOf */\n      tag_54\n        /* \"myNFT.sol\":672:689  ownerOf(_tokenId) */\n      jump\t// in\n    tag_141:\n        /* \"myNFT.sol\":672:703  ownerOf(_tokenId) != address(0) */\n      0xffffffffffffffffffffffffffffffffffffffff\n      and\n      sub\n        /* \"myNFT.sol\":664:723  require(ownerOf(_tokenId) != address(0),\"URI is not valid\") */\n      tag_142\n      jumpi\n      mload(0x40)\n      0x08c379a000000000000000000000000000000000000000000000000000000000\n      dup2\n      mstore\n      0x04\n      add\n      tag_143\n      swap1\n      tag_144\n      jump\t// in\n    tag_143:\n      mload(0x40)\n      dup1\n      swap2\n      sub\n      swap1\n      revert\n    tag_142:\n        /* \"myNFT.sol\":740:750  _tokenURIs */\n      0x06\n        /* \"myNFT.sol\":740:760  _tokenURIs[_tokenId] */\n      0x00\n        /* \"myNFT.sol\":751:759  _tokenId */\n      dup4\n        /* \"myNFT.sol\":740:760  _tokenURIs[_tokenId] */\n      dup2\n      mstore\n      0x20\n      add\n      swap1\n      dup2\n      mstore\n      0x20\n      add\n      0x00\n      keccak256\n        /* \"myNFT.sol\":733:760  return _tokenURIs[_tokenId] */\n      dup1\n      sload\n      tag_145\n      swap1\n      tag_93\n      jump\t// in\n    tag_145:\n      dup1\n      0x1f\n      add\n      0x20\n      dup1\n      swap2\n      div\n      mul\n      0x20\n      add\n      mload(0x40)\n      swap1\n      dup2\n      add\n      0x40\n      mstore\n      dup1\n      swap3\n      swap2\n      swap1\n      dup2\n      dup2\n      mstore\n      0x20\n      add\n      dup3\n      dup1\n      sload\n      tag_146\n      swap1\n      tag_93\n      jump\t// in\n    tag_146:\n      dup1\n      iszero\n      tag_147\n      jumpi\n      dup1\n      0x1f\n      lt\n      tag_148\n      jumpi\n      0x0100\n      dup1\n      dup4\n      sload\n      div\n      mul\n      dup4\n      mstore\n      swap2\n      0x20\n      add\n      swap2\n      jump(tag_147)\n    tag_148:\n      dup3\n      add\n      swap2\n      swap1\n      0x00\n      mstore\n      keccak256(0x00, 0x20)\n      swap1\n    tag_149:\n      dup2\n      sload\n      dup2\n      mstore\n      swap1\n      0x01\n      add\n      swap1\n      0x20\n      add\n      dup1\n      dup4\n      gt\n      tag_149\n      jumpi\n      dup3\n      swap1\n      sub\n      0x1f\n      and\n      dup3\n      add\n      swap2\n    tag_147:\n      pop\n      pop\n      pop\n      pop\n      pop\n      swap1\n      pop\n        /* \"myNFT.sol\":573:767  function tokenURI(uint256 _tokenId) public view override returns (string memory) {... */\n      swap2\n      swap1\n      pop\n      jump\t// out\n        /* \"myNFT.sol\":302:444  function minting(uint256 _tokenId, string memory _uri) public {... */\n    tag_80:\n        /* \"myNFT.sol\":374:400  _mint(msg.sender,_tokenId) */\n      tag_151\n        /* \"myNFT.sol\":380:390  msg.sender */\n      caller\n        /* \"myNFT.sol\":391:399  _tokenId */\n      dup4\n        /* \"myNFT.sol\":374:379  _mint */\n      tag_152\n        /* \"myNFT.sol\":374:400  _mint(msg.sender,_tokenId) */\n      jump\t// in\n    tag_151:\n        /* \"myNFT.sol\":410:437  _setTokenURI(_tokenId,_uri) */\n      tag_153\n        /* \"myNFT.sol\":423:431  _tokenId */\n      dup3\n        /* \"myNFT.sol\":432:436  _uri */\n      dup3\n        /* \"myNFT.sol\":410:422  _setTokenURI */\n      tag_154\n        /* \"myNFT.sol\":410:437  _setTokenURI(_tokenId,_uri) */\n      jump\t// in\n    tag_153:\n        /* \"myNFT.sol\":302:444  function minting(uint256 _tokenId, string memory _uri) public {... */\n      pop\n      pop\n      jump\t// out\n        /* \"node_modules/@openzeppelin/contracts/token/ERC721/ERC721.sol\":5715:5868  function isApprovedForAll(address owner, address operator) public view virtual returns (bool) {... */\n    tag_84:\n        /* \"node_modules/@openzeppelin/contracts/token/ERC721/ERC721.sol\":5803:5807  bool */\n      0x00\n        /* \"node_modules/@openzeppelin/contracts/token/ERC721/ERC721.sol\":5826:5844  _operatorApprovals */\n      0x05\n        /* \"node_modules/@openzeppelin/contracts/token/ERC721/ERC721.sol\":5826:5851  _operatorApprovals[owner] */\n      0x00\n        /* \"node_modules/@openzeppelin/contracts/token/ERC721/ERC721.sol\":5845:5850  owner */\n      dup5\n        /* \"node_modules/@openzeppelin/contracts/token/ERC721/ERC721.sol\":5826:5851  _operatorApprovals[owner] */\n      0xffffffffffffffffffffffffffffffffffffffff\n      and\n      0xffffffffffffffffffffffffffffffffffffffff\n      and\n      dup2\n      mstore\n      0x20\n      add\n      swap1\n      dup2\n      mstore\n      0x20\n      add\n      0x00\n      keccak256\n        /* \"node_modules/@openzeppelin/contracts/token/ERC721/ERC721.sol\":5826:5861  _operatorApprovals[owner][operator] */\n      0x00\n        /* \"node_modules/@openzeppelin/contracts/token/ERC721/ERC721.sol\":5852:5860  operator */\n      dup4\n        /* \"node_modules/@openzeppelin/contracts/token/ERC721/ERC721.sol\":5826:5861  _operatorApprovals[owner][operator] */\n      0xffffffffffffffffffffffffffffffffffffffff\n      and\n      0xffffffffffffffffffffffffffffffffffffffff\n      and\n      dup2\n      mstore\n      0x20\n      add\n      swap1\n      dup2\n      mstore\n      0x20\n      add\n      0x00\n      keccak256\n      0x00\n      swap1\n      sload\n      swap1\n      0x0100\n      exp\n      swap1\n      div\n      0xff\n      and\n        /* \"node_modules/@openzeppelin/contracts/token/ERC721/ERC721.sol\":5819:5861  return _operatorApprovals[owner][operator] */\n      swap1\n      pop\n        /* \"node_modules/@openzeppelin/contracts/token/ERC721/ERC721.sol\":5715:5868  function isApprovedForAll(address owner, address operator) public view virtual returns (bool) {... */\n      swap3\n      swap2\n      pop\n      pop\n      jump\t// out\n        /* \"node_modules/@openzeppelin/contracts/utils/introspection/ERC165.sol\":762:908  function supportsInterface(bytes4 interfaceId) public view virtual returns (bool) {... */\n    tag_90:\n        /* \"node_modules/@openzeppelin/contracts/utils/introspection/ERC165.sol\":838:842  bool */\n      0x00\n        /* \"node_modules/@openzeppelin/contracts/utils/introspection/ERC165.sol\":876:901  type(IERC165).interfaceId */\n      0x01ffc9a700000000000000000000000000000000000000000000000000000000\n        /* \"node_modules/@openzeppelin/contracts/utils/introspection/ERC165.sol\":861:901  interfaceId == type(IERC165).interfaceId */\n      not(0xffffffffffffffffffffffffffffffffffffffffffffffffffffffff)\n      and\n        /* \"node_modules/@openzeppelin/contracts/utils/introspection/ERC165.sol\":861:872  interfaceId */\n      dup3\n        /* \"node_modules/@openzeppelin/contracts/utils/introspection/ERC165.sol\":861:901  interfaceId == type(IERC165).interfaceId */\n      not(0xffffffffffffffffffffffffffffffffffffffffffffffffffffffff)\n      and\n      eq\n        /* \"node_modules/@openzeppelin/contracts/utils/introspection/ERC165.sol\":854:901  return interfaceId == type(IERC165).interfaceId */\n      swap1\n      pop\n        /* \"node_modules/@openzeppelin/contracts/utils/introspection/ERC165.sol\":762:908  function supportsInterface(bytes4 interfaceId) public view virtual returns (bool) {... */\n      swap2\n      swap1\n      pop\n      jump\t// out\n        /* \"node_modules/@openzeppelin/contracts/token/ERC721/ERC721.sol\":17925:18166  function _requireOwned(uint256 tokenId) internal view returns (address) {... */\n    tag_100:\n        /* \"node_modules/@openzeppelin/contracts/token/ERC721/ERC721.sol\":17988:17995  address */\n      0x00\n        /* \"node_modules/@openzeppelin/contracts/token/ERC721/ERC721.sol\":18007:18020  address owner */\n      dup1\n        /* \"node_modules/@openzeppelin/contracts/token/ERC721/ERC721.sol\":18023:18040  _ownerOf(tokenId) */\n      tag_158\n        /* \"node_modules/@openzeppelin/contracts/token/ERC721/ERC721.sol\":18032:18039  tokenId */\n      dup4\n        /* \"node_modules/@openzeppelin/contracts/token/ERC721/ERC721.sol\":18023:18031  _ownerOf */\n      tag_159\n        /* \"node_modules/@openzeppelin/contracts/token/ERC721/ERC721.sol\":18023:18040  _ownerOf(tokenId) */\n      jump\t// in\n    tag_158:\n        /* \"node_modules/@openzeppelin/contracts/token/ERC721/ERC721.sol\":18007:18040  address owner = _ownerOf(tokenId) */\n      swap1\n      pop\n        /* \"node_modules/@openzeppelin/contracts/token/ERC721/ERC721.sol\":18071:18072  0 */\n      0x00\n        /* \"node_modules/@openzeppelin/contracts/token/ERC721/ERC721.sol\":18054:18073  owner == address(0) */\n      0xffffffffffffffffffffffffffffffffffffffff\n      and\n        /* \"node_modules/@openzeppelin/contracts/token/ERC721/ERC721.sol\":18054:18059  owner */\n      dup2\n        /* \"node_modules/@openzeppelin/contracts/token/ERC721/ERC721.sol\":18054:18073  owner == address(0) */\n      0xffffffffffffffffffffffffffffffffffffffff\n      and\n      sub\n        /* \"node_modules/@openzeppelin/contracts/token/ERC721/ERC721.sol\":18050:18138  if (owner == address(0)) {... */\n      tag_160\n      jumpi\n        /* \"node_modules/@openzeppelin/contracts/token/ERC721/ERC721.sol\":18119:18126  tokenId */\n      dup3\n        /* \"node_modules/@openzeppelin/contracts/token/ERC721/ERC721.sol\":18096:18127  ERC721NonexistentToken(tokenId) */\n      mload(0x40)\n      0x7e27328900000000000000000000000000000000000000000000000000000000\n      dup2\n      mstore\n      0x04\n      add\n      tag_161\n      swap2\n      swap1\n      tag_61\n      jump\t// in\n    tag_161:\n      mload(0x40)\n      dup1\n      swap2\n      sub\n      swap1\n      revert\n        /* \"node_modules/@openzeppelin/contracts/token/ERC721/ERC721.sol\":18050:18138  if (owner == address(0)) {... */\n    tag_160:\n        /* \"node_modules/@openzeppelin/contracts/token/ERC721/ERC721.sol\":18154:18159  owner */\n      dup1\n        /* \"node_modules/@openzeppelin/contracts/token/ERC721/ERC721.sol\":18147:18159  return owner */\n      swap2\n      pop\n      pop\n        /* \"node_modules/@openzeppelin/contracts/token/ERC721/ERC721.sol\":17925:18166  function _requireOwned(uint256 tokenId) internal view returns (address) {... */\n      swap2\n      swap1\n      pop\n      jump\t// out\n        /* \"node_modules/@openzeppelin/contracts/token/ERC721/ERC721.sol\":7725:7852  function _getApproved(uint256 tokenId) internal view virtual returns (address) {... */\n    tag_102:\n        /* \"node_modules/@openzeppelin/contracts/token/ERC721/ERC721.sol\":7795:7802  address */\n      0x00\n        /* \"node_modules/@openzeppelin/contracts/token/ERC721/ERC721.sol\":7821:7836  _tokenApprovals */\n      0x04\n        /* \"node_modules/@openzeppelin/contracts/token/ERC721/ERC721.sol\":7821:7845  _tokenApprovals[tokenId] */\n      0x00\n        /* \"node_modules/@openzeppelin/contracts/token/ERC721/ERC721.sol\":7837:7844  tokenId */\n      dup4\n        /* \"node_modules/@openzeppelin/contracts/token/ERC721/ERC721.sol\":7821:7845  _tokenApprovals[tokenId] */\n      dup2\n      mstore\n      0x20\n      add\n      swap1\n      dup2\n      mstore\n      0x20\n      add\n      0x00\n      keccak256\n      0x00\n      swap1\n      sload\n      swap1\n      0x0100\n      exp\n      swap1\n      div\n      0xffffffffffffffffffffffffffffffffffffffff\n      and\n        /* \"node_modules/@openzeppelin/contracts/token/ERC721/ERC721.sol\":7814:7845  return _tokenApprovals[tokenId] */\n      swap1\n      pop\n        /* \"node_modules/@openzeppelin/contracts/token/ERC721/ERC721.sol\":7725:7852  function _getApproved(uint256 tokenId) internal view virtual returns (address) {... */\n      swap2\n      swap1\n      pop\n      jump\t// out\n        /* \"node_modules/@openzeppelin/contracts/utils/Context.sol\":656:752  function _msgSender() internal view virtual returns (address) {... */\n    tag_106:\n        /* \"node_modules/@openzeppelin/contracts/utils/Context.sol\":709:716  address */\n      0x00\n        /* \"node_modules/@openzeppelin/contracts/utils/Context.sol\":735:745  msg.sender */\n      caller\n        /* \"node_modules/@openzeppelin/contracts/utils/Context.sol\":728:745  return msg.sender */\n      swap1\n      pop\n        /* \"node_modules/@openzeppelin/contracts/utils/Context.sol\":656:752  function _msgSender() internal view virtual returns (address) {... */\n      swap1\n      jump\t// out\n        /* \"node_modules/@openzeppelin/contracts/token/ERC721/ERC721.sol\":16205:16325  function _approve(address to, uint256 tokenId, address auth) internal {... */\n    tag_107:\n        /* \"node_modules/@openzeppelin/contracts/token/ERC721/ERC721.sol\":16285:16318  _approve(to, tokenId, auth, true) */\n      tag_165\n        /* \"node_modules/@openzeppelin/contracts/token/ERC721/ERC721.sol\":16294:16296  to */\n      dup4\n        /* \"node_modules/@openzeppelin/contracts/token/ERC721/ERC721.sol\":16298:16305  tokenId */\n      dup4\n        /* \"node_modules/@openzeppelin/contracts/token/ERC721/ERC721.sol\":16307:16311  auth */\n      dup4\n        /* \"node_modules/@openzeppelin/contracts/token/ERC721/ERC721.sol\":16313:16317  true */\n      0x01\n        /* \"node_modules/@openzeppelin/contracts/token/ERC721/ERC721.sol\":16285:16293  _approve */\n      tag_166\n        /* \"node_modules/@openzeppelin/contracts/token/ERC721/ERC721.sol\":16285:16318  _approve(to, tokenId, auth, true) */\n      jump\t// in\n    tag_165:\n        /* \"node_modules/@openzeppelin/contracts/token/ERC721/ERC721.sol\":16205:16325  function _approve(address to, uint256 tokenId, address auth) internal {... */\n      pop\n      pop\n      pop\n      jump\t// out\n        /* \"node_modules/@openzeppelin/contracts/token/ERC721/ERC721.sol\":10625:11420  function _update(address to, uint256 tokenId, address auth) internal virtual returns (address) {... */\n    tag_113:\n        /* \"node_modules/@openzeppelin/contracts/token/ERC721/ERC721.sol\":10711:10718  address */\n      0x00\n        /* \"node_modules/@openzeppelin/contracts/token/ERC721/ERC721.sol\":10730:10742  address from */\n      dup1\n        /* \"node_modules/@openzeppelin/contracts/token/ERC721/ERC721.sol\":10745:10762  _ownerOf(tokenId) */\n      tag_168\n        /* \"node_modules/@openzeppelin/contracts/token/ERC721/ERC721.sol\":10754:10761  tokenId */\n      dup5\n        /* \"node_modules/@openzeppelin/contracts/token/ERC721/ERC721.sol\":10745:10753  _ownerOf */\n      tag_159\n        /* \"node_modules/@openzeppelin/contracts/token/ERC721/ERC721.sol\":10745:10762  _ownerOf(tokenId) */\n      jump\t// in\n    tag_168:\n        /* \"node_modules/@openzeppelin/contracts/token/ERC721/ERC721.sol\":10730:10762  address from = _ownerOf(tokenId) */\n      swap1\n      pop\n        /* \"node_modules/@openzeppelin/contracts/token/ERC721/ERC721.sol\":10838:10839  0 */\n      0x00\n        /* \"node_modules/@openzeppelin/contracts/token/ERC721/ERC721.sol\":10822:10840  auth != address(0) */\n      0xffffffffffffffffffffffffffffffffffffffff\n      and\n        /* \"node_modules/@openzeppelin/contracts/token/ERC721/ERC721.sol\":10822:10826  auth */\n      dup4\n        /* \"node_modules/@openzeppelin/contracts/token/ERC721/ERC721.sol\":10822:10840  auth != address(0) */\n      0xffffffffffffffffffffffffffffffffffffffff\n      and\n      eq\n        /* \"node_modules/@openzeppelin/contracts/token/ERC721/ERC721.sol\":10818:10904  if (auth != address(0)) {... */\n      tag_169\n      jumpi\n        /* \"node_modules/@openzeppelin/contracts/token/ERC721/ERC721.sol\":10856:10893  _checkAuthorized(from, auth, tokenId) */\n      tag_170\n        /* \"node_modules/@openzeppelin/contracts/token/ERC721/ERC721.sol\":10873:10877  from */\n      dup2\n        /* \"node_modules/@openzeppelin/contracts/token/ERC721/ERC721.sol\":10879:10883  auth */\n      dup5\n        /* \"node_modules/@openzeppelin/contracts/token/ERC721/ERC721.sol\":10885:10892  tokenId */\n      dup7\n        /* \"node_modules/@openzeppelin/contracts/token/ERC721/ERC721.sol\":10856:10872  _checkAuthorized */\n      tag_171\n        /* \"node_modules/@openzeppelin/contracts/token/ERC721/ERC721.sol\":10856:10893  _checkAuthorized(from, auth, tokenId) */\n      jump\t// in\n    tag_170:\n        /* \"node_modules/@openzeppelin/contracts/token/ERC721/ERC721.sol\":10818:10904  if (auth != address(0)) {... */\n    tag_169:\n        /* \"node_modules/@openzeppelin/contracts/token/ERC721/ERC721.sol\":10964:10965  0 */\n      0x00\n        /* \"node_modules/@openzeppelin/contracts/token/ERC721/ERC721.sol\":10948:10966  from != address(0) */\n      0xffffffffffffffffffffffffffffffffffffffff\n      and\n        /* \"node_modules/@openzeppelin/contracts/token/ERC721/ERC721.sol\":10948:10952  from */\n      dup2\n        /* \"node_modules/@openzeppelin/contracts/token/ERC721/ERC721.sol\":10948:10966  from != address(0) */\n      0xffffffffffffffffffffffffffffffffffffffff\n      and\n      eq\n        /* \"node_modules/@openzeppelin/contracts/token/ERC721/ERC721.sol\":10944:11200  if (from != address(0)) {... */\n      tag_172\n      jumpi\n        /* \"node_modules/@openzeppelin/contracts/token/ERC721/ERC721.sol\":11064:11112  _approve(address(0), tokenId, address(0), false) */\n      tag_173\n        /* \"node_modules/@openzeppelin/contracts/token/ERC721/ERC721.sol\":11081:11082  0 */\n      0x00\n        /* \"node_modules/@openzeppelin/contracts/token/ERC721/ERC721.sol\":11085:11092  tokenId */\n      dup6\n        /* \"node_modules/@openzeppelin/contracts/token/ERC721/ERC721.sol\":11102:11103  0 */\n      0x00\n        /* \"node_modules/@openzeppelin/contracts/token/ERC721/ERC721.sol\":11106:11111  false */\n      dup1\n        /* \"node_modules/@openzeppelin/contracts/token/ERC721/ERC721.sol\":11064:11072  _approve */\n      tag_166\n        /* \"node_modules/@openzeppelin/contracts/token/ERC721/ERC721.sol\":11064:11112  _approve(address(0), tokenId, address(0), false) */\n      jump\t// in\n    tag_173:\n        /* \"node_modules/@openzeppelin/contracts/token/ERC721/ERC721.sol\":11174:11175  1 */\n      0x01\n        /* \"node_modules/@openzeppelin/contracts/token/ERC721/ERC721.sol\":11155:11164  _balances */\n      0x03\n        /* \"node_modules/@openzeppelin/contracts/token/ERC721/ERC721.sol\":11155:11170  _balances[from] */\n      0x00\n        /* \"node_modules/@openzeppelin/contracts/token/ERC721/ERC721.sol\":11165:11169  from */\n      dup4\n        /* \"node_modules/@openzeppelin/contracts/token/ERC721/ERC721.sol\":11155:11170  _balances[from] */\n      0xffffffffffffffffffffffffffffffffffffffff\n      and\n      0xffffffffffffffffffffffffffffffffffffffff\n      and\n      dup2\n      mstore\n      0x20\n      add\n      swap1\n      dup2\n      mstore\n      0x20\n      add\n      0x00\n      keccak256\n      0x00\n        /* \"node_modules/@openzeppelin/contracts/token/ERC721/ERC721.sol\":11155:11175  _balances[from] -= 1 */\n      dup3\n      dup3\n      sload\n      sub\n      swap3\n      pop\n      pop\n      dup2\n      swap1\n      sstore\n      pop\n        /* \"node_modules/@openzeppelin/contracts/token/ERC721/ERC721.sol\":10944:11200  if (from != address(0)) {... */\n    tag_172:\n        /* \"node_modules/@openzeppelin/contracts/token/ERC721/ERC721.sol\":11228:11229  0 */\n      0x00\n        /* \"node_modules/@openzeppelin/contracts/token/ERC721/ERC721.sol\":11214:11230  to != address(0) */\n      0xffffffffffffffffffffffffffffffffffffffff\n      and\n        /* \"node_modules/@openzeppelin/contracts/token/ERC721/ERC721.sol\":11214:11216  to */\n      dup6\n        /* \"node_modules/@openzeppelin/contracts/token/ERC721/ERC721.sol\":11214:11230  to != address(0) */\n      0xffffffffffffffffffffffffffffffffffffffff\n      and\n      eq\n        /* \"node_modules/@openzeppelin/contracts/token/ERC721/ERC721.sol\":11210:11317  if (to != address(0)) {... */\n      tag_174\n      jumpi\n        /* \"node_modules/@openzeppelin/contracts/token/ERC721/ERC721.sol\":11291:11292  1 */\n      0x01\n        /* \"node_modules/@openzeppelin/contracts/token/ERC721/ERC721.sol\":11274:11283  _balances */\n      0x03\n        /* \"node_modules/@openzeppelin/contracts/token/ERC721/ERC721.sol\":11274:11287  _balances[to] */\n      0x00\n        /* \"node_modules/@openzeppelin/contracts/token/ERC721/ERC721.sol\":11284:11286  to */\n      dup8\n        /* \"node_modules/@openzeppelin/contracts/token/ERC721/ERC721.sol\":11274:11287  _balances[to] */\n      0xffffffffffffffffffffffffffffffffffffffff\n      and\n      0xffffffffffffffffffffffffffffffffffffffff\n      and\n      dup2\n      mstore\n      0x20\n      add\n      swap1\n      dup2\n      mstore\n      0x20\n      add\n      0x00\n      keccak256\n      0x00\n        /* \"node_modules/@openzeppelin/contracts/token/ERC721/ERC721.sol\":11274:11292  _balances[to] += 1 */\n      dup3\n      dup3\n      sload\n      add\n      swap3\n      pop\n      pop\n      dup2\n      swap1\n      sstore\n      pop\n        /* \"node_modules/@openzeppelin/contracts/token/ERC721/ERC721.sol\":11210:11317  if (to != address(0)) {... */\n    tag_174:\n        /* \"node_modules/@openzeppelin/contracts/token/ERC721/ERC721.sol\":11346:11348  to */\n      dup5\n        /* \"node_modules/@openzeppelin/contracts/token/ERC721/ERC721.sol\":11327:11334  _owners */\n      0x02\n        /* \"node_modules/@openzeppelin/contracts/token/ERC721/ERC721.sol\":11327:11343  _owners[tokenId] */\n      0x00\n        /* \"node_modules/@openzeppelin/contracts/token/ERC721/ERC721.sol\":11335:11342  tokenId */\n      dup7\n        /* \"node_modules/@openzeppelin/contracts/token/ERC721/ERC721.sol\":11327:11343  _owners[tokenId] */\n      dup2\n      mstore\n      0x20\n      add\n      swap1\n      dup2\n      mstore\n      0x20\n      add\n      0x00\n      keccak256\n      0x00\n        /* \"node_modules/@openzeppelin/contracts/token/ERC721/ERC721.sol\":11327:11348  _owners[tokenId] = to */\n      0x0100\n      exp\n      dup2\n      sload\n      dup2\n      0xffffffffffffffffffffffffffffffffffffffff\n      mul\n      not\n      and\n      swap1\n      dup4\n      0xffffffffffffffffffffffffffffffffffffffff\n      and\n      mul\n      or\n      swap1\n      sstore\n      pop\n        /* \"node_modules/@openzeppelin/contracts/token/ERC721/ERC721.sol\":11383:11390  tokenId */\n      dup4\n        /* \"node_modules/@openzeppelin/contracts/token/ERC721/ERC721.sol\":11379:11381  to */\n      dup6\n        /* \"node_modules/@openzeppelin/contracts/token/ERC721/ERC721.sol\":11364:11391  Transfer(from, to, tokenId) */\n      0xffffffffffffffffffffffffffffffffffffffff\n      and\n        /* \"node_modules/@openzeppelin/contracts/token/ERC721/ERC721.sol\":11373:11377  from */\n      dup3\n        /* \"node_modules/@openzeppelin/contracts/token/ERC721/ERC721.sol\":11364:11391  Transfer(from, to, tokenId) */\n      0xffffffffffffffffffffffffffffffffffffffff\n      and\n      0xddf252ad1be2c89b69c2b068fc378daa952ba7f163c4a11628f55a4df523b3ef\n      mload(0x40)\n      mload(0x40)\n      dup1\n      swap2\n      sub\n      swap1\n      log4\n        /* \"node_modules/@openzeppelin/contracts/token/ERC721/ERC721.sol\":11409:11413  from */\n      dup1\n        /* \"node_modules/@openzeppelin/contracts/token/ERC721/ERC721.sol\":11402:11413  return from */\n      swap2\n      pop\n      pop\n        /* \"node_modules/@openzeppelin/contracts/token/ERC721/ERC721.sol\":10625:11420  function _update(address to, uint256 tokenId, address auth) internal virtual returns (address) {... */\n      swap4\n      swap3\n      pop\n      pop\n      pop\n      jump\t// out\n        /* \"node_modules/@openzeppelin/contracts/token/ERC721/ERC721.sol\":17378:17690  function _setApprovalForAll(address owner, address operator, bool approved) internal virtual {... */\n    tag_119:\n        /* \"node_modules/@openzeppelin/contracts/token/ERC721/ERC721.sol\":17505:17506  0 */\n      0x00\n        /* \"node_modules/@openzeppelin/contracts/token/ERC721/ERC721.sol\":17485:17507  operator == address(0) */\n      0xffffffffffffffffffffffffffffffffffffffff\n      and\n        /* \"node_modules/@openzeppelin/contracts/token/ERC721/ERC721.sol\":17485:17493  operator */\n      dup3\n        /* \"node_modules/@openzeppelin/contracts/token/ERC721/ERC721.sol\":17485:17507  operator == address(0) */\n      0xffffffffffffffffffffffffffffffffffffffff\n      and\n      sub\n        /* \"node_modules/@openzeppelin/contracts/token/ERC721/ERC721.sol\":17481:17572  if (operator == address(0)) {... */\n      tag_176\n      jumpi\n        /* \"node_modules/@openzeppelin/contracts/token/ERC721/ERC721.sol\":17552:17560  operator */\n      dup2\n        /* \"node_modules/@openzeppelin/contracts/token/ERC721/ERC721.sol\":17530:17561  ERC721InvalidOperator(operator) */\n      mload(0x40)\n      0x5b08ba1800000000000000000000000000000000000000000000000000000000\n      dup2\n      mstore\n      0x04\n      add\n      tag_177\n      swap2\n      swap1\n      tag_36\n      jump\t// in\n    tag_177:\n      mload(0x40)\n      dup1\n      swap2\n      sub\n      swap1\n      revert\n        /* \"node_modules/@openzeppelin/contracts/token/ERC721/ERC721.sol\":17481:17572  if (operator == address(0)) {... */\n    tag_176:\n        /* \"node_modules/@openzeppelin/contracts/token/ERC721/ERC721.sol\":17619:17627  approved */\n      dup1\n        /* \"node_modules/@openzeppelin/contracts/token/ERC721/ERC721.sol\":17581:17599  _operatorApprovals */\n      0x05\n        /* \"node_modules/@openzeppelin/contracts/token/ERC721/ERC721.sol\":17581:17606  _operatorApprovals[owner] */\n      0x00\n        /* \"node_modules/@openzeppelin/contracts/token/ERC721/ERC721.sol\":17600:17605  owner */\n      dup6\n        /* \"node_modules/@openzeppelin/contracts/token/ERC721/ERC721.sol\":17581:17606  _operatorApprovals[owner] */\n      0xffffffffffffffffffffffffffffffffffffffff\n      and\n      0xffffffffffffffffffffffffffffffffffffffff\n      and\n      dup2\n      mstore\n      0x20\n      add\n      swap1\n      dup2\n      mstore\n      0x20\n      add\n      0x00\n      keccak256\n        /* \"node_modules/@openzeppelin/contracts/token/ERC721/ERC721.sol\":17581:17616  _operatorApprovals[owner][operator] */\n      0x00\n        /* \"node_modules/@openzeppelin/contracts/token/ERC721/ERC721.sol\":17607:17615  operator */\n      dup5\n        /* \"node_modules/@openzeppelin/contracts/token/ERC721/ERC721.sol\":17581:17616  _operatorApprovals[owner][operator] */\n      0xffffffffffffffffffffffffffffffffffffffff\n      and\n      0xffffffffffffffffffffffffffffffffffffffff\n      and\n      dup2\n      mstore\n      0x20\n      add\n      swap1\n      dup2\n      mstore\n      0x20\n      add\n      0x00\n      keccak256\n      0x00\n        /* \"node_modules/@openzeppelin/contracts/token/ERC721/ERC721.sol\":17581:17627  _operatorApprovals[owner][operator] = approved */\n      0x0100\n      exp\n      dup2\n      sload\n      dup2\n      0xff\n      mul\n      not\n      and\n      swap1\n      dup4\n      iszero\n      iszero\n      mul\n      or\n      swap1\n      sstore\n      pop\n        /* \"node_modules/@openzeppelin/contracts/token/ERC721/ERC721.sol\":17664:17672  operator */\n      dup2\n        /* \"node_modules/@openzeppelin/contracts/token/ERC721/ERC721.sol\":17642:17683  ApprovalForAll(owner, operator, approved) */\n      0xffffffffffffffffffffffffffffffffffffffff\n      and\n        /* \"node_modules/@openzeppelin/contracts/token/ERC721/ERC721.sol\":17657:17662  owner */\n      dup4\n        /* \"node_modules/@openzeppelin/contracts/token/ERC721/ERC721.sol\":17642:17683  ApprovalForAll(owner, operator, approved) */\n      0xffffffffffffffffffffffffffffffffffffffff\n      and\n      0x17307eab39ab6107e8899845ad3d59bd9653f200f220920489ca2b5937696c31\n        /* \"node_modules/@openzeppelin/contracts/token/ERC721/ERC721.sol\":17674:17682  approved */\n      dup4\n        /* \"node_modules/@openzeppelin/contracts/token/ERC721/ERC721.sol\":17642:17683  ApprovalForAll(owner, operator, approved) */\n      mload(0x40)\n      tag_178\n      swap2\n      swap1\n      tag_26\n      jump\t// in\n    tag_178:\n      mload(0x40)\n      dup1\n      swap2\n      sub\n      swap1\n      log3\n        /* \"node_modules/@openzeppelin/contracts/token/ERC721/ERC721.sol\":17378:17690  function _setApprovalForAll(address owner, address operator, bool approved) internal virtual {... */\n      pop\n      pop\n      pop\n      jump\t// out\n        /* \"node_modules/@openzeppelin/contracts/token/ERC721/ERC721.sol\":18705:19487  function _checkOnERC721Received(address from, address to, uint256 tokenId, bytes memory data) private {... */\n    tag_139:\n        /* \"node_modules/@openzeppelin/contracts/token/ERC721/ERC721.sol\":18838:18839  0 */\n      0x00\n        /* \"node_modules/@openzeppelin/contracts/token/ERC721/ERC721.sol\":18821:18823  to */\n      dup4\n        /* \"node_modules/@openzeppelin/contracts/token/ERC721/ERC721.sol\":18821:18835  to.code.length */\n      0xffffffffffffffffffffffffffffffffffffffff\n      and\n      extcodesize\n        /* \"node_modules/@openzeppelin/contracts/token/ERC721/ERC721.sol\":18821:18839  to.code.length > 0 */\n      gt\n        /* \"node_modules/@openzeppelin/contracts/token/ERC721/ERC721.sol\":18817:19481  if (to.code.length > 0) {... */\n      iszero\n      tag_180\n      jumpi\n        /* \"node_modules/@openzeppelin/contracts/token/ERC721/ERC721.sol\":18875:18877  to */\n      dup3\n        /* \"node_modules/@openzeppelin/contracts/token/ERC721/ERC721.sol\":18859:18895  IERC721Receiver(to).onERC721Received */\n      0xffffffffffffffffffffffffffffffffffffffff\n      and\n      0x150b7a02\n        /* \"node_modules/@openzeppelin/contracts/token/ERC721/ERC721.sol\":18896:18908  _msgSender() */\n      tag_181\n        /* \"node_modules/@openzeppelin/contracts/token/ERC721/ERC721.sol\":18896:18906  _msgSender */\n      tag_106\n        /* \"node_modules/@openzeppelin/contracts/token/ERC721/ERC721.sol\":18896:18908  _msgSender() */\n      jump\t// in\n    tag_181:\n        /* \"node_modules/@openzeppelin/contracts/token/ERC721/ERC721.sol\":18910:18914  from */\n      dup7\n        /* \"node_modules/@openzeppelin/contracts/token/ERC721/ERC721.sol\":18916:18923  tokenId */\n      dup6\n        /* \"node_modules/@openzeppelin/contracts/token/ERC721/ERC721.sol\":18925:18929  data */\n      dup6\n        /* \"node_modules/@openzeppelin/contracts/token/ERC721/ERC721.sol\":18859:18930  IERC721Receiver(to).onERC721Received(_msgSender(), from, tokenId, data) */\n      mload(0x40)\n      dup6\n      0xffffffff\n      and\n      0xe0\n      shl\n      dup2\n      mstore\n      0x04\n      add\n      tag_182\n      swap5\n      swap4\n      swap3\n      swap2\n      swap1\n      tag_183\n      jump\t// in\n    tag_182:\n      0x20\n      mload(0x40)\n      dup1\n      dup4\n      sub\n      dup2\n      0x00\n      dup8\n      gas\n      call\n      swap3\n      pop\n      pop\n      pop\n      dup1\n      iszero\n      tag_184\n      jumpi\n      pop\n      mload(0x40)\n      returndatasize\n      not(0x1f)\n      0x1f\n      dup3\n      add\n      and\n      dup3\n      add\n      dup1\n      0x40\n      mstore\n      pop\n      dup2\n      add\n      swap1\n      tag_185\n      swap2\n      swap1\n      tag_186\n      jump\t// in\n    tag_185:\n      0x01\n    tag_184:\n        /* \"node_modules/@openzeppelin/contracts/token/ERC721/ERC721.sol\":18855:19471  try IERC721Receiver(to).onERC721Received(_msgSender(), from, tokenId, data) returns (bytes4 retval) {... */\n      tag_187\n      jumpi\n      returndatasize\n      dup1\n      0x00\n      dup2\n      eq\n      tag_192\n      jumpi\n      mload(0x40)\n      swap2\n      pop\n      and(add(returndatasize, 0x3f), not(0x1f))\n      dup3\n      add\n      0x40\n      mstore\n      returndatasize\n      dup3\n      mstore\n      returndatasize\n      0x00\n      0x20\n      dup5\n      add\n      returndatacopy\n      jump(tag_191)\n    tag_192:\n      0x60\n      swap2\n      pop\n    tag_191:\n      pop\n        /* \"node_modules/@openzeppelin/contracts/token/ERC721/ERC721.sol\":19185:19186  0 */\n      0x00\n        /* \"node_modules/@openzeppelin/contracts/token/ERC721/ERC721.sol\":19168:19174  reason */\n      dup2\n        /* \"node_modules/@openzeppelin/contracts/token/ERC721/ERC721.sol\":19168:19181  reason.length */\n      mload\n        /* \"node_modules/@openzeppelin/contracts/token/ERC721/ERC721.sol\":19168:19186  reason.length == 0 */\n      sub\n        /* \"node_modules/@openzeppelin/contracts/token/ERC721/ERC721.sol\":19164:19457  if (reason.length == 0) {... */\n      tag_193\n      jumpi\n        /* \"node_modules/@openzeppelin/contracts/token/ERC721/ERC721.sol\":19239:19241  to */\n      dup4\n        /* \"node_modules/@openzeppelin/contracts/token/ERC721/ERC721.sol\":19217:19242  ERC721InvalidReceiver(to) */\n      mload(0x40)\n      0x64a0ae9200000000000000000000000000000000000000000000000000000000\n      dup2\n      mstore\n      0x04\n      add\n      tag_194\n      swap2\n      swap1\n      tag_36\n      jump\t// in\n    tag_194:\n      mload(0x40)\n      dup1\n      swap2\n      sub\n      swap1\n      revert\n        /* \"node_modules/@openzeppelin/contracts/token/ERC721/ERC721.sol\":19164:19457  if (reason.length == 0) {... */\n    tag_193:\n        /* \"node_modules/@openzeppelin/contracts/token/ERC721/ERC721.sol\":19409:19415  reason */\n      dup1\n        /* \"node_modules/@openzeppelin/contracts/token/ERC721/ERC721.sol\":19403:19416  mload(reason) */\n      mload\n        /* \"node_modules/@openzeppelin/contracts/token/ERC721/ERC721.sol\":19394:19400  reason */\n      dup2\n        /* \"node_modules/@openzeppelin/contracts/token/ERC721/ERC721.sol\":19390:19392  32 */\n      0x20\n        /* \"node_modules/@openzeppelin/contracts/token/ERC721/ERC721.sol\":19386:19401  add(32, reason) */\n      add\n        /* \"node_modules/@openzeppelin/contracts/token/ERC721/ERC721.sol\":19379:19417  revert(add(32, reason), mload(reason)) */\n      revert\n        /* \"node_modules/@openzeppelin/contracts/token/ERC721/ERC721.sol\":18855:19471  try IERC721Receiver(to).onERC721Received(_msgSender(), from, tokenId, data) returns (bytes4 retval) {... */\n    tag_187:\n        /* \"node_modules/@openzeppelin/contracts/token/ERC721/ERC721.sol\":18987:19028  IERC721Receiver.onERC721Received.selector */\n      shl(0xe0, 0x150b7a02)\n        /* \"node_modules/@openzeppelin/contracts/token/ERC721/ERC721.sol\":18977:19028  retval != IERC721Receiver.onERC721Received.selector */\n      not(0xffffffffffffffffffffffffffffffffffffffffffffffffffffffff)\n      and\n        /* \"node_modules/@openzeppelin/contracts/token/ERC721/ERC721.sol\":18977:18983  retval */\n      dup2\n        /* \"node_modules/@openzeppelin/contracts/token/ERC721/ERC721.sol\":18977:19028  retval != IERC721Receiver.onERC721Received.selector */\n      not(0xffffffffffffffffffffffffffffffffffffffffffffffffffffffff)\n      and\n      eq\n        /* \"node_modules/@openzeppelin/contracts/token/ERC721/ERC721.sol\":18973:19103  if (retval != IERC721Receiver.onERC721Received.selector) {... */\n      tag_197\n      jumpi\n        /* \"node_modules/@openzeppelin/contracts/token/ERC721/ERC721.sol\":19081:19083  to */\n      dup4\n        /* \"node_modules/@openzeppelin/contracts/token/ERC721/ERC721.sol\":19059:19084  ERC721InvalidReceiver(to) */\n      mload(0x40)\n      0x64a0ae9200000000000000000000000000000000000000000000000000000000\n      dup2\n      mstore\n      0x04\n      add\n      tag_198\n      swap2\n      swap1\n      tag_36\n      jump\t// in\n    tag_198:\n      mload(0x40)\n      dup1\n      swap2\n      sub\n      swap1\n      revert\n        /* \"node_modules/@openzeppelin/contracts/token/ERC721/ERC721.sol\":18973:19103  if (retval != IERC721Receiver.onERC721Received.selector) {... */\n    tag_197:\n        /* \"node_modules/@openzeppelin/contracts/token/ERC721/ERC721.sol\":18931:19117  returns (bytes4 retval) {... */\n      pop\n        /* \"node_modules/@openzeppelin/contracts/token/ERC721/ERC721.sol\":18817:19481  if (to.code.length > 0) {... */\n    tag_180:\n        /* \"node_modules/@openzeppelin/contracts/token/ERC721/ERC721.sol\":18705:19487  function _checkOnERC721Received(address from, address to, uint256 tokenId, bytes memory data) private {... */\n      pop\n      pop\n      pop\n      pop\n      jump\t// out\n        /* \"node_modules/@openzeppelin/contracts/token/ERC721/ERC721.sol\":11742:12069  function _mint(address to, uint256 tokenId) internal {... */\n    tag_152:\n        /* \"node_modules/@openzeppelin/contracts/token/ERC721/ERC721.sol\":11823:11824  0 */\n      0x00\n        /* \"node_modules/@openzeppelin/contracts/token/ERC721/ERC721.sol\":11809:11825  to == address(0) */\n      0xffffffffffffffffffffffffffffffffffffffff\n      and\n        /* \"node_modules/@openzeppelin/contracts/token/ERC721/ERC721.sol\":11809:11811  to */\n      dup3\n        /* \"node_modules/@openzeppelin/contracts/token/ERC721/ERC721.sol\":11809:11825  to == address(0) */\n      0xffffffffffffffffffffffffffffffffffffffff\n      and\n      sub\n        /* \"node_modules/@openzeppelin/contracts/token/ERC721/ERC721.sol\":11805:11892  if (to == address(0)) {... */\n      tag_200\n      jumpi\n        /* \"node_modules/@openzeppelin/contracts/token/ERC721/ERC721.sol\":11878:11879  0 */\n      0x00\n        /* \"node_modules/@openzeppelin/contracts/token/ERC721/ERC721.sol\":11848:11881  ERC721InvalidReceiver(address(0)) */\n      mload(0x40)\n      0x64a0ae9200000000000000000000000000000000000000000000000000000000\n      dup2\n      mstore\n      0x04\n      add\n      tag_201\n      swap2\n      swap1\n      tag_36\n      jump\t// in\n    tag_201:\n      mload(0x40)\n      dup1\n      swap2\n      sub\n      swap1\n      revert\n        /* \"node_modules/@openzeppelin/contracts/token/ERC721/ERC721.sol\":11805:11892  if (to == address(0)) {... */\n    tag_200:\n        /* \"node_modules/@openzeppelin/contracts/token/ERC721/ERC721.sol\":11901:11922  address previousOwner */\n      0x00\n        /* \"node_modules/@openzeppelin/contracts/token/ERC721/ERC721.sol\":11925:11957  _update(to, tokenId, address(0)) */\n      tag_202\n        /* \"node_modules/@openzeppelin/contracts/token/ERC721/ERC721.sol\":11933:11935  to */\n      dup4\n        /* \"node_modules/@openzeppelin/contracts/token/ERC721/ERC721.sol\":11937:11944  tokenId */\n      dup4\n        /* \"node_modules/@openzeppelin/contracts/token/ERC721/ERC721.sol\":11954:11955  0 */\n      0x00\n        /* \"node_modules/@openzeppelin/contracts/token/ERC721/ERC721.sol\":11925:11932  _update */\n      tag_113\n        /* \"node_modules/@openzeppelin/contracts/token/ERC721/ERC721.sol\":11925:11957  _update(to, tokenId, address(0)) */\n      jump\t// in\n    tag_202:\n        /* \"node_modules/@openzeppelin/contracts/token/ERC721/ERC721.sol\":11901:11957  address previousOwner = _update(to, tokenId, address(0)) */\n      swap1\n      pop\n        /* \"node_modules/@openzeppelin/contracts/token/ERC721/ERC721.sol\":11996:11997  0 */\n      0x00\n        /* \"node_modules/@openzeppelin/contracts/token/ERC721/ERC721.sol\":11971:11998  previousOwner != address(0) */\n      0xffffffffffffffffffffffffffffffffffffffff\n      and\n        /* \"node_modules/@openzeppelin/contracts/token/ERC721/ERC721.sol\":11971:11984  previousOwner */\n      dup2\n        /* \"node_modules/@openzeppelin/contracts/token/ERC721/ERC721.sol\":11971:11998  previousOwner != address(0) */\n      0xffffffffffffffffffffffffffffffffffffffff\n      and\n      eq\n        /* \"node_modules/@openzeppelin/contracts/token/ERC721/ERC721.sol\":11967:12063  if (previousOwner != address(0)) {... */\n      tag_203\n      jumpi\n        /* \"node_modules/@openzeppelin/contracts/token/ERC721/ERC721.sol\":12049:12050  0 */\n      0x00\n        /* \"node_modules/@openzeppelin/contracts/token/ERC721/ERC721.sol\":12021:12052  ERC721InvalidSender(address(0)) */\n      mload(0x40)\n      0x73c6ac6e00000000000000000000000000000000000000000000000000000000\n      dup2\n      mstore\n      0x04\n      add\n      tag_204\n      swap2\n      swap1\n      tag_36\n      jump\t// in\n    tag_204:\n      mload(0x40)\n      dup1\n      swap2\n      sub\n      swap1\n      revert\n        /* \"node_modules/@openzeppelin/contracts/token/ERC721/ERC721.sol\":11967:12063  if (previousOwner != address(0)) {... */\n    tag_203:\n        /* \"node_modules/@openzeppelin/contracts/token/ERC721/ERC721.sol\":11795:12069  {... */\n      pop\n        /* \"node_modules/@openzeppelin/contracts/token/ERC721/ERC721.sol\":11742:12069  function _mint(address to, uint256 tokenId) internal {... */\n      pop\n      pop\n      jump\t// out\n        /* \"myNFT.sol\":450:563  function _setTokenURI(uint256 _tokenId, string memory _uri) internal {... */\n    tag_154:\n        /* \"myNFT.sol\":552:556  _uri */\n      dup1\n        /* \"myNFT.sol\":529:539  _tokenURIs */\n      0x06\n        /* \"myNFT.sol\":529:549  _tokenURIs[_tokenId] */\n      0x00\n        /* \"myNFT.sol\":540:548  _tokenId */\n      dup5\n        /* \"myNFT.sol\":529:549  _tokenURIs[_tokenId] */\n      dup2\n      mstore\n      0x20\n      add\n      swap1\n      dup2\n      mstore\n      0x20\n      add\n      0x00\n      keccak256\n        /* \"myNFT.sol\":529:556  _tokenURIs[_tokenId] = _uri */\n      swap1\n      dup2\n      tag_206\n      swap2\n      swap1\n      tag_207\n      jump\t// in\n    tag_206:\n      pop\n        /* \"myNFT.sol\":450:563  function _setTokenURI(uint256 _tokenId, string memory _uri) internal {... */\n      pop\n      pop\n      jump\t// out\n        /* \"node_modules/@openzeppelin/contracts/token/ERC721/ERC721.sol\":7494:7609  function _ownerOf(uint256 tokenId) internal view virtual returns (address) {... */\n    tag_159:\n        /* \"node_modules/@openzeppelin/contracts/token/ERC721/ERC721.sol\":7560:7567  address */\n      0x00\n        /* \"node_modules/@openzeppelin/contracts/token/ERC721/ERC721.sol\":7586:7593  _owners */\n      0x02\n        /* \"node_modules/@openzeppelin/contracts/token/ERC721/ERC721.sol\":7586:7602  _owners[tokenId] */\n      0x00\n        /* \"node_modules/@openzeppelin/contracts/token/ERC721/ERC721.sol\":7594:7601  tokenId */\n      dup4\n        /* \"node_modules/@openzeppelin/contracts/token/ERC721/ERC721.sol\":7586:7602  _owners[tokenId] */\n      dup2\n      mstore\n      0x20\n      add\n      swap1\n      dup2\n      mstore\n      0x20\n      add\n      0x00\n      keccak256\n      0x00\n      swap1\n      sload\n      swap1\n      0x0100\n      exp\n      swap1\n      div\n      0xffffffffffffffffffffffffffffffffffffffff\n      and\n        /* \"node_modules/@openzeppelin/contracts/token/ERC721/ERC721.sol\":7579:7602  return _owners[tokenId] */\n      swap1\n      pop\n        /* \"node_modules/@openzeppelin/contracts/token/ERC721/ERC721.sol\":7494:7609  function _ownerOf(uint256 tokenId) internal view virtual returns (address) {... */\n      swap2\n      swap1\n      pop\n      jump\t// out\n        /* \"node_modules/@openzeppelin/contracts/token/ERC721/ERC721.sol\":16507:17169  function _approve(address to, uint256 tokenId, address auth, bool emitEvent) internal virtual {... */\n    tag_166:\n        /* \"node_modules/@openzeppelin/contracts/token/ERC721/ERC721.sol\":16667:16676  emitEvent */\n      dup1\n        /* \"node_modules/@openzeppelin/contracts/token/ERC721/ERC721.sol\":16667:16698  emitEvent || auth != address(0) */\n      dup1\n      tag_210\n      jumpi\n      pop\n        /* \"node_modules/@openzeppelin/contracts/token/ERC721/ERC721.sol\":16696:16697  0 */\n      0x00\n        /* \"node_modules/@openzeppelin/contracts/token/ERC721/ERC721.sol\":16680:16698  auth != address(0) */\n      0xffffffffffffffffffffffffffffffffffffffff\n      and\n        /* \"node_modules/@openzeppelin/contracts/token/ERC721/ERC721.sol\":16680:16684  auth */\n      dup3\n        /* \"node_modules/@openzeppelin/contracts/token/ERC721/ERC721.sol\":16680:16698  auth != address(0) */\n      0xffffffffffffffffffffffffffffffffffffffff\n      and\n      eq\n      iszero\n        /* \"node_modules/@openzeppelin/contracts/token/ERC721/ERC721.sol\":16667:16698  emitEvent || auth != address(0) */\n    tag_210:\n        /* \"node_modules/@openzeppelin/contracts/token/ERC721/ERC721.sol\":16663:17123  if (emitEvent || auth != address(0)) {... */\n      iszero\n      tag_211\n      jumpi\n        /* \"node_modules/@openzeppelin/contracts/token/ERC721/ERC721.sol\":16714:16727  address owner */\n      0x00\n        /* \"node_modules/@openzeppelin/contracts/token/ERC721/ERC721.sol\":16730:16752  _requireOwned(tokenId) */\n      tag_212\n        /* \"node_modules/@openzeppelin/contracts/token/ERC721/ERC721.sol\":16744:16751  tokenId */\n      dup5\n        /* \"node_modules/@openzeppelin/contracts/token/ERC721/ERC721.sol\":16730:16743  _requireOwned */\n      tag_100\n        /* \"node_modules/@openzeppelin/contracts/token/ERC721/ERC721.sol\":16730:16752  _requireOwned(tokenId) */\n      jump\t// in\n    tag_212:\n        /* \"node_modules/@openzeppelin/contracts/token/ERC721/ERC721.sol\":16714:16752  address owner = _requireOwned(tokenId) */\n      swap1\n      pop\n        /* \"node_modules/@openzeppelin/contracts/token/ERC721/ERC721.sol\":16896:16897  0 */\n      0x00\n        /* \"node_modules/@openzeppelin/contracts/token/ERC721/ERC721.sol\":16880:16898  auth != address(0) */\n      0xffffffffffffffffffffffffffffffffffffffff\n      and\n        /* \"node_modules/@openzeppelin/contracts/token/ERC721/ERC721.sol\":16880:16884  auth */\n      dup4\n        /* \"node_modules/@openzeppelin/contracts/token/ERC721/ERC721.sol\":16880:16898  auth != address(0) */\n      0xffffffffffffffffffffffffffffffffffffffff\n      and\n      eq\n      iszero\n        /* \"node_modules/@openzeppelin/contracts/token/ERC721/ERC721.sol\":16880:16915  auth != address(0) && owner != auth */\n      dup1\n      iszero\n      tag_213\n      jumpi\n      pop\n        /* \"node_modules/@openzeppelin/contracts/token/ERC721/ERC721.sol\":16911:16915  auth */\n      dup3\n        /* \"node_modules/@openzeppelin/contracts/token/ERC721/ERC721.sol\":16902:16915  owner != auth */\n      0xffffffffffffffffffffffffffffffffffffffff\n      and\n        /* \"node_modules/@openzeppelin/contracts/token/ERC721/ERC721.sol\":16902:16907  owner */\n      dup2\n        /* \"node_modules/@openzeppelin/contracts/token/ERC721/ERC721.sol\":16902:16915  owner != auth */\n      0xffffffffffffffffffffffffffffffffffffffff\n      and\n      eq\n      iszero\n        /* \"node_modules/@openzeppelin/contracts/token/ERC721/ERC721.sol\":16880:16915  auth != address(0) && owner != auth */\n    tag_213:\n        /* \"node_modules/@openzeppelin/contracts/token/ERC721/ERC721.sol\":16880:16949  auth != address(0) && owner != auth && !isApprovedForAll(owner, auth) */\n      dup1\n      iszero\n      tag_214\n      jumpi\n      pop\n        /* \"node_modules/@openzeppelin/contracts/token/ERC721/ERC721.sol\":16920:16949  isApprovedForAll(owner, auth) */\n      tag_215\n        /* \"node_modules/@openzeppelin/contracts/token/ERC721/ERC721.sol\":16937:16942  owner */\n      dup2\n        /* \"node_modules/@openzeppelin/contracts/token/ERC721/ERC721.sol\":16944:16948  auth */\n      dup5\n        /* \"node_modules/@openzeppelin/contracts/token/ERC721/ERC721.sol\":16920:16936  isApprovedForAll */\n      tag_84\n        /* \"node_modules/@openzeppelin/contracts/token/ERC721/ERC721.sol\":16920:16949  isApprovedForAll(owner, auth) */\n      jump\t// in\n    tag_215:\n        /* \"node_modules/@openzeppelin/contracts/token/ERC721/ERC721.sol\":16919:16949  !isApprovedForAll(owner, auth) */\n      iszero\n        /* \"node_modules/@openzeppelin/contracts/token/ERC721/ERC721.sol\":16880:16949  auth != address(0) && owner != auth && !isApprovedForAll(owner, auth) */\n    tag_214:\n        /* \"node_modules/@openzeppelin/contracts/token/ERC721/ERC721.sol\":16876:17018  if (auth != address(0) && owner != auth && !isApprovedForAll(owner, auth)) {... */\n      iszero\n      tag_216\n      jumpi\n        /* \"node_modules/@openzeppelin/contracts/token/ERC721/ERC721.sol\":16998:17002  auth */\n      dup3\n        /* \"node_modules/@openzeppelin/contracts/token/ERC721/ERC721.sol\":16976:17003  ERC721InvalidApprover(auth) */\n      mload(0x40)\n      0xa9fbf51f00000000000000000000000000000000000000000000000000000000\n      dup2\n      mstore\n      0x04\n      add\n      tag_217\n      swap2\n      swap1\n      tag_36\n      jump\t// in\n    tag_217:\n      mload(0x40)\n      dup1\n      swap2\n      sub\n      swap1\n      revert\n        /* \"node_modules/@openzeppelin/contracts/token/ERC721/ERC721.sol\":16876:17018  if (auth != address(0) && owner != auth && !isApprovedForAll(owner, auth)) {... */\n    tag_216:\n        /* \"node_modules/@openzeppelin/contracts/token/ERC721/ERC721.sol\":17036:17045  emitEvent */\n      dup2\n        /* \"node_modules/@openzeppelin/contracts/token/ERC721/ERC721.sol\":17032:17113  if (emitEvent) {... */\n      iszero\n      tag_218\n      jumpi\n        /* \"node_modules/@openzeppelin/contracts/token/ERC721/ERC721.sol\":17090:17097  tokenId */\n      dup4\n        /* \"node_modules/@openzeppelin/contracts/token/ERC721/ERC721.sol\":17086:17088  to */\n      dup6\n        /* \"node_modules/@openzeppelin/contracts/token/ERC721/ERC721.sol\":17070:17098  Approval(owner, to, tokenId) */\n      0xffffffffffffffffffffffffffffffffffffffff\n      and\n        /* \"node_modules/@openzeppelin/contracts/token/ERC721/ERC721.sol\":17079:17084  owner */\n      dup3\n        /* \"node_modules/@openzeppelin/contracts/token/ERC721/ERC721.sol\":17070:17098  Approval(owner, to, tokenId) */\n      0xffffffffffffffffffffffffffffffffffffffff\n      and\n      0x8c5be1e5ebec7d5bd14f71427d1e84f3dd0314c0f7b2291e5b200ac8c7c3b925\n      mload(0x40)\n      mload(0x40)\n      dup1\n      swap2\n      sub\n      swap1\n      log4\n        /* \"node_modules/@openzeppelin/contracts/token/ERC721/ERC721.sol\":17032:17113  if (emitEvent) {... */\n    tag_218:\n        /* \"node_modules/@openzeppelin/contracts/token/ERC721/ERC721.sol\":16700:17123  {... */\n      pop\n        /* \"node_modules/@openzeppelin/contracts/token/ERC721/ERC721.sol\":16663:17123  if (emitEvent || auth != address(0)) {... */\n    tag_211:\n        /* \"node_modules/@openzeppelin/contracts/token/ERC721/ERC721.sol\":17160:17162  to */\n      dup4\n        /* \"node_modules/@openzeppelin/contracts/token/ERC721/ERC721.sol\":17133:17148  _tokenApprovals */\n      0x04\n        /* \"node_modules/@openzeppelin/contracts/token/ERC721/ERC721.sol\":17133:17157  _tokenApprovals[tokenId] */\n      0x00\n        /* \"node_modules/@openzeppelin/contracts/token/ERC721/ERC721.sol\":17149:17156  tokenId */\n      dup6\n        /* \"node_modules/@openzeppelin/contracts/token/ERC721/ERC721.sol\":17133:17157  _tokenApprovals[tokenId] */\n      dup2\n      mstore\n      0x20\n      add\n      swap1\n      dup2\n      mstore\n      0x20\n      add\n      0x00\n      keccak256\n      0x00\n        /* \"node_modules/@openzeppelin/contracts/token/ERC721/ERC721.sol\":17133:17162  _tokenApprovals[tokenId] = to */\n      0x0100\n      exp\n      dup2\n      sload\n      dup2\n      0xffffffffffffffffffffffffffffffffffffffff\n      mul\n      not\n      and\n      swap1\n      dup4\n      0xffffffffffffffffffffffffffffffffffffffff\n      and\n      mul\n      or\n      swap1\n      sstore\n      pop\n        /* \"node_modules/@openzeppelin/contracts/token/ERC721/ERC721.sol\":16507:17169  function _approve(address to, uint256 tokenId, address auth, bool emitEvent) internal virtual {... */\n      pop\n      pop\n      pop\n      pop\n      jump\t// out\n        /* \"node_modules/@openzeppelin/contracts/token/ERC721/ERC721.sol\":8869:9237  function _checkAuthorized(address owner, address spender, uint256 tokenId) internal view virtual {... */\n    tag_171:\n        /* \"node_modules/@openzeppelin/contracts/token/ERC721/ERC721.sol\":8981:9019  _isAuthorized(owner, spender, tokenId) */\n      tag_220\n        /* \"node_modules/@openzeppelin/contracts/token/ERC721/ERC721.sol\":8995:9000  owner */\n      dup4\n        /* \"node_modules/@openzeppelin/contracts/token/ERC721/ERC721.sol\":9002:9009  spender */\n      dup4\n        /* \"node_modules/@openzeppelin/contracts/token/ERC721/ERC721.sol\":9011:9018  tokenId */\n      dup4\n        /* \"node_modules/@openzeppelin/contracts/token/ERC721/ERC721.sol\":8981:8994  _isAuthorized */\n      tag_221\n        /* \"node_modules/@openzeppelin/contracts/token/ERC721/ERC721.sol\":8981:9019  _isAuthorized(owner, spender, tokenId) */\n      jump\t// in\n    tag_220:\n        /* \"node_modules/@openzeppelin/contracts/token/ERC721/ERC721.sol\":8976:9231  if (!_isAuthorized(owner, spender, tokenId)) {... */\n      tag_222\n      jumpi\n        /* \"node_modules/@openzeppelin/contracts/token/ERC721/ERC721.sol\":9056:9057  0 */\n      0x00\n        /* \"node_modules/@openzeppelin/contracts/token/ERC721/ERC721.sol\":9039:9058  owner == address(0) */\n      0xffffffffffffffffffffffffffffffffffffffff\n      and\n        /* \"node_modules/@openzeppelin/contracts/token/ERC721/ERC721.sol\":9039:9044  owner */\n      dup4\n        /* \"node_modules/@openzeppelin/contracts/token/ERC721/ERC721.sol\":9039:9058  owner == address(0) */\n      0xffffffffffffffffffffffffffffffffffffffff\n      and\n      sub\n        /* \"node_modules/@openzeppelin/contracts/token/ERC721/ERC721.sol\":9035:9221  if (owner == address(0)) {... */\n      tag_223\n      jumpi\n        /* \"node_modules/@openzeppelin/contracts/token/ERC721/ERC721.sol\":9108:9115  tokenId */\n      dup1\n        /* \"node_modules/@openzeppelin/contracts/token/ERC721/ERC721.sol\":9085:9116  ERC721NonexistentToken(tokenId) */\n      mload(0x40)\n      0x7e27328900000000000000000000000000000000000000000000000000000000\n      dup2\n      mstore\n      0x04\n      add\n      tag_224\n      swap2\n      swap1\n      tag_61\n      jump\t// in\n    tag_224:\n      mload(0x40)\n      dup1\n      swap2\n      sub\n      swap1\n      revert\n        /* \"node_modules/@openzeppelin/contracts/token/ERC721/ERC721.sol\":9035:9221  if (owner == address(0)) {... */\n    tag_223:\n        /* \"node_modules/@openzeppelin/contracts/token/ERC721/ERC721.sol\":9189:9196  spender */\n      dup2\n        /* \"node_modules/@openzeppelin/contracts/token/ERC721/ERC721.sol\":9198:9205  tokenId */\n      dup2\n        /* \"node_modules/@openzeppelin/contracts/token/ERC721/ERC721.sol\":9162:9206  ERC721InsufficientApproval(spender, tokenId) */\n      mload(0x40)\n      0x177e802f00000000000000000000000000000000000000000000000000000000\n      dup2\n      mstore\n      0x04\n      add\n      tag_226\n      swap3\n      swap2\n      swap1\n      tag_227\n      jump\t// in\n    tag_226:\n      mload(0x40)\n      dup1\n      swap2\n      sub\n      swap1\n      revert\n        /* \"node_modules/@openzeppelin/contracts/token/ERC721/ERC721.sol\":8976:9231  if (!_isAuthorized(owner, spender, tokenId)) {... */\n    tag_222:\n        /* \"node_modules/@openzeppelin/contracts/token/ERC721/ERC721.sol\":8869:9237  function _checkAuthorized(address owner, address spender, uint256 tokenId) internal view virtual {... */\n      pop\n      pop\n      pop\n      jump\t// out\n        /* \"node_modules/@openzeppelin/contracts/token/ERC721/ERC721.sol\":8163:8435  function _isAuthorized(address owner, address spender, uint256 tokenId) internal view virtual returns (bool) {... */\n    tag_221:\n        /* \"node_modules/@openzeppelin/contracts/token/ERC721/ERC721.sol\":8266:8270  bool */\n      0x00\n        /* \"node_modules/@openzeppelin/contracts/token/ERC721/ERC721.sol\":8320:8321  0 */\n      dup1\n        /* \"node_modules/@openzeppelin/contracts/token/ERC721/ERC721.sol\":8301:8322  spender != address(0) */\n      0xffffffffffffffffffffffffffffffffffffffff\n      and\n        /* \"node_modules/@openzeppelin/contracts/token/ERC721/ERC721.sol\":8301:8308  spender */\n      dup4\n        /* \"node_modules/@openzeppelin/contracts/token/ERC721/ERC721.sol\":8301:8322  spender != address(0) */\n      0xffffffffffffffffffffffffffffffffffffffff\n      and\n      eq\n      iszero\n        /* \"node_modules/@openzeppelin/contracts/token/ERC721/ERC721.sol\":8301:8428  spender != address(0) &&... */\n      dup1\n      iszero\n      tag_229\n      jumpi\n      pop\n        /* \"node_modules/@openzeppelin/contracts/token/ERC721/ERC721.sol\":8348:8355  spender */\n      dup3\n        /* \"node_modules/@openzeppelin/contracts/token/ERC721/ERC721.sol\":8339:8355  owner == spender */\n      0xffffffffffffffffffffffffffffffffffffffff\n      and\n        /* \"node_modules/@openzeppelin/contracts/token/ERC721/ERC721.sol\":8339:8344  owner */\n      dup5\n        /* \"node_modules/@openzeppelin/contracts/token/ERC721/ERC721.sol\":8339:8355  owner == spender */\n      0xffffffffffffffffffffffffffffffffffffffff\n      and\n      eq\n        /* \"node_modules/@openzeppelin/contracts/token/ERC721/ERC721.sol\":8339:8391  owner == spender || isApprovedForAll(owner, spender) */\n      dup1\n      tag_230\n      jumpi\n      pop\n        /* \"node_modules/@openzeppelin/contracts/token/ERC721/ERC721.sol\":8359:8391  isApprovedForAll(owner, spender) */\n      tag_231\n        /* \"node_modules/@openzeppelin/contracts/token/ERC721/ERC721.sol\":8376:8381  owner */\n      dup5\n        /* \"node_modules/@openzeppelin/contracts/token/ERC721/ERC721.sol\":8383:8390  spender */\n      dup5\n        /* \"node_modules/@openzeppelin/contracts/token/ERC721/ERC721.sol\":8359:8375  isApprovedForAll */\n      tag_84\n        /* \"node_modules/@openzeppelin/contracts/token/ERC721/ERC721.sol\":8359:8391  isApprovedForAll(owner, spender) */\n      jump\t// in\n    tag_231:\n        /* \"node_modules/@openzeppelin/contracts/token/ERC721/ERC721.sol\":8339:8391  owner == spender || isApprovedForAll(owner, spender) */\n    tag_230:\n        /* \"node_modules/@openzeppelin/contracts/token/ERC721/ERC721.sol\":8339:8427  owner == spender || isApprovedForAll(owner, spender) || _getApproved(tokenId) == spender */\n      dup1\n      tag_232\n      jumpi\n      pop\n        /* \"node_modules/@openzeppelin/contracts/token/ERC721/ERC721.sol\":8420:8427  spender */\n      dup3\n        /* \"node_modules/@openzeppelin/contracts/token/ERC721/ERC721.sol\":8395:8427  _getApproved(tokenId) == spender */\n      0xffffffffffffffffffffffffffffffffffffffff\n      and\n        /* \"node_modules/@openzeppelin/contracts/token/ERC721/ERC721.sol\":8395:8416  _getApproved(tokenId) */\n      tag_233\n        /* \"node_modules/@openzeppelin/contracts/token/ERC721/ERC721.sol\":8408:8415  tokenId */\n      dup4\n        /* \"node_modules/@openzeppelin/contracts/token/ERC721/ERC721.sol\":8395:8407  _getApproved */\n      tag_102\n        /* \"node_modules/@openzeppelin/contracts/token/ERC721/ERC721.sol\":8395:8416  _getApproved(tokenId) */\n      jump\t// in\n    tag_233:\n        /* \"node_modules/@openzeppelin/contracts/token/ERC721/ERC721.sol\":8395:8427  _getApproved(tokenId) == spender */\n      0xffffffffffffffffffffffffffffffffffffffff\n      and\n      eq\n        /* \"node_modules/@openzeppelin/contracts/token/ERC721/ERC721.sol\":8339:8427  owner == spender || isApprovedForAll(owner, spender) || _getApproved(tokenId) == spender */\n    tag_232:\n        /* \"node_modules/@openzeppelin/contracts/token/ERC721/ERC721.sol\":8301:8428  spender != address(0) &&... */\n    tag_229:\n        /* \"node_modules/@openzeppelin/contracts/token/ERC721/ERC721.sol\":8282:8428  return... */\n      swap1\n      pop\n        /* \"node_modules/@openzeppelin/contracts/token/ERC721/ERC721.sol\":8163:8435  function _isAuthorized(address owner, address spender, uint256 tokenId) internal view virtual returns (bool) {... */\n      swap4\n      swap3\n      pop\n      pop\n      pop\n      jump\t// out\n        /* \"#utility.yul\":7:82   */\n    tag_234:\n        /* \"#utility.yul\":40:46   */\n      0x00\n        /* \"#utility.yul\":73:75   */\n      0x40\n        /* \"#utility.yul\":67:76   */\n      mload\n        /* \"#utility.yul\":57:76   */\n      swap1\n      pop\n        /* \"#utility.yul\":7:82   */\n      swap1\n      jump\t// out\n        /* \"#utility.yul\":88:205   */\n    tag_235:\n        /* \"#utility.yul\":197:198   */\n      0x00\n        /* \"#utility.yul\":194:195   */\n      dup1\n        /* \"#utility.yul\":187:199   */\n      revert\n        /* \"#utility.yul\":211:328   */\n    tag_236:\n        /* \"#utility.yul\":320:321   */\n      0x00\n        /* \"#utility.yul\":317:318   */\n      dup1\n        /* \"#utility.yul\":310:322   */\n      revert\n        /* \"#utility.yul\":334:483   */\n    tag_237:\n        /* \"#utility.yul\":370:377   */\n      0x00\n        /* \"#utility.yul\":410:476   */\n      0xffffffff00000000000000000000000000000000000000000000000000000000\n        /* \"#utility.yul\":403:408   */\n      dup3\n        /* \"#utility.yul\":399:477   */\n      and\n        /* \"#utility.yul\":388:477   */\n      swap1\n      pop\n        /* \"#utility.yul\":334:483   */\n      swap2\n      swap1\n      pop\n      jump\t// out\n        /* \"#utility.yul\":489:609   */\n    tag_238:\n        /* \"#utility.yul\":561:584   */\n      tag_298\n        /* \"#utility.yul\":578:583   */\n      dup2\n        /* \"#utility.yul\":561:584   */\n      tag_237\n      jump\t// in\n    tag_298:\n        /* \"#utility.yul\":554:559   */\n      dup2\n        /* \"#utility.yul\":551:585   */\n      eq\n        /* \"#utility.yul\":541:603   */\n      tag_299\n      jumpi\n        /* \"#utility.yul\":599:600   */\n      0x00\n        /* \"#utility.yul\":596:597   */\n      dup1\n        /* \"#utility.yul\":589:601   */\n      revert\n        /* \"#utility.yul\":541:603   */\n    tag_299:\n        /* \"#utility.yul\":489:609   */\n      pop\n      jump\t// out\n        /* \"#utility.yul\":615:752   */\n    tag_239:\n        /* \"#utility.yul\":660:665   */\n      0x00\n        /* \"#utility.yul\":698:704   */\n      dup2\n        /* \"#utility.yul\":685:705   */\n      calldataload\n        /* \"#utility.yul\":676:705   */\n      swap1\n      pop\n        /* \"#utility.yul\":714:746   */\n      tag_301\n        /* \"#utility.yul\":740:745   */\n      dup2\n        /* \"#utility.yul\":714:746   */\n      tag_238\n      jump\t// in\n    tag_301:\n        /* \"#utility.yul\":615:752   */\n      swap3\n      swap2\n      pop\n      pop\n      jump\t// out\n        /* \"#utility.yul\":758:1085   */\n    tag_23:\n        /* \"#utility.yul\":816:822   */\n      0x00\n        /* \"#utility.yul\":865:867   */\n      0x20\n        /* \"#utility.yul\":853:862   */\n      dup3\n        /* \"#utility.yul\":844:851   */\n      dup5\n        /* \"#utility.yul\":840:863   */\n      sub\n        /* \"#utility.yul\":836:868   */\n      slt\n        /* \"#utility.yul\":833:952   */\n      iszero\n      tag_303\n      jumpi\n        /* \"#utility.yul\":871:950   */\n      tag_304\n      tag_235\n      jump\t// in\n    tag_304:\n        /* \"#utility.yul\":833:952   */\n    tag_303:\n        /* \"#utility.yul\":991:992   */\n      0x00\n        /* \"#utility.yul\":1016:1068   */\n      tag_305\n        /* \"#utility.yul\":1060:1067   */\n      dup5\n        /* \"#utility.yul\":1051:1057   */\n      dup3\n        /* \"#utility.yul\":1040:1049   */\n      dup6\n        /* \"#utility.yul\":1036:1058   */\n      add\n        /* \"#utility.yul\":1016:1068   */\n      tag_239\n      jump\t// in\n    tag_305:\n        /* \"#utility.yul\":1006:1068   */\n      swap2\n      pop\n        /* \"#utility.yul\":962:1078   */\n      pop\n        /* \"#utility.yul\":758:1085   */\n      swap3\n      swap2\n      pop\n      pop\n      jump\t// out\n        /* \"#utility.yul\":1091:1181   */\n    tag_240:\n        /* \"#utility.yul\":1125:1132   */\n      0x00\n        /* \"#utility.yul\":1168:1173   */\n      dup2\n        /* \"#utility.yul\":1161:1174   */\n      iszero\n        /* \"#utility.yul\":1154:1175   */\n      iszero\n        /* \"#utility.yul\":1143:1175   */\n      swap1\n      pop\n        /* \"#utility.yul\":1091:1181   */\n      swap2\n      swap1\n      pop\n      jump\t// out\n        /* \"#utility.yul\":1187:1296   */\n    tag_241:\n        /* \"#utility.yul\":1268:1289   */\n      tag_308\n        /* \"#utility.yul\":1283:1288   */\n      dup2\n        /* \"#utility.yul\":1268:1289   */\n      tag_240\n      jump\t// in\n    tag_308:\n        /* \"#utility.yul\":1263:1266   */\n      dup3\n        /* \"#utility.yul\":1256:1290   */\n      mstore\n        /* \"#utility.yul\":1187:1296   */\n      pop\n      pop\n      jump\t// out\n        /* \"#utility.yul\":1302:1512   */\n    tag_26:\n        /* \"#utility.yul\":1389:1393   */\n      0x00\n        /* \"#utility.yul\":1427:1429   */\n      0x20\n        /* \"#utility.yul\":1416:1425   */\n      dup3\n        /* \"#utility.yul\":1412:1430   */\n      add\n        /* \"#utility.yul\":1404:1430   */\n      swap1\n      pop\n        /* \"#utility.yul\":1440:1505   */\n      tag_310\n        /* \"#utility.yul\":1502:1503   */\n      0x00\n        /* \"#utility.yul\":1491:1500   */\n      dup4\n        /* \"#utility.yul\":1487:1504   */\n      add\n        /* \"#utility.yul\":1478:1484   */\n      dup5\n        /* \"#utility.yul\":1440:1505   */\n      tag_241\n      jump\t// in\n    tag_310:\n        /* \"#utility.yul\":1302:1512   */\n      swap3\n      swap2\n      pop\n      pop\n      jump\t// out\n        /* \"#utility.yul\":1518:1617   */\n    tag_242:\n        /* \"#utility.yul\":1570:1576   */\n      0x00\n        /* \"#utility.yul\":1604:1609   */\n      dup2\n        /* \"#utility.yul\":1598:1610   */\n      mload\n        /* \"#utility.yul\":1588:1610   */\n      swap1\n      pop\n        /* \"#utility.yul\":1518:1617   */\n      swap2\n      swap1\n      pop\n      jump\t// out\n        /* \"#utility.yul\":1623:1792   */\n    tag_243:\n        /* \"#utility.yul\":1707:1718   */\n      0x00\n        /* \"#utility.yul\":1741:1747   */\n      dup3\n        /* \"#utility.yul\":1736:1739   */\n      dup3\n        /* \"#utility.yul\":1729:1748   */\n      mstore\n        /* \"#utility.yul\":1781:1785   */\n      0x20\n        /* \"#utility.yul\":1776:1779   */\n      dup3\n        /* \"#utility.yul\":1772:1786   */\n      add\n        /* \"#utility.yul\":1757:1786   */\n      swap1\n      pop\n        /* \"#utility.yul\":1623:1792   */\n      swap3\n      swap2\n      pop\n      pop\n      jump\t// out\n        /* \"#utility.yul\":1798:2044   */\n    tag_244:\n        /* \"#utility.yul\":1879:1880   */\n      0x00\n        /* \"#utility.yul\":1889:2002   */\n    tag_314:\n        /* \"#utility.yul\":1903:1909   */\n      dup4\n        /* \"#utility.yul\":1900:1901   */\n      dup2\n        /* \"#utility.yul\":1897:1910   */\n      lt\n        /* \"#utility.yul\":1889:2002   */\n      iszero\n      tag_316\n      jumpi\n        /* \"#utility.yul\":1988:1989   */\n      dup1\n        /* \"#utility.yul\":1983:1986   */\n      dup3\n        /* \"#utility.yul\":1979:1990   */\n      add\n        /* \"#utility.yul\":1973:1991   */\n      mload\n        /* \"#utility.yul\":1969:1970   */\n      dup2\n        /* \"#utility.yul\":1964:1967   */\n      dup5\n        /* \"#utility.yul\":1960:1971   */\n      add\n        /* \"#utility.yul\":1953:1992   */\n      mstore\n        /* \"#utility.yul\":1925:1927   */\n      0x20\n        /* \"#utility.yul\":1922:1923   */\n      dup2\n        /* \"#utility.yul\":1918:1928   */\n      add\n        /* \"#utility.yul\":1913:1928   */\n      swap1\n      pop\n        /* \"#utility.yul\":1889:2002   */\n      jump(tag_314)\n    tag_316:\n        /* \"#utility.yul\":2036:2037   */\n      0x00\n        /* \"#utility.yul\":2027:2033   */\n      dup5\n        /* \"#utility.yul\":2022:2025   */\n      dup5\n        /* \"#utility.yul\":2018:2034   */\n      add\n        /* \"#utility.yul\":2011:2038   */\n      mstore\n        /* \"#utility.yul\":1860:2044   */\n      pop\n        /* \"#utility.yul\":1798:2044   */\n      pop\n      pop\n      pop\n      jump\t// out\n        /* \"#utility.yul\":2050:2152   */\n    tag_245:\n        /* \"#utility.yul\":2091:2097   */\n      0x00\n        /* \"#utility.yul\":2142:2144   */\n      0x1f\n        /* \"#utility.yul\":2138:2145   */\n      not\n        /* \"#utility.yul\":2133:2135   */\n      0x1f\n        /* \"#utility.yul\":2126:2131   */\n      dup4\n        /* \"#utility.yul\":2122:2136   */\n      add\n        /* \"#utility.yul\":2118:2146   */\n      and\n        /* \"#utility.yul\":2108:2146   */\n      swap1\n      pop\n        /* \"#utility.yul\":2050:2152   */\n      swap2\n      swap1\n      pop\n      jump\t// out\n        /* \"#utility.yul\":2158:2535   */\n    tag_246:\n        /* \"#utility.yul\":2246:2249   */\n      0x00\n        /* \"#utility.yul\":2274:2313   */\n      tag_319\n        /* \"#utility.yul\":2307:2312   */\n      dup3\n        /* \"#utility.yul\":2274:2313   */\n      tag_242\n      jump\t// in\n    tag_319:\n        /* \"#utility.yul\":2329:2400   */\n      tag_320\n        /* \"#utility.yul\":2393:2399   */\n      dup2\n        /* \"#utility.yul\":2388:2391   */\n      dup6\n        /* \"#utility.yul\":2329:2400   */\n      tag_243\n      jump\t// in\n    tag_320:\n        /* \"#utility.yul\":2322:2400   */\n      swap4\n      pop\n        /* \"#utility.yul\":2409:2474   */\n      tag_321\n        /* \"#utility.yul\":2467:2473   */\n      dup2\n        /* \"#utility.yul\":2462:2465   */\n      dup6\n        /* \"#utility.yul\":2455:2459   */\n      0x20\n        /* \"#utility.yul\":2448:2453   */\n      dup7\n        /* \"#utility.yul\":2444:2460   */\n      add\n        /* \"#utility.yul\":2409:2474   */\n      tag_244\n      jump\t// in\n    tag_321:\n        /* \"#utility.yul\":2499:2528   */\n      tag_322\n        /* \"#utility.yul\":2521:2527   */\n      dup2\n        /* \"#utility.yul\":2499:2528   */\n      tag_245\n      jump\t// in\n    tag_322:\n        /* \"#utility.yul\":2494:2497   */\n      dup5\n        /* \"#utility.yul\":2490:2529   */\n      add\n        /* \"#utility.yul\":2483:2529   */\n      swap2\n      pop\n        /* \"#utility.yul\":2250:2535   */\n      pop\n        /* \"#utility.yul\":2158:2535   */\n      swap3\n      swap2\n      pop\n      pop\n      jump\t// out\n        /* \"#utility.yul\":2541:2854   */\n    tag_30:\n        /* \"#utility.yul\":2654:2658   */\n      0x00\n        /* \"#utility.yul\":2692:2694   */\n      0x20\n        /* \"#utility.yul\":2681:2690   */\n      dup3\n        /* \"#utility.yul\":2677:2695   */\n      add\n        /* \"#utility.yul\":2669:2695   */\n      swap1\n      pop\n        /* \"#utility.yul\":2741:2750   */\n      dup2\n        /* \"#utility.yul\":2735:2739   */\n      dup2\n        /* \"#utility.yul\":2731:2751   */\n      sub\n        /* \"#utility.yul\":2727:2728   */\n      0x00\n        /* \"#utility.yul\":2716:2725   */\n      dup4\n        /* \"#utility.yul\":2712:2729   */\n      add\n        /* \"#utility.yul\":2705:2752   */\n      mstore\n        /* \"#utility.yul\":2769:2847   */\n      tag_324\n        /* \"#utility.yul\":2842:2846   */\n      dup2\n        /* \"#utility.yul\":2833:2839   */\n      dup5\n        /* \"#utility.yul\":2769:2847   */\n      tag_246\n      jump\t// in\n    tag_324:\n        /* \"#utility.yul\":2761:2847   */\n      swap1\n      pop\n        /* \"#utility.yul\":2541:2854   */\n      swap3\n      swap2\n      pop\n      pop\n      jump\t// out\n        /* \"#utility.yul\":2860:2937   */\n    tag_247:\n        /* \"#utility.yul\":2897:2904   */\n      0x00\n        /* \"#utility.yul\":2926:2931   */\n      dup2\n        /* \"#utility.yul\":2915:2931   */\n      swap1\n      pop\n        /* \"#utility.yul\":2860:2937   */\n      swap2\n      swap1\n      pop\n      jump\t// out\n        /* \"#utility.yul\":2943:3065   */\n    tag_248:\n        /* \"#utility.yul\":3016:3040   */\n      tag_327\n        /* \"#utility.yul\":3034:3039   */\n      dup2\n        /* \"#utility.yul\":3016:3040   */\n      tag_247\n      jump\t// in\n    tag_327:\n        /* \"#utility.yul\":3009:3014   */\n      dup2\n        /* \"#utility.yul\":3006:3041   */\n      eq\n        /* \"#utility.yul\":2996:3059   */\n      tag_328\n      jumpi\n        /* \"#utility.yul\":3055:3056   */\n      0x00\n        /* \"#utility.yul\":3052:3053   */\n      dup1\n        /* \"#utility.yul\":3045:3057   */\n      revert\n        /* \"#utility.yul\":2996:3059   */\n    tag_328:\n        /* \"#utility.yul\":2943:3065   */\n      pop\n      jump\t// out\n        /* \"#utility.yul\":3071:3210   */\n    tag_249:\n        /* \"#utility.yul\":3117:3122   */\n      0x00\n        /* \"#utility.yul\":3155:3161   */\n      dup2\n        /* \"#utility.yul\":3142:3162   */\n      calldataload\n        /* \"#utility.yul\":3133:3162   */\n      swap1\n      pop\n        /* \"#utility.yul\":3171:3204   */\n      tag_330\n        /* \"#utility.yul\":3198:3203   */\n      dup2\n        /* \"#utility.yul\":3171:3204   */\n      tag_248\n      jump\t// in\n    tag_330:\n        /* \"#utility.yul\":3071:3210   */\n      swap3\n      swap2\n      pop\n      pop\n      jump\t// out\n        /* \"#utility.yul\":3216:3545   */\n    tag_33:\n        /* \"#utility.yul\":3275:3281   */\n      0x00\n        /* \"#utility.yul\":3324:3326   */\n      0x20\n        /* \"#utility.yul\":3312:3321   */\n      dup3\n        /* \"#utility.yul\":3303:3310   */\n      dup5\n        /* \"#utility.yul\":3299:3322   */\n      sub\n        /* \"#utility.yul\":3295:3327   */\n      slt\n        /* \"#utility.yul\":3292:3411   */\n      iszero\n      tag_332\n      jumpi\n        /* \"#utility.yul\":3330:3409   */\n      tag_333\n      tag_235\n      jump\t// in\n    tag_333:\n        /* \"#utility.yul\":3292:3411   */\n    tag_332:\n        /* \"#utility.yul\":3450:3451   */\n      0x00\n        /* \"#utility.yul\":3475:3528   */\n      tag_334\n        /* \"#utility.yul\":3520:3527   */\n      dup5\n        /* \"#utility.yul\":3511:3517   */\n      dup3\n        /* \"#utility.yul\":3500:3509   */\n      dup6\n        /* \"#utility.yul\":3496:3518   */\n      add\n        /* \"#utility.yul\":3475:3528   */\n      tag_249\n      jump\t// in\n    tag_334:\n        /* \"#utility.yul\":3465:3528   */\n      swap2\n      pop\n        /* \"#utility.yul\":3421:3538   */\n      pop\n        /* \"#utility.yul\":3216:3545   */\n      swap3\n      swap2\n      pop\n      pop\n      jump\t// out\n        /* \"#utility.yul\":3551:3677   */\n    tag_250:\n        /* \"#utility.yul\":3588:3595   */\n      0x00\n        /* \"#utility.yul\":3628:3670   */\n      0xffffffffffffffffffffffffffffffffffffffff\n        /* \"#utility.yul\":3621:3626   */\n      dup3\n        /* \"#utility.yul\":3617:3671   */\n      and\n        /* \"#utility.yul\":3606:3671   */\n      swap1\n      pop\n        /* \"#utility.yul\":3551:3677   */\n      swap2\n      swap1\n      pop\n      jump\t// out\n        /* \"#utility.yul\":3683:3779   */\n    tag_251:\n        /* \"#utility.yul\":3720:3727   */\n      0x00\n        /* \"#utility.yul\":3749:3773   */\n      tag_337\n        /* \"#utility.yul\":3767:3772   */\n      dup3\n        /* \"#utility.yul\":3749:3773   */\n      tag_250\n      jump\t// in\n    tag_337:\n        /* \"#utility.yul\":3738:3773   */\n      swap1\n      pop\n        /* \"#utility.yul\":3683:3779   */\n      swap2\n      swap1\n      pop\n      jump\t// out\n        /* \"#utility.yul\":3785:3903   */\n    tag_252:\n        /* \"#utility.yul\":3872:3896   */\n      tag_339\n        /* \"#utility.yul\":3890:3895   */\n      dup2\n        /* \"#utility.yul\":3872:3896   */\n      tag_251\n      jump\t// in\n    tag_339:\n        /* \"#utility.yul\":3867:3870   */\n      dup3\n        /* \"#utility.yul\":3860:3897   */\n      mstore\n        /* \"#utility.yul\":3785:3903   */\n      pop\n      pop\n      jump\t// out\n        /* \"#utility.yul\":3909:4131   */\n    tag_36:\n        /* \"#utility.yul\":4002:4006   */\n      0x00\n        /* \"#utility.yul\":4040:4042   */\n      0x20\n        /* \"#utility.yul\":4029:4038   */\n      dup3\n        /* \"#utility.yul\":4025:4043   */\n      add\n        /* \"#utility.yul\":4017:4043   */\n      swap1\n      pop\n        /* \"#utility.yul\":4053:4124   */\n      tag_341\n        /* \"#utility.yul\":4121:4122   */\n      0x00\n        /* \"#utility.yul\":4110:4119   */\n      dup4\n        /* \"#utility.yul\":4106:4123   */\n      add\n        /* \"#utility.yul\":4097:4103   */\n      dup5\n        /* \"#utility.yul\":4053:4124   */\n      tag_252\n      jump\t// in\n    tag_341:\n        /* \"#utility.yul\":3909:4131   */\n      swap3\n      swap2\n      pop\n      pop\n      jump\t// out\n        /* \"#utility.yul\":4137:4259   */\n    tag_253:\n        /* \"#utility.yul\":4210:4234   */\n      tag_343\n        /* \"#utility.yul\":4228:4233   */\n      dup2\n        /* \"#utility.yul\":4210:4234   */\n      tag_251\n      jump\t// in\n    tag_343:\n        /* \"#utility.yul\":4203:4208   */\n      dup2\n        /* \"#utility.yul\":4200:4235   */\n      eq\n        /* \"#utility.yul\":4190:4253   */\n      tag_344\n      jumpi\n        /* \"#utility.yul\":4249:4250   */\n      0x00\n        /* \"#utility.yul\":4246:4247   */\n      dup1\n        /* \"#utility.yul\":4239:4251   */\n      revert\n        /* \"#utility.yul\":4190:4253   */\n    tag_344:\n        /* \"#utility.yul\":4137:4259   */\n      pop\n      jump\t// out\n        /* \"#utility.yul\":4265:4404   */\n    tag_254:\n        /* \"#utility.yul\":4311:4316   */\n      0x00\n        /* \"#utility.yul\":4349:4355   */\n      dup2\n        /* \"#utility.yul\":4336:4356   */\n      calldataload\n        /* \"#utility.yul\":4327:4356   */\n      swap1\n      pop\n        /* \"#utility.yul\":4365:4398   */\n      tag_346\n        /* \"#utility.yul\":4392:4397   */\n      dup2\n        /* \"#utility.yul\":4365:4398   */\n      tag_253\n      jump\t// in\n    tag_346:\n        /* \"#utility.yul\":4265:4404   */\n      swap3\n      swap2\n      pop\n      pop\n      jump\t// out\n        /* \"#utility.yul\":4410:4884   */\n    tag_39:\n        /* \"#utility.yul\":4478:4484   */\n      0x00\n        /* \"#utility.yul\":4486:4492   */\n      dup1\n        /* \"#utility.yul\":4535:4537   */\n      0x40\n        /* \"#utility.yul\":4523:4532   */\n      dup4\n        /* \"#utility.yul\":4514:4521   */\n      dup6\n        /* \"#utility.yul\":4510:4533   */\n      sub\n        /* \"#utility.yul\":4506:4538   */\n      slt\n        /* \"#utility.yul\":4503:4622   */\n      iszero\n      tag_348\n      jumpi\n        /* \"#utility.yul\":4541:4620   */\n      tag_349\n      tag_235\n      jump\t// in\n    tag_349:\n        /* \"#utility.yul\":4503:4622   */\n    tag_348:\n        /* \"#utility.yul\":4661:4662   */\n      0x00\n        /* \"#utility.yul\":4686:4739   */\n      tag_350\n        /* \"#utility.yul\":4731:4738   */\n      dup6\n        /* \"#utility.yul\":4722:4728   */\n      dup3\n        /* \"#utility.yul\":4711:4720   */\n      dup7\n        /* \"#utility.yul\":4707:4729   */\n      add\n        /* \"#utility.yul\":4686:4739   */\n      tag_254\n      jump\t// in\n    tag_350:\n        /* \"#utility.yul\":4676:4739   */\n      swap3\n      pop\n        /* \"#utility.yul\":4632:4749   */\n      pop\n        /* \"#utility.yul\":4788:4790   */\n      0x20\n        /* \"#utility.yul\":4814:4867   */\n      tag_351\n        /* \"#utility.yul\":4859:4866   */\n      dup6\n        /* \"#utility.yul\":4850:4856   */\n      dup3\n        /* \"#utility.yul\":4839:4848   */\n      dup7\n        /* \"#utility.yul\":4835:4857   */\n      add\n        /* \"#utility.yul\":4814:4867   */\n      tag_249\n      jump\t// in\n    tag_351:\n        /* \"#utility.yul\":4804:4867   */\n      swap2\n      pop\n        /* \"#utility.yul\":4759:4877   */\n      pop\n        /* \"#utility.yul\":4410:4884   */\n      swap3\n      pop\n      swap3\n      swap1\n      pop\n      jump\t// out\n        /* \"#utility.yul\":4890:5509   */\n    tag_43:\n        /* \"#utility.yul\":4967:4973   */\n      0x00\n        /* \"#utility.yul\":4975:4981   */\n      dup1\n        /* \"#utility.yul\":4983:4989   */\n      0x00\n        /* \"#utility.yul\":5032:5034   */\n      0x60\n        /* \"#utility.yul\":5020:5029   */\n      dup5\n        /* \"#utility.yul\":5011:5018   */\n      dup7\n        /* \"#utility.yul\":5007:5030   */\n      sub\n        /* \"#utility.yul\":5003:5035   */\n      slt\n        /* \"#utility.yul\":5000:5119   */\n      iszero\n      tag_353\n      jumpi\n        /* \"#utility.yul\":5038:5117   */\n      tag_354\n      tag_235\n      jump\t// in\n    tag_354:\n        /* \"#utility.yul\":5000:5119   */\n    tag_353:\n        /* \"#utility.yul\":5158:5159   */\n      0x00\n        /* \"#utility.yul\":5183:5236   */\n      tag_355\n        /* \"#utility.yul\":5228:5235   */\n      dup7\n        /* \"#utility.yul\":5219:5225   */\n      dup3\n        /* \"#utility.yul\":5208:5217   */\n      dup8\n        /* \"#utility.yul\":5204:5226   */\n      add\n        /* \"#utility.yul\":5183:5236   */\n      tag_254\n      jump\t// in\n    tag_355:\n        /* \"#utility.yul\":5173:5236   */\n      swap4\n      pop\n        /* \"#utility.yul\":5129:5246   */\n      pop\n        /* \"#utility.yul\":5285:5287   */\n      0x20\n        /* \"#utility.yul\":5311:5364   */\n      tag_356\n        /* \"#utility.yul\":5356:5363   */\n      dup7\n        /* \"#utility.yul\":5347:5353   */\n      dup3\n        /* \"#utility.yul\":5336:5345   */\n      dup8\n        /* \"#utility.yul\":5332:5354   */\n      add\n        /* \"#utility.yul\":5311:5364   */\n      tag_254\n      jump\t// in\n    tag_356:\n        /* \"#utility.yul\":5301:5364   */\n      swap3\n      pop\n        /* \"#utility.yul\":5256:5374   */\n      pop\n        /* \"#utility.yul\":5413:5415   */\n      0x40\n        /* \"#utility.yul\":5439:5492   */\n      tag_357\n        /* \"#utility.yul\":5484:5491   */\n      dup7\n        /* \"#utility.yul\":5475:5481   */\n      dup3\n        /* \"#utility.yul\":5464:5473   */\n      dup8\n        /* \"#utility.yul\":5460:5482   */\n      add\n        /* \"#utility.yul\":5439:5492   */\n      tag_249\n      jump\t// in\n    tag_357:\n        /* \"#utility.yul\":5429:5492   */\n      swap2\n      pop\n        /* \"#utility.yul\":5384:5502   */\n      pop\n        /* \"#utility.yul\":4890:5509   */\n      swap3\n      pop\n      swap3\n      pop\n      swap3\n      jump\t// out\n        /* \"#utility.yul\":5515:5631   */\n    tag_255:\n        /* \"#utility.yul\":5585:5606   */\n      tag_359\n        /* \"#utility.yul\":5600:5605   */\n      dup2\n        /* \"#utility.yul\":5585:5606   */\n      tag_240\n      jump\t// in\n    tag_359:\n        /* \"#utility.yul\":5578:5583   */\n      dup2\n        /* \"#utility.yul\":5575:5607   */\n      eq\n        /* \"#utility.yul\":5565:5625   */\n      tag_360\n      jumpi\n        /* \"#utility.yul\":5621:5622   */\n      0x00\n        /* \"#utility.yul\":5618:5619   */\n      dup1\n        /* \"#utility.yul\":5611:5623   */\n      revert\n        /* \"#utility.yul\":5565:5625   */\n    tag_360:\n        /* \"#utility.yul\":5515:5631   */\n      pop\n      jump\t// out\n        /* \"#utility.yul\":5637:5770   */\n    tag_256:\n        /* \"#utility.yul\":5680:5685   */\n      0x00\n        /* \"#utility.yul\":5718:5724   */\n      dup2\n        /* \"#utility.yul\":5705:5725   */\n      calldataload\n        /* \"#utility.yul\":5696:5725   */\n      swap1\n      pop\n        /* \"#utility.yul\":5734:5764   */\n      tag_362\n        /* \"#utility.yul\":5758:5763   */\n      dup2\n        /* \"#utility.yul\":5734:5764   */\n      tag_255\n      jump\t// in\n    tag_362:\n        /* \"#utility.yul\":5637:5770   */\n      swap3\n      swap2\n      pop\n      pop\n      jump\t// out\n        /* \"#utility.yul\":5776:6389   */\n    tag_47:\n        /* \"#utility.yul\":5850:5856   */\n      0x00\n        /* \"#utility.yul\":5858:5864   */\n      dup1\n        /* \"#utility.yul\":5866:5872   */\n      0x00\n        /* \"#utility.yul\":5915:5917   */\n      0x60\n        /* \"#utility.yul\":5903:5912   */\n      dup5\n        /* \"#utility.yul\":5894:5901   */\n      dup7\n        /* \"#utility.yul\":5890:5913   */\n      sub\n        /* \"#utility.yul\":5886:5918   */\n      slt\n        /* \"#utility.yul\":5883:6002   */\n      iszero\n      tag_364\n      jumpi\n        /* \"#utility.yul\":5921:6000   */\n      tag_365\n      tag_235\n      jump\t// in\n    tag_365:\n        /* \"#utility.yul\":5883:6002   */\n    tag_364:\n        /* \"#utility.yul\":6041:6042   */\n      0x00\n        /* \"#utility.yul\":6066:6119   */\n      tag_366\n        /* \"#utility.yul\":6111:6118   */\n      dup7\n        /* \"#utility.yul\":6102:6108   */\n      dup3\n        /* \"#utility.yul\":6091:6100   */\n      dup8\n        /* \"#utility.yul\":6087:6109   */\n      add\n        /* \"#utility.yul\":6066:6119   */\n      tag_254\n      jump\t// in\n    tag_366:\n        /* \"#utility.yul\":6056:6119   */\n      swap4\n      pop\n        /* \"#utility.yul\":6012:6129   */\n      pop\n        /* \"#utility.yul\":6168:6170   */\n      0x20\n        /* \"#utility.yul\":6194:6247   */\n      tag_367\n        /* \"#utility.yul\":6239:6246   */\n      dup7\n        /* \"#utility.yul\":6230:6236   */\n      dup3\n        /* \"#utility.yul\":6219:6228   */\n      dup8\n        /* \"#utility.yul\":6215:6237   */\n      add\n        /* \"#utility.yul\":6194:6247   */\n      tag_254\n      jump\t// in\n    tag_367:\n        /* \"#utility.yul\":6184:6247   */\n      swap3\n      pop\n        /* \"#utility.yul\":6139:6257   */\n      pop\n        /* \"#utility.yul\":6296:6298   */\n      0x40\n        /* \"#utility.yul\":6322:6372   */\n      tag_368\n        /* \"#utility.yul\":6364:6371   */\n      dup7\n        /* \"#utility.yul\":6355:6361   */\n      dup3\n        /* \"#utility.yul\":6344:6353   */\n      dup8\n        /* \"#utility.yul\":6340:6362   */\n      add\n        /* \"#utility.yul\":6322:6372   */\n      tag_256\n      jump\t// in\n    tag_368:\n        /* \"#utility.yul\":6312:6372   */\n      swap2\n      pop\n        /* \"#utility.yul\":6267:6382   */\n      pop\n        /* \"#utility.yul\":5776:6389   */\n      swap3\n      pop\n      swap3\n      pop\n      swap3\n      jump\t// out\n        /* \"#utility.yul\":6395:6724   */\n    tag_58:\n        /* \"#utility.yul\":6454:6460   */\n      0x00\n        /* \"#utility.yul\":6503:6505   */\n      0x20\n        /* \"#utility.yul\":6491:6500   */\n      dup3\n        /* \"#utility.yul\":6482:6489   */\n      dup5\n        /* \"#utility.yul\":6478:6501   */\n      sub\n        /* \"#utility.yul\":6474:6506   */\n      slt\n        /* \"#utility.yul\":6471:6590   */\n      iszero\n      tag_370\n      jumpi\n        /* \"#utility.yul\":6509:6588   */\n      tag_371\n      tag_235\n      jump\t// in\n    tag_371:\n        /* \"#utility.yul\":6471:6590   */\n    tag_370:\n        /* \"#utility.yul\":6629:6630   */\n      0x00\n        /* \"#utility.yul\":6654:6707   */\n      tag_372\n        /* \"#utility.yul\":6699:6706   */\n      dup5\n        /* \"#utility.yul\":6690:6696   */\n      dup3\n        /* \"#utility.yul\":6679:6688   */\n      dup6\n        /* \"#utility.yul\":6675:6697   */\n      add\n        /* \"#utility.yul\":6654:6707   */\n      tag_254\n      jump\t// in\n    tag_372:\n        /* \"#utility.yul\":6644:6707   */\n      swap2\n      pop\n        /* \"#utility.yul\":6600:6717   */\n      pop\n        /* \"#utility.yul\":6395:6724   */\n      swap3\n      swap2\n      pop\n      pop\n      jump\t// out\n        /* \"#utility.yul\":6730:6848   */\n    tag_257:\n        /* \"#utility.yul\":6817:6841   */\n      tag_374\n        /* \"#utility.yul\":6835:6840   */\n      dup2\n        /* \"#utility.yul\":6817:6841   */\n      tag_247\n      jump\t// in\n    tag_374:\n        /* \"#utility.yul\":6812:6815   */\n      dup3\n        /* \"#utility.yul\":6805:6842   */\n      mstore\n        /* \"#utility.yul\":6730:6848   */\n      pop\n      pop\n      jump\t// out\n        /* \"#utility.yul\":6854:7076   */\n    tag_61:\n        /* \"#utility.yul\":6947:6951   */\n      0x00\n        /* \"#utility.yul\":6985:6987   */\n      0x20\n        /* \"#utility.yul\":6974:6983   */\n      dup3\n        /* \"#utility.yul\":6970:6988   */\n      add\n        /* \"#utility.yul\":6962:6988   */\n      swap1\n      pop\n        /* \"#utility.yul\":6998:7069   */\n      tag_376\n        /* \"#utility.yul\":7066:7067   */\n      0x00\n        /* \"#utility.yul\":7055:7064   */\n      dup4\n        /* \"#utility.yul\":7051:7068   */\n      add\n        /* \"#utility.yul\":7042:7048   */\n      dup5\n        /* \"#utility.yul\":6998:7069   */\n      tag_257\n      jump\t// in\n    tag_376:\n        /* \"#utility.yul\":6854:7076   */\n      swap3\n      swap2\n      pop\n      pop\n      jump\t// out\n        /* \"#utility.yul\":7082:7550   */\n    tag_67:\n        /* \"#utility.yul\":7147:7153   */\n      0x00\n        /* \"#utility.yul\":7155:7161   */\n      dup1\n        /* \"#utility.yul\":7204:7206   */\n      0x40\n        /* \"#utility.yul\":7192:7201   */\n      dup4\n        /* \"#utility.yul\":7183:7190   */\n      dup6\n        /* \"#utility.yul\":7179:7202   */\n      sub\n        /* \"#utility.yul\":7175:7207   */\n      slt\n        /* \"#utility.yul\":7172:7291   */\n      iszero\n      tag_378\n      jumpi\n        /* \"#utility.yul\":7210:7289   */\n      tag_379\n      tag_235\n      jump\t// in\n    tag_379:\n        /* \"#utility.yul\":7172:7291   */\n    tag_378:\n        /* \"#utility.yul\":7330:7331   */\n      0x00\n        /* \"#utility.yul\":7355:7408   */\n      tag_380\n        /* \"#utility.yul\":7400:7407   */\n      dup6\n        /* \"#utility.yul\":7391:7397   */\n      dup3\n        /* \"#utility.yul\":7380:7389   */\n      dup7\n        /* \"#utility.yul\":7376:7398   */\n      add\n        /* \"#utility.yul\":7355:7408   */\n      tag_254\n      jump\t// in\n    tag_380:\n        /* \"#utility.yul\":7345:7408   */\n      swap3\n      pop\n        /* \"#utility.yul\":7301:7418   */\n      pop\n        /* \"#utility.yul\":7457:7459   */\n      0x20\n        /* \"#utility.yul\":7483:7533   */\n      tag_381\n        /* \"#utility.yul\":7525:7532   */\n      dup6\n        /* \"#utility.yul\":7516:7522   */\n      dup3\n        /* \"#utility.yul\":7505:7514   */\n      dup7\n        /* \"#utility.yul\":7501:7523   */\n      add\n        /* \"#utility.yul\":7483:7533   */\n      tag_256\n      jump\t// in\n    tag_381:\n        /* \"#utility.yul\":7473:7533   */\n      swap2\n      pop\n        /* \"#utility.yul\":7428:7543   */\n      pop\n        /* \"#utility.yul\":7082:7550   */\n      swap3\n      pop\n      swap3\n      swap1\n      pop\n      jump\t// out\n        /* \"#utility.yul\":7556:7673   */\n    tag_258:\n        /* \"#utility.yul\":7665:7666   */\n      0x00\n        /* \"#utility.yul\":7662:7663   */\n      dup1\n        /* \"#utility.yul\":7655:7667   */\n      revert\n        /* \"#utility.yul\":7679:7796   */\n    tag_259:\n        /* \"#utility.yul\":7788:7789   */\n      0x00\n        /* \"#utility.yul\":7785:7786   */\n      dup1\n        /* \"#utility.yul\":7778:7790   */\n      revert\n        /* \"#utility.yul\":7802:7982   */\n    tag_260:\n        /* \"#utility.yul\":7850:7927   */\n      0x4e487b7100000000000000000000000000000000000000000000000000000000\n        /* \"#utility.yul\":7847:7848   */\n      0x00\n        /* \"#utility.yul\":7840:7928   */\n      mstore\n        /* \"#utility.yul\":7947:7951   */\n      0x41\n        /* \"#utility.yul\":7944:7945   */\n      0x04\n        /* \"#utility.yul\":7937:7952   */\n      mstore\n        /* \"#utility.yul\":7971:7975   */\n      0x24\n        /* \"#utility.yul\":7968:7969   */\n      0x00\n        /* \"#utility.yul\":7961:7976   */\n      revert\n        /* \"#utility.yul\":7988:8269   */\n    tag_261:\n        /* \"#utility.yul\":8071:8098   */\n      tag_386\n        /* \"#utility.yul\":8093:8097   */\n      dup3\n        /* \"#utility.yul\":8071:8098   */\n      tag_245\n      jump\t// in\n    tag_386:\n        /* \"#utility.yul\":8063:8069   */\n      dup2\n        /* \"#utility.yul\":8059:8099   */\n      add\n        /* \"#utility.yul\":8201:8207   */\n      dup2\n        /* \"#utility.yul\":8189:8199   */\n      dup2\n        /* \"#utility.yul\":8186:8208   */\n      lt\n        /* \"#utility.yul\":8165:8183   */\n      0xffffffffffffffff\n        /* \"#utility.yul\":8153:8163   */\n      dup3\n        /* \"#utility.yul\":8150:8184   */\n      gt\n        /* \"#utility.yul\":8147:8209   */\n      or\n        /* \"#utility.yul\":8144:8232   */\n      iszero\n      tag_387\n      jumpi\n        /* \"#utility.yul\":8212:8230   */\n      tag_388\n      tag_260\n      jump\t// in\n    tag_388:\n        /* \"#utility.yul\":8144:8232   */\n    tag_387:\n        /* \"#utility.yul\":8252:8262   */\n      dup1\n        /* \"#utility.yul\":8248:8250   */\n      0x40\n        /* \"#utility.yul\":8241:8263   */\n      mstore\n        /* \"#utility.yul\":8031:8269   */\n      pop\n        /* \"#utility.yul\":7988:8269   */\n      pop\n      pop\n      jump\t// out\n        /* \"#utility.yul\":8275:8404   */\n    tag_262:\n        /* \"#utility.yul\":8309:8315   */\n      0x00\n        /* \"#utility.yul\":8336:8356   */\n      tag_390\n      tag_234\n      jump\t// in\n    tag_390:\n        /* \"#utility.yul\":8326:8356   */\n      swap1\n      pop\n        /* \"#utility.yul\":8365:8398   */\n      tag_391\n        /* \"#utility.yul\":8393:8397   */\n      dup3\n        /* \"#utility.yul\":8385:8391   */\n      dup3\n        /* \"#utility.yul\":8365:8398   */\n      tag_261\n      jump\t// in\n    tag_391:\n        /* \"#utility.yul\":8275:8404   */\n      swap2\n      swap1\n      pop\n      jump\t// out\n        /* \"#utility.yul\":8410:8717   */\n    tag_263:\n        /* \"#utility.yul\":8471:8475   */\n      0x00\n        /* \"#utility.yul\":8561:8579   */\n      0xffffffffffffffff\n        /* \"#utility.yul\":8553:8559   */\n      dup3\n        /* \"#utility.yul\":8550:8580   */\n      gt\n        /* \"#utility.yul\":8547:8603   */\n      iszero\n      tag_393\n      jumpi\n        /* \"#utility.yul\":8583:8601   */\n      tag_394\n      tag_260\n      jump\t// in\n    tag_394:\n        /* \"#utility.yul\":8547:8603   */\n    tag_393:\n        /* \"#utility.yul\":8621:8650   */\n      tag_395\n        /* \"#utility.yul\":8643:8649   */\n      dup3\n        /* \"#utility.yul\":8621:8650   */\n      tag_245\n      jump\t// in\n    tag_395:\n        /* \"#utility.yul\":8613:8650   */\n      swap1\n      pop\n        /* \"#utility.yul\":8705:8709   */\n      0x20\n        /* \"#utility.yul\":8699:8703   */\n      dup2\n        /* \"#utility.yul\":8695:8710   */\n      add\n        /* \"#utility.yul\":8687:8710   */\n      swap1\n      pop\n        /* \"#utility.yul\":8410:8717   */\n      swap2\n      swap1\n      pop\n      jump\t// out\n        /* \"#utility.yul\":8723:8869   */\n    tag_264:\n        /* \"#utility.yul\":8820:8826   */\n      dup3\n        /* \"#utility.yul\":8815:8818   */\n      dup2\n        /* \"#utility.yul\":8810:8813   */\n      dup4\n        /* \"#utility.yul\":8797:8827   */\n      calldatacopy\n        /* \"#utility.yul\":8861:8862   */\n      0x00\n        /* \"#utility.yul\":8852:8858   */\n      dup4\n        /* \"#utility.yul\":8847:8850   */\n      dup4\n        /* \"#utility.yul\":8843:8859   */\n      add\n        /* \"#utility.yul\":8836:8863   */\n      mstore\n        /* \"#utility.yul\":8723:8869   */\n      pop\n      pop\n      pop\n      jump\t// out\n        /* \"#utility.yul\":8875:9298   */\n    tag_265:\n        /* \"#utility.yul\":8952:8957   */\n      0x00\n        /* \"#utility.yul\":8977:9042   */\n      tag_398\n        /* \"#utility.yul\":8993:9041   */\n      tag_399\n        /* \"#utility.yul\":9034:9040   */\n      dup5\n        /* \"#utility.yul\":8993:9041   */\n      tag_263\n      jump\t// in\n    tag_399:\n        /* \"#utility.yul\":8977:9042   */\n      tag_262\n      jump\t// in\n    tag_398:\n        /* \"#utility.yul\":8968:9042   */\n      swap1\n      pop\n        /* \"#utility.yul\":9065:9071   */\n      dup3\n        /* \"#utility.yul\":9058:9063   */\n      dup2\n        /* \"#utility.yul\":9051:9072   */\n      mstore\n        /* \"#utility.yul\":9103:9107   */\n      0x20\n        /* \"#utility.yul\":9096:9101   */\n      dup2\n        /* \"#utility.yul\":9092:9108   */\n      add\n        /* \"#utility.yul\":9141:9144   */\n      dup5\n        /* \"#utility.yul\":9132:9138   */\n      dup5\n        /* \"#utility.yul\":9127:9130   */\n      dup5\n        /* \"#utility.yul\":9123:9139   */\n      add\n        /* \"#utility.yul\":9120:9145   */\n      gt\n        /* \"#utility.yul\":9117:9229   */\n      iszero\n      tag_400\n      jumpi\n        /* \"#utility.yul\":9148:9227   */\n      tag_401\n      tag_259\n      jump\t// in\n    tag_401:\n        /* \"#utility.yul\":9117:9229   */\n    tag_400:\n        /* \"#utility.yul\":9238:9292   */\n      tag_402\n        /* \"#utility.yul\":9285:9291   */\n      dup5\n        /* \"#utility.yul\":9280:9283   */\n      dup3\n        /* \"#utility.yul\":9275:9278   */\n      dup6\n        /* \"#utility.yul\":9238:9292   */\n      tag_264\n      jump\t// in\n    tag_402:\n        /* \"#utility.yul\":8958:9298   */\n      pop\n        /* \"#utility.yul\":8875:9298   */\n      swap4\n      swap3\n      pop\n      pop\n      pop\n      jump\t// out\n        /* \"#utility.yul\":9317:9655   */\n    tag_266:\n        /* \"#utility.yul\":9372:9377   */\n      0x00\n        /* \"#utility.yul\":9421:9424   */\n      dup3\n        /* \"#utility.yul\":9414:9418   */\n      0x1f\n        /* \"#utility.yul\":9406:9412   */\n      dup4\n        /* \"#utility.yul\":9402:9419   */\n      add\n        /* \"#utility.yul\":9398:9425   */\n      slt\n        /* \"#utility.yul\":9388:9510   */\n      tag_404\n      jumpi\n        /* \"#utility.yul\":9429:9508   */\n      tag_405\n      tag_258\n      jump\t// in\n    tag_405:\n        /* \"#utility.yul\":9388:9510   */\n    tag_404:\n        /* \"#utility.yul\":9546:9552   */\n      dup2\n        /* \"#utility.yul\":9533:9553   */\n      calldataload\n        /* \"#utility.yul\":9571:9649   */\n      tag_406\n        /* \"#utility.yul\":9645:9648   */\n      dup5\n        /* \"#utility.yul\":9637:9643   */\n      dup3\n        /* \"#utility.yul\":9630:9634   */\n      0x20\n        /* \"#utility.yul\":9622:9628   */\n      dup7\n        /* \"#utility.yul\":9618:9635   */\n      add\n        /* \"#utility.yul\":9571:9649   */\n      tag_265\n      jump\t// in\n    tag_406:\n        /* \"#utility.yul\":9562:9649   */\n      swap2\n      pop\n        /* \"#utility.yul\":9378:9655   */\n      pop\n        /* \"#utility.yul\":9317:9655   */\n      swap3\n      swap2\n      pop\n      pop\n      jump\t// out\n        /* \"#utility.yul\":9661:10604   */\n    tag_71:\n        /* \"#utility.yul\":9756:9762   */\n      0x00\n        /* \"#utility.yul\":9764:9770   */\n      dup1\n        /* \"#utility.yul\":9772:9778   */\n      0x00\n        /* \"#utility.yul\":9780:9786   */\n      dup1\n        /* \"#utility.yul\":9829:9832   */\n      0x80\n        /* \"#utility.yul\":9817:9826   */\n      dup6\n        /* \"#utility.yul\":9808:9815   */\n      dup8\n        /* \"#utility.yul\":9804:9827   */\n      sub\n        /* \"#utility.yul\":9800:9833   */\n      slt\n        /* \"#utility.yul\":9797:9917   */\n      iszero\n      tag_408\n      jumpi\n        /* \"#utility.yul\":9836:9915   */\n      tag_409\n      tag_235\n      jump\t// in\n    tag_409:\n        /* \"#utility.yul\":9797:9917   */\n    tag_408:\n        /* \"#utility.yul\":9956:9957   */\n      0x00\n        /* \"#utility.yul\":9981:10034   */\n      tag_410\n        /* \"#utility.yul\":10026:10033   */\n      dup8\n        /* \"#utility.yul\":10017:10023   */\n      dup3\n        /* \"#utility.yul\":10006:10015   */\n      dup9\n        /* \"#utility.yul\":10002:10024   */\n      add\n        /* \"#utility.yul\":9981:10034   */\n      tag_254\n      jump\t// in\n    tag_410:\n        /* \"#utility.yul\":9971:10034   */\n      swap5\n      pop\n        /* \"#utility.yul\":9927:10044   */\n      pop\n        /* \"#utility.yul\":10083:10085   */\n      0x20\n        /* \"#utility.yul\":10109:10162   */\n      tag_411\n        /* \"#utility.yul\":10154:10161   */\n      dup8\n        /* \"#utility.yul\":10145:10151   */\n      dup3\n        /* \"#utility.yul\":10134:10143   */\n      dup9\n        /* \"#utility.yul\":10130:10152   */\n      add\n        /* \"#utility.yul\":10109:10162   */\n      tag_254\n      jump\t// in\n    tag_411:\n        /* \"#utility.yul\":10099:10162   */\n      swap4\n      pop\n        /* \"#utility.yul\":10054:10172   */\n      pop\n        /* \"#utility.yul\":10211:10213   */\n      0x40\n        /* \"#utility.yul\":10237:10290   */\n      tag_412\n        /* \"#utility.yul\":10282:10289   */\n      dup8\n        /* \"#utility.yul\":10273:10279   */\n      dup3\n        /* \"#utility.yul\":10262:10271   */\n      dup9\n        /* \"#utility.yul\":10258:10280   */\n      add\n        /* \"#utility.yul\":10237:10290   */\n      tag_249\n      jump\t// in\n    tag_412:\n        /* \"#utility.yul\":10227:10290   */\n      swap3\n      pop\n        /* \"#utility.yul\":10182:10300   */\n      pop\n        /* \"#utility.yul\":10367:10369   */\n      0x60\n        /* \"#utility.yul\":10356:10365   */\n      dup6\n        /* \"#utility.yul\":10352:10370   */\n      add\n        /* \"#utility.yul\":10339:10371   */\n      calldataload\n        /* \"#utility.yul\":10398:10416   */\n      0xffffffffffffffff\n        /* \"#utility.yul\":10390:10396   */\n      dup2\n        /* \"#utility.yul\":10387:10417   */\n      gt\n        /* \"#utility.yul\":10384:10501   */\n      iszero\n      tag_413\n      jumpi\n        /* \"#utility.yul\":10420:10499   */\n      tag_414\n      tag_236\n      jump\t// in\n    tag_414:\n        /* \"#utility.yul\":10384:10501   */\n    tag_413:\n        /* \"#utility.yul\":10525:10587   */\n      tag_415\n        /* \"#utility.yul\":10579:10586   */\n      dup8\n        /* \"#utility.yul\":10570:10576   */\n      dup3\n        /* \"#utility.yul\":10559:10568   */\n      dup9\n        /* \"#utility.yul\":10555:10577   */\n      add\n        /* \"#utility.yul\":10525:10587   */\n      tag_266\n      jump\t// in\n    tag_415:\n        /* \"#utility.yul\":10515:10587   */\n      swap2\n      pop\n        /* \"#utility.yul\":10310:10597   */\n      pop\n        /* \"#utility.yul\":9661:10604   */\n      swap3\n      swap6\n      swap2\n      swap5\n      pop\n      swap3\n      pop\n      jump\t// out\n        /* \"#utility.yul\":10610:10918   */\n    tag_267:\n        /* \"#utility.yul\":10672:10676   */\n      0x00\n        /* \"#utility.yul\":10762:10780   */\n      0xffffffffffffffff\n        /* \"#utility.yul\":10754:10760   */\n      dup3\n        /* \"#utility.yul\":10751:10781   */\n      gt\n        /* \"#utility.yul\":10748:10804   */\n      iszero\n      tag_417\n      jumpi\n        /* \"#utility.yul\":10784:10802   */\n      tag_418\n      tag_260\n      jump\t// in\n    tag_418:\n        /* \"#utility.yul\":10748:10804   */\n    tag_417:\n        /* \"#utility.yul\":10822:10851   */\n      tag_419\n        /* \"#utility.yul\":10844:10850   */\n      dup3\n        /* \"#utility.yul\":10822:10851   */\n      tag_245\n      jump\t// in\n    tag_419:\n        /* \"#utility.yul\":10814:10851   */\n      swap1\n      pop\n        /* \"#utility.yul\":10906:10910   */\n      0x20\n        /* \"#utility.yul\":10900:10904   */\n      dup2\n        /* \"#utility.yul\":10896:10911   */\n      add\n        /* \"#utility.yul\":10888:10911   */\n      swap1\n      pop\n        /* \"#utility.yul\":10610:10918   */\n      swap2\n      swap1\n      pop\n      jump\t// out\n        /* \"#utility.yul\":10924:11349   */\n    tag_268:\n        /* \"#utility.yul\":11002:11007   */\n      0x00\n        /* \"#utility.yul\":11027:11093   */\n      tag_421\n        /* \"#utility.yul\":11043:11092   */\n      tag_422\n        /* \"#utility.yul\":11085:11091   */\n      dup5\n        /* \"#utility.yul\":11043:11092   */\n      tag_267\n      jump\t// in\n    tag_422:\n        /* \"#utility.yul\":11027:11093   */\n      tag_262\n      jump\t// in\n    tag_421:\n        /* \"#utility.yul\":11018:11093   */\n      swap1\n      pop\n        /* \"#utility.yul\":11116:11122   */\n      dup3\n        /* \"#utility.yul\":11109:11114   */\n      dup2\n        /* \"#utility.yul\":11102:11123   */\n      mstore\n        /* \"#utility.yul\":11154:11158   */\n      0x20\n        /* \"#utility.yul\":11147:11152   */\n      dup2\n        /* \"#utility.yul\":11143:11159   */\n      add\n        /* \"#utility.yul\":11192:11195   */\n      dup5\n        /* \"#utility.yul\":11183:11189   */\n      dup5\n        /* \"#utility.yul\":11178:11181   */\n      dup5\n        /* \"#utility.yul\":11174:11190   */\n      add\n        /* \"#utility.yul\":11171:11196   */\n      gt\n        /* \"#utility.yul\":11168:11280   */\n      iszero\n      tag_423\n      jumpi\n        /* \"#utility.yul\":11199:11278   */\n      tag_424\n      tag_259\n      jump\t// in\n    tag_424:\n        /* \"#utility.yul\":11168:11280   */\n    tag_423:\n        /* \"#utility.yul\":11289:11343   */\n      tag_425\n        /* \"#utility.yul\":11336:11342   */\n      dup5\n        /* \"#utility.yul\":11331:11334   */\n      dup3\n        /* \"#utility.yul\":11326:11329   */\n      dup6\n        /* \"#utility.yul\":11289:11343   */\n      tag_264\n      jump\t// in\n    tag_425:\n        /* \"#utility.yul\":11008:11349   */\n      pop\n        /* \"#utility.yul\":10924:11349   */\n      swap4\n      swap3\n      pop\n      pop\n      pop\n      jump\t// out\n        /* \"#utility.yul\":11369:11709   */\n    tag_269:\n        /* \"#utility.yul\":11425:11430   */\n      0x00\n        /* \"#utility.yul\":11474:11477   */\n      dup3\n        /* \"#utility.yul\":11467:11471   */\n      0x1f\n        /* \"#utility.yul\":11459:11465   */\n      dup4\n        /* \"#utility.yul\":11455:11472   */\n      add\n        /* \"#utility.yul\":11451:11478   */\n      slt\n        /* \"#utility.yul\":11441:11563   */\n      tag_427\n      jumpi\n        /* \"#utility.yul\":11482:11561   */\n      tag_428\n      tag_258\n      jump\t// in\n    tag_428:\n        /* \"#utility.yul\":11441:11563   */\n    tag_427:\n        /* \"#utility.yul\":11599:11605   */\n      dup2\n        /* \"#utility.yul\":11586:11606   */\n      calldataload\n        /* \"#utility.yul\":11624:11703   */\n      tag_429\n        /* \"#utility.yul\":11699:11702   */\n      dup5\n        /* \"#utility.yul\":11691:11697   */\n      dup3\n        /* \"#utility.yul\":11684:11688   */\n      0x20\n        /* \"#utility.yul\":11676:11682   */\n      dup7\n        /* \"#utility.yul\":11672:11689   */\n      add\n        /* \"#utility.yul\":11624:11703   */\n      tag_268\n      jump\t// in\n    tag_429:\n        /* \"#utility.yul\":11615:11703   */\n      swap2\n      pop\n        /* \"#utility.yul\":11431:11709   */\n      pop\n        /* \"#utility.yul\":11369:11709   */\n      swap3\n      swap2\n      pop\n      pop\n      jump\t// out\n        /* \"#utility.yul\":11715:12369   */\n    tag_79:\n        /* \"#utility.yul\":11793:11799   */\n      0x00\n        /* \"#utility.yul\":11801:11807   */\n      dup1\n        /* \"#utility.yul\":11850:11852   */\n      0x40\n        /* \"#utility.yul\":11838:11847   */\n      dup4\n        /* \"#utility.yul\":11829:11836   */\n      dup6\n        /* \"#utility.yul\":11825:11848   */\n      sub\n        /* \"#utility.yul\":11821:11853   */\n      slt\n        /* \"#utility.yul\":11818:11937   */\n      iszero\n      tag_431\n      jumpi\n        /* \"#utility.yul\":11856:11935   */\n      tag_432\n      tag_235\n      jump\t// in\n    tag_432:\n        /* \"#utility.yul\":11818:11937   */\n    tag_431:\n        /* \"#utility.yul\":11976:11977   */\n      0x00\n        /* \"#utility.yul\":12001:12054   */\n      tag_433\n        /* \"#utility.yul\":12046:12053   */\n      dup6\n        /* \"#utility.yul\":12037:12043   */\n      dup3\n        /* \"#utility.yul\":12026:12035   */\n      dup7\n        /* \"#utility.yul\":12022:12044   */\n      add\n        /* \"#utility.yul\":12001:12054   */\n      tag_249\n      jump\t// in\n    tag_433:\n        /* \"#utility.yul\":11991:12054   */\n      swap3\n      pop\n        /* \"#utility.yul\":11947:12064   */\n      pop\n        /* \"#utility.yul\":12131:12133   */\n      0x20\n        /* \"#utility.yul\":12120:12129   */\n      dup4\n        /* \"#utility.yul\":12116:12134   */\n      add\n        /* \"#utility.yul\":12103:12135   */\n      calldataload\n        /* \"#utility.yul\":12162:12180   */\n      0xffffffffffffffff\n        /* \"#utility.yul\":12154:12160   */\n      dup2\n        /* \"#utility.yul\":12151:12181   */\n      gt\n        /* \"#utility.yul\":12148:12265   */\n      iszero\n      tag_434\n      jumpi\n        /* \"#utility.yul\":12184:12263   */\n      tag_435\n      tag_236\n      jump\t// in\n    tag_435:\n        /* \"#utility.yul\":12148:12265   */\n    tag_434:\n        /* \"#utility.yul\":12289:12352   */\n      tag_436\n        /* \"#utility.yul\":12344:12351   */\n      dup6\n        /* \"#utility.yul\":12335:12341   */\n      dup3\n        /* \"#utility.yul\":12324:12333   */\n      dup7\n        /* \"#utility.yul\":12320:12342   */\n      add\n        /* \"#utility.yul\":12289:12352   */\n      tag_269\n      jump\t// in\n    tag_436:\n        /* \"#utility.yul\":12279:12352   */\n      swap2\n      pop\n        /* \"#utility.yul\":12074:12362   */\n      pop\n        /* \"#utility.yul\":11715:12369   */\n      swap3\n      pop\n      swap3\n      swap1\n      pop\n      jump\t// out\n        /* \"#utility.yul\":12375:12849   */\n    tag_83:\n        /* \"#utility.yul\":12443:12449   */\n      0x00\n        /* \"#utility.yul\":12451:12457   */\n      dup1\n        /* \"#utility.yul\":12500:12502   */\n      0x40\n        /* \"#utility.yul\":12488:12497   */\n      dup4\n        /* \"#utility.yul\":12479:12486   */\n      dup6\n        /* \"#utility.yul\":12475:12498   */\n      sub\n        /* \"#utility.yul\":12471:12503   */\n      slt\n        /* \"#utility.yul\":12468:12587   */\n      iszero\n      tag_438\n      jumpi\n        /* \"#utility.yul\":12506:12585   */\n      tag_439\n      tag_235\n      jump\t// in\n    tag_439:\n        /* \"#utility.yul\":12468:12587   */\n    tag_438:\n        /* \"#utility.yul\":12626:12627   */\n      0x00\n        /* \"#utility.yul\":12651:12704   */\n      tag_440\n        /* \"#utility.yul\":12696:12703   */\n      dup6\n        /* \"#utility.yul\":12687:12693   */\n      dup3\n        /* \"#utility.yul\":12676:12685   */\n      dup7\n        /* \"#utility.yul\":12672:12694   */\n      add\n        /* \"#utility.yul\":12651:12704   */\n      tag_254\n      jump\t// in\n    tag_440:\n        /* \"#utility.yul\":12641:12704   */\n      swap3\n      pop\n        /* \"#utility.yul\":12597:12714   */\n      pop\n        /* \"#utility.yul\":12753:12755   */\n      0x20\n        /* \"#utility.yul\":12779:12832   */\n      tag_441\n        /* \"#utility.yul\":12824:12831   */\n      dup6\n        /* \"#utility.yul\":12815:12821   */\n      dup3\n        /* \"#utility.yul\":12804:12813   */\n      dup7\n        /* \"#utility.yul\":12800:12822   */\n      add\n        /* \"#utility.yul\":12779:12832   */\n      tag_254\n      jump\t// in\n    tag_441:\n        /* \"#utility.yul\":12769:12832   */\n      swap2\n      pop\n        /* \"#utility.yul\":12724:12842   */\n      pop\n        /* \"#utility.yul\":12375:12849   */\n      swap3\n      pop\n      swap3\n      swap1\n      pop\n      jump\t// out\n        /* \"#utility.yul\":12855:13035   */\n    tag_270:\n        /* \"#utility.yul\":12903:12980   */\n      0x4e487b7100000000000000000000000000000000000000000000000000000000\n        /* \"#utility.yul\":12900:12901   */\n      0x00\n        /* \"#utility.yul\":12893:12981   */\n      mstore\n        /* \"#utility.yul\":13000:13004   */\n      0x22\n        /* \"#utility.yul\":12997:12998   */\n      0x04\n        /* \"#utility.yul\":12990:13005   */\n      mstore\n        /* \"#utility.yul\":13024:13028   */\n      0x24\n        /* \"#utility.yul\":13021:13022   */\n      0x00\n        /* \"#utility.yul\":13014:13029   */\n      revert\n        /* \"#utility.yul\":13041:13361   */\n    tag_93:\n        /* \"#utility.yul\":13085:13091   */\n      0x00\n        /* \"#utility.yul\":13122:13123   */\n      0x02\n        /* \"#utility.yul\":13116:13120   */\n      dup3\n        /* \"#utility.yul\":13112:13124   */\n      div\n        /* \"#utility.yul\":13102:13124   */\n      swap1\n      pop\n        /* \"#utility.yul\":13169:13170   */\n      0x01\n        /* \"#utility.yul\":13163:13167   */\n      dup3\n        /* \"#utility.yul\":13159:13171   */\n      and\n        /* \"#utility.yul\":13190:13208   */\n      dup1\n        /* \"#utility.yul\":13180:13261   */\n      tag_444\n      jumpi\n        /* \"#utility.yul\":13246:13250   */\n      0x7f\n        /* \"#utility.yul\":13238:13244   */\n      dup3\n        /* \"#utility.yul\":13234:13251   */\n      and\n        /* \"#utility.yul\":13224:13251   */\n      swap2\n      pop\n        /* \"#utility.yul\":13180:13261   */\n    tag_444:\n        /* \"#utility.yul\":13308:13310   */\n      0x20\n        /* \"#utility.yul\":13300:13306   */\n      dup3\n        /* \"#utility.yul\":13297:13311   */\n      lt\n        /* \"#utility.yul\":13277:13295   */\n      dup2\n        /* \"#utility.yul\":13274:13312   */\n      sub\n        /* \"#utility.yul\":13271:13355   */\n      tag_445\n      jumpi\n        /* \"#utility.yul\":13327:13345   */\n      tag_446\n      tag_270\n      jump\t// in\n    tag_446:\n        /* \"#utility.yul\":13271:13355   */\n    tag_445:\n        /* \"#utility.yul\":13092:13361   */\n      pop\n        /* \"#utility.yul\":13041:13361   */\n      swap2\n      swap1\n      pop\n      jump\t// out\n        /* \"#utility.yul\":13367:13809   */\n    tag_116:\n        /* \"#utility.yul\":13516:13520   */\n      0x00\n        /* \"#utility.yul\":13554:13556   */\n      0x60\n        /* \"#utility.yul\":13543:13552   */\n      dup3\n        /* \"#utility.yul\":13539:13557   */\n      add\n        /* \"#utility.yul\":13531:13557   */\n      swap1\n      pop\n        /* \"#utility.yul\":13567:13638   */\n      tag_448\n        /* \"#utility.yul\":13635:13636   */\n      0x00\n        /* \"#utility.yul\":13624:13633   */\n      dup4\n        /* \"#utility.yul\":13620:13637   */\n      add\n        /* \"#utility.yul\":13611:13617   */\n      dup7\n        /* \"#utility.yul\":13567:13638   */\n      tag_252\n      jump\t// in\n    tag_448:\n        /* \"#utility.yul\":13648:13720   */\n      tag_449\n        /* \"#utility.yul\":13716:13718   */\n      0x20\n        /* \"#utility.yul\":13705:13714   */\n      dup4\n        /* \"#utility.yul\":13701:13719   */\n      add\n        /* \"#utility.yul\":13692:13698   */\n      dup6\n        /* \"#utility.yul\":13648:13720   */\n      tag_257\n      jump\t// in\n    tag_449:\n        /* \"#utility.yul\":13730:13802   */\n      tag_450\n        /* \"#utility.yul\":13798:13800   */\n      0x40\n        /* \"#utility.yul\":13787:13796   */\n      dup4\n        /* \"#utility.yul\":13783:13801   */\n      add\n        /* \"#utility.yul\":13774:13780   */\n      dup5\n        /* \"#utility.yul\":13730:13802   */\n      tag_252\n      jump\t// in\n    tag_450:\n        /* \"#utility.yul\":13367:13809   */\n      swap5\n      swap4\n      pop\n      pop\n      pop\n      pop\n      jump\t// out\n        /* \"#utility.yul\":13815:13981   */\n    tag_271:\n        /* \"#utility.yul\":13955:13973   */\n      0x555249206973206e6f742076616c696400000000000000000000000000000000\n        /* \"#utility.yul\":13951:13952   */\n      0x00\n        /* \"#utility.yul\":13943:13949   */\n      dup3\n        /* \"#utility.yul\":13939:13953   */\n      add\n        /* \"#utility.yul\":13932:13974   */\n      mstore\n        /* \"#utility.yul\":13815:13981   */\n      pop\n      jump\t// out\n        /* \"#utility.yul\":13987:14353   */\n    tag_272:\n        /* \"#utility.yul\":14129:14132   */\n      0x00\n        /* \"#utility.yul\":14150:14217   */\n      tag_453\n        /* \"#utility.yul\":14214:14216   */\n      0x10\n        /* \"#utility.yul\":14209:14212   */\n      dup4\n        /* \"#utility.yul\":14150:14217   */\n      tag_243\n      jump\t// in\n    tag_453:\n        /* \"#utility.yul\":14143:14217   */\n      swap2\n      pop\n        /* \"#utility.yul\":14226:14319   */\n      tag_454\n        /* \"#utility.yul\":14315:14318   */\n      dup3\n        /* \"#utility.yul\":14226:14319   */\n      tag_271\n      jump\t// in\n    tag_454:\n        /* \"#utility.yul\":14344:14346   */\n      0x20\n        /* \"#utility.yul\":14339:14342   */\n      dup3\n        /* \"#utility.yul\":14335:14347   */\n      add\n        /* \"#utility.yul\":14328:14347   */\n      swap1\n      pop\n        /* \"#utility.yul\":13987:14353   */\n      swap2\n      swap1\n      pop\n      jump\t// out\n        /* \"#utility.yul\":14359:14778   */\n    tag_144:\n        /* \"#utility.yul\":14525:14529   */\n      0x00\n        /* \"#utility.yul\":14563:14565   */\n      0x20\n        /* \"#utility.yul\":14552:14561   */\n      dup3\n        /* \"#utility.yul\":14548:14566   */\n      add\n        /* \"#utility.yul\":14540:14566   */\n      swap1\n      pop\n        /* \"#utility.yul\":14612:14621   */\n      dup2\n        /* \"#utility.yul\":14606:14610   */\n      dup2\n        /* \"#utility.yul\":14602:14622   */\n      sub\n        /* \"#utility.yul\":14598:14599   */\n      0x00\n        /* \"#utility.yul\":14587:14596   */\n      dup4\n        /* \"#utility.yul\":14583:14600   */\n      add\n        /* \"#utility.yul\":14576:14623   */\n      mstore\n        /* \"#utility.yul\":14640:14771   */\n      tag_456\n        /* \"#utility.yul\":14766:14770   */\n      dup2\n        /* \"#utility.yul\":14640:14771   */\n      tag_272\n      jump\t// in\n    tag_456:\n        /* \"#utility.yul\":14632:14771   */\n      swap1\n      pop\n        /* \"#utility.yul\":14359:14778   */\n      swap2\n      swap1\n      pop\n      jump\t// out\n        /* \"#utility.yul\":14784:14882   */\n    tag_273:\n        /* \"#utility.yul\":14835:14841   */\n      0x00\n        /* \"#utility.yul\":14869:14874   */\n      dup2\n        /* \"#utility.yul\":14863:14875   */\n      mload\n        /* \"#utility.yul\":14853:14875   */\n      swap1\n      pop\n        /* \"#utility.yul\":14784:14882   */\n      swap2\n      swap1\n      pop\n      jump\t// out\n        /* \"#utility.yul\":14888:15056   */\n    tag_274:\n        /* \"#utility.yul\":14971:14982   */\n      0x00\n        /* \"#utility.yul\":15005:15011   */\n      dup3\n        /* \"#utility.yul\":15000:15003   */\n      dup3\n        /* \"#utility.yul\":14993:15012   */\n      mstore\n        /* \"#utility.yul\":15045:15049   */\n      0x20\n        /* \"#utility.yul\":15040:15043   */\n      dup3\n        /* \"#utility.yul\":15036:15050   */\n      add\n        /* \"#utility.yul\":15021:15050   */\n      swap1\n      pop\n        /* \"#utility.yul\":14888:15056   */\n      swap3\n      swap2\n      pop\n      pop\n      jump\t// out\n        /* \"#utility.yul\":15062:15435   */\n    tag_275:\n        /* \"#utility.yul\":15148:15151   */\n      0x00\n        /* \"#utility.yul\":15176:15214   */\n      tag_460\n        /* \"#utility.yul\":15208:15213   */\n      dup3\n        /* \"#utility.yul\":15176:15214   */\n      tag_273\n      jump\t// in\n    tag_460:\n        /* \"#utility.yul\":15230:15300   */\n      tag_461\n        /* \"#utility.yul\":15293:15299   */\n      dup2\n        /* \"#utility.yul\":15288:15291   */\n      dup6\n        /* \"#utility.yul\":15230:15300   */\n      tag_274\n      jump\t// in\n    tag_461:\n        /* \"#utility.yul\":15223:15300   */\n      swap4\n      pop\n        /* \"#utility.yul\":15309:15374   */\n      tag_462\n        /* \"#utility.yul\":15367:15373   */\n      dup2\n        /* \"#utility.yul\":15362:15365   */\n      dup6\n        /* \"#utility.yul\":15355:15359   */\n      0x20\n        /* \"#utility.yul\":15348:15353   */\n      dup7\n        /* \"#utility.yul\":15344:15360   */\n      add\n        /* \"#utility.yul\":15309:15374   */\n      tag_244\n      jump\t// in\n    tag_462:\n        /* \"#utility.yul\":15399:15428   */\n      tag_463\n        /* \"#utility.yul\":15421:15427   */\n      dup2\n        /* \"#utility.yul\":15399:15428   */\n      tag_245\n      jump\t// in\n    tag_463:\n        /* \"#utility.yul\":15394:15397   */\n      dup5\n        /* \"#utility.yul\":15390:15429   */\n      add\n        /* \"#utility.yul\":15383:15429   */\n      swap2\n      pop\n        /* \"#utility.yul\":15152:15435   */\n      pop\n        /* \"#utility.yul\":15062:15435   */\n      swap3\n      swap2\n      pop\n      pop\n      jump\t// out\n        /* \"#utility.yul\":15441:16081   */\n    tag_183:\n        /* \"#utility.yul\":15636:15640   */\n      0x00\n        /* \"#utility.yul\":15674:15677   */\n      0x80\n        /* \"#utility.yul\":15663:15672   */\n      dup3\n        /* \"#utility.yul\":15659:15678   */\n      add\n        /* \"#utility.yul\":15651:15678   */\n      swap1\n      pop\n        /* \"#utility.yul\":15688:15759   */\n      tag_465\n        /* \"#utility.yul\":15756:15757   */\n      0x00\n        /* \"#utility.yul\":15745:15754   */\n      dup4\n        /* \"#utility.yul\":15741:15758   */\n      add\n        /* \"#utility.yul\":15732:15738   */\n      dup8\n        /* \"#utility.yul\":15688:15759   */\n      tag_252\n      jump\t// in\n    tag_465:\n        /* \"#utility.yul\":15769:15841   */\n      tag_466\n        /* \"#utility.yul\":15837:15839   */\n      0x20\n        /* \"#utility.yul\":15826:15835   */\n      dup4\n        /* \"#utility.yul\":15822:15840   */\n      add\n        /* \"#utility.yul\":15813:15819   */\n      dup7\n        /* \"#utility.yul\":15769:15841   */\n      tag_252\n      jump\t// in\n    tag_466:\n        /* \"#utility.yul\":15851:15923   */\n      tag_467\n        /* \"#utility.yul\":15919:15921   */\n      0x40\n        /* \"#utility.yul\":15908:15917   */\n      dup4\n        /* \"#utility.yul\":15904:15922   */\n      add\n        /* \"#utility.yul\":15895:15901   */\n      dup6\n        /* \"#utility.yul\":15851:15923   */\n      tag_257\n      jump\t// in\n    tag_467:\n        /* \"#utility.yul\":15970:15979   */\n      dup2\n        /* \"#utility.yul\":15964:15968   */\n      dup2\n        /* \"#utility.yul\":15960:15980   */\n      sub\n        /* \"#utility.yul\":15955:15957   */\n      0x60\n        /* \"#utility.yul\":15944:15953   */\n      dup4\n        /* \"#utility.yul\":15940:15958   */\n      add\n        /* \"#utility.yul\":15933:15981   */\n      mstore\n        /* \"#utility.yul\":15998:16074   */\n      tag_468\n        /* \"#utility.yul\":16069:16073   */\n      dup2\n        /* \"#utility.yul\":16060:16066   */\n      dup5\n        /* \"#utility.yul\":15998:16074   */\n      tag_275\n      jump\t// in\n    tag_468:\n        /* \"#utility.yul\":15990:16074   */\n      swap1\n      pop\n        /* \"#utility.yul\":15441:16081   */\n      swap6\n      swap5\n      pop\n      pop\n      pop\n      pop\n      pop\n      jump\t// out\n        /* \"#utility.yul\":16087:16228   */\n    tag_276:\n        /* \"#utility.yul\":16143:16148   */\n      0x00\n        /* \"#utility.yul\":16174:16180   */\n      dup2\n        /* \"#utility.yul\":16168:16181   */\n      mload\n        /* \"#utility.yul\":16159:16181   */\n      swap1\n      pop\n        /* \"#utility.yul\":16190:16222   */\n      tag_470\n        /* \"#utility.yul\":16216:16221   */\n      dup2\n        /* \"#utility.yul\":16190:16222   */\n      tag_238\n      jump\t// in\n    tag_470:\n        /* \"#utility.yul\":16087:16228   */\n      swap3\n      swap2\n      pop\n      pop\n      jump\t// out\n        /* \"#utility.yul\":16234:16583   */\n    tag_186:\n        /* \"#utility.yul\":16303:16309   */\n      0x00\n        /* \"#utility.yul\":16352:16354   */\n      0x20\n        /* \"#utility.yul\":16340:16349   */\n      dup3\n        /* \"#utility.yul\":16331:16338   */\n      dup5\n        /* \"#utility.yul\":16327:16350   */\n      sub\n        /* \"#utility.yul\":16323:16355   */\n      slt\n        /* \"#utility.yul\":16320:16439   */\n      iszero\n      tag_472\n      jumpi\n        /* \"#utility.yul\":16358:16437   */\n      tag_473\n      tag_235\n      jump\t// in\n    tag_473:\n        /* \"#utility.yul\":16320:16439   */\n    tag_472:\n        /* \"#utility.yul\":16478:16479   */\n      0x00\n        /* \"#utility.yul\":16503:16566   */\n      tag_474\n        /* \"#utility.yul\":16558:16565   */\n      dup5\n        /* \"#utility.yul\":16549:16555   */\n      dup3\n        /* \"#utility.yul\":16538:16547   */\n      dup6\n        /* \"#utility.yul\":16534:16556   */\n      add\n        /* \"#utility.yul\":16503:16566   */\n      tag_276\n      jump\t// in\n    tag_474:\n        /* \"#utility.yul\":16493:16566   */\n      swap2\n      pop\n        /* \"#utility.yul\":16449:16576   */\n      pop\n        /* \"#utility.yul\":16234:16583   */\n      swap3\n      swap2\n      pop\n      pop\n      jump\t// out\n        /* \"#utility.yul\":16589:16730   */\n    tag_277:\n        /* \"#utility.yul\":16638:16642   */\n      0x00\n        /* \"#utility.yul\":16661:16664   */\n      dup2\n        /* \"#utility.yul\":16653:16664   */\n      swap1\n      pop\n        /* \"#utility.yul\":16684:16687   */\n      dup2\n        /* \"#utility.yul\":16681:16682   */\n      0x00\n        /* \"#utility.yul\":16674:16688   */\n      mstore\n        /* \"#utility.yul\":16718:16722   */\n      0x20\n        /* \"#utility.yul\":16715:16716   */\n      0x00\n        /* \"#utility.yul\":16705:16723   */\n      keccak256\n        /* \"#utility.yul\":16697:16723   */\n      swap1\n      pop\n        /* \"#utility.yul\":16589:16730   */\n      swap2\n      swap1\n      pop\n      jump\t// out\n        /* \"#utility.yul\":16736:16829   */\n    tag_278:\n        /* \"#utility.yul\":16773:16779   */\n      0x00\n        /* \"#utility.yul\":16820:16822   */\n      0x20\n        /* \"#utility.yul\":16815:16817   */\n      0x1f\n        /* \"#utility.yul\":16808:16813   */\n      dup4\n        /* \"#utility.yul\":16804:16818   */\n      add\n        /* \"#utility.yul\":16800:16823   */\n      div\n        /* \"#utility.yul\":16790:16823   */\n      swap1\n      pop\n        /* \"#utility.yul\":16736:16829   */\n      swap2\n      swap1\n      pop\n      jump\t// out\n        /* \"#utility.yul\":16835:16942   */\n    tag_279:\n        /* \"#utility.yul\":16879:16887   */\n      0x00\n        /* \"#utility.yul\":16929:16934   */\n      dup3\n        /* \"#utility.yul\":16923:16927   */\n      dup3\n        /* \"#utility.yul\":16919:16935   */\n      shl\n        /* \"#utility.yul\":16898:16935   */\n      swap1\n      pop\n        /* \"#utility.yul\":16835:16942   */\n      swap3\n      swap2\n      pop\n      pop\n      jump\t// out\n        /* \"#utility.yul\":16948:17341   */\n    tag_280:\n        /* \"#utility.yul\":17017:17023   */\n      0x00\n        /* \"#utility.yul\":17067:17068   */\n      0x08\n        /* \"#utility.yul\":17055:17065   */\n      dup4\n        /* \"#utility.yul\":17051:17069   */\n      mul\n        /* \"#utility.yul\":17090:17187   */\n      tag_479\n        /* \"#utility.yul\":17120:17186   */\n      0xffffffffffffffffffffffffffffffffffffffffffffffffffffffffffffffff\n        /* \"#utility.yul\":17109:17118   */\n      dup3\n        /* \"#utility.yul\":17090:17187   */\n      tag_279\n      jump\t// in\n    tag_479:\n        /* \"#utility.yul\":17208:17247   */\n      tag_480\n        /* \"#utility.yul\":17238:17246   */\n      dup7\n        /* \"#utility.yul\":17227:17236   */\n      dup4\n        /* \"#utility.yul\":17208:17247   */\n      tag_279\n      jump\t// in\n    tag_480:\n        /* \"#utility.yul\":17196:17247   */\n      swap6\n      pop\n        /* \"#utility.yul\":17280:17284   */\n      dup1\n        /* \"#utility.yul\":17276:17285   */\n      not\n        /* \"#utility.yul\":17269:17274   */\n      dup5\n        /* \"#utility.yul\":17265:17286   */\n      and\n        /* \"#utility.yul\":17256:17286   */\n      swap4\n      pop\n        /* \"#utility.yul\":17329:17333   */\n      dup1\n        /* \"#utility.yul\":17319:17327   */\n      dup7\n        /* \"#utility.yul\":17315:17334   */\n      and\n        /* \"#utility.yul\":17308:17313   */\n      dup5\n        /* \"#utility.yul\":17305:17335   */\n      or\n        /* \"#utility.yul\":17295:17335   */\n      swap3\n      pop\n        /* \"#utility.yul\":17024:17341   */\n      pop\n      pop\n        /* \"#utility.yul\":16948:17341   */\n      swap4\n      swap3\n      pop\n      pop\n      pop\n      jump\t// out\n        /* \"#utility.yul\":17347:17407   */\n    tag_281:\n        /* \"#utility.yul\":17375:17378   */\n      0x00\n        /* \"#utility.yul\":17396:17401   */\n      dup2\n        /* \"#utility.yul\":17389:17401   */\n      swap1\n      pop\n        /* \"#utility.yul\":17347:17407   */\n      swap2\n      swap1\n      pop\n      jump\t// out\n        /* \"#utility.yul\":17413:17555   */\n    tag_282:\n        /* \"#utility.yul\":17463:17472   */\n      0x00\n        /* \"#utility.yul\":17496:17549   */\n      tag_483\n        /* \"#utility.yul\":17514:17548   */\n      tag_484\n        /* \"#utility.yul\":17523:17547   */\n      tag_485\n        /* \"#utility.yul\":17541:17546   */\n      dup5\n        /* \"#utility.yul\":17523:17547   */\n      tag_247\n      jump\t// in\n    tag_485:\n        /* \"#utility.yul\":17514:17548   */\n      tag_281\n      jump\t// in\n    tag_484:\n        /* \"#utility.yul\":17496:17549   */\n      tag_247\n      jump\t// in\n    tag_483:\n        /* \"#utility.yul\":17483:17549   */\n      swap1\n      pop\n        /* \"#utility.yul\":17413:17555   */\n      swap2\n      swap1\n      pop\n      jump\t// out\n        /* \"#utility.yul\":17561:17636   */\n    tag_283:\n        /* \"#utility.yul\":17604:17607   */\n      0x00\n        /* \"#utility.yul\":17625:17630   */\n      dup2\n        /* \"#utility.yul\":17618:17630   */\n      swap1\n      pop\n        /* \"#utility.yul\":17561:17636   */\n      swap2\n      swap1\n      pop\n      jump\t// out\n        /* \"#utility.yul\":17642:17911   */\n    tag_284:\n        /* \"#utility.yul\":17752:17791   */\n      tag_488\n        /* \"#utility.yul\":17783:17790   */\n      dup4\n        /* \"#utility.yul\":17752:17791   */\n      tag_282\n      jump\t// in\n    tag_488:\n        /* \"#utility.yul\":17813:17904   */\n      tag_489\n        /* \"#utility.yul\":17862:17903   */\n      tag_490\n        /* \"#utility.yul\":17886:17902   */\n      dup3\n        /* \"#utility.yul\":17862:17903   */\n      tag_283\n      jump\t// in\n    tag_490:\n        /* \"#utility.yul\":17854:17860   */\n      dup5\n        /* \"#utility.yul\":17847:17851   */\n      dup5\n        /* \"#utility.yul\":17841:17852   */\n      sload\n        /* \"#utility.yul\":17813:17904   */\n      tag_280\n      jump\t// in\n    tag_489:\n        /* \"#utility.yul\":17807:17811   */\n      dup3\n        /* \"#utility.yul\":17800:17905   */\n      sstore\n        /* \"#utility.yul\":17718:17911   */\n      pop\n        /* \"#utility.yul\":17642:17911   */\n      pop\n      pop\n      pop\n      jump\t// out\n        /* \"#utility.yul\":17917:17990   */\n    tag_285:\n        /* \"#utility.yul\":17962:17965   */\n      0x00\n        /* \"#utility.yul\":17917:17990   */\n      swap1\n      jump\t// out\n        /* \"#utility.yul\":17996:18185   */\n    tag_286:\n        /* \"#utility.yul\":18073:18105   */\n      tag_493\n      tag_285\n      jump\t// in\n    tag_493:\n        /* \"#utility.yul\":18114:18179   */\n      tag_494\n        /* \"#utility.yul\":18172:18178   */\n      dup2\n        /* \"#utility.yul\":18164:18170   */\n      dup5\n        /* \"#utility.yul\":18158:18162   */\n      dup5\n        /* \"#utility.yul\":18114:18179   */\n      tag_284\n      jump\t// in\n    tag_494:\n        /* \"#utility.yul\":18049:18185   */\n      pop\n        /* \"#utility.yul\":17996:18185   */\n      pop\n      pop\n      jump\t// out\n        /* \"#utility.yul\":18191:18377   */\n    tag_287:\n        /* \"#utility.yul\":18251:18371   */\n    tag_496:\n        /* \"#utility.yul\":18268:18271   */\n      dup2\n        /* \"#utility.yul\":18261:18266   */\n      dup2\n        /* \"#utility.yul\":18258:18272   */\n      lt\n        /* \"#utility.yul\":18251:18371   */\n      iszero\n      tag_498\n      jumpi\n        /* \"#utility.yul\":18322:18361   */\n      tag_499\n        /* \"#utility.yul\":18359:18360   */\n      0x00\n        /* \"#utility.yul\":18352:18357   */\n      dup3\n        /* \"#utility.yul\":18322:18361   */\n      tag_286\n      jump\t// in\n    tag_499:\n        /* \"#utility.yul\":18295:18296   */\n      0x01\n        /* \"#utility.yul\":18288:18293   */\n      dup2\n        /* \"#utility.yul\":18284:18297   */\n      add\n        /* \"#utility.yul\":18275:18297   */\n      swap1\n      pop\n        /* \"#utility.yul\":18251:18371   */\n      jump(tag_496)\n    tag_498:\n        /* \"#utility.yul\":18191:18377   */\n      pop\n      pop\n      jump\t// out\n        /* \"#utility.yul\":18383:18926   */\n    tag_288:\n        /* \"#utility.yul\":18484:18486   */\n      0x1f\n        /* \"#utility.yul\":18479:18482   */\n      dup3\n        /* \"#utility.yul\":18476:18487   */\n      gt\n        /* \"#utility.yul\":18473:18919   */\n      iszero\n      tag_501\n      jumpi\n        /* \"#utility.yul\":18518:18556   */\n      tag_502\n        /* \"#utility.yul\":18550:18555   */\n      dup2\n        /* \"#utility.yul\":18518:18556   */\n      tag_277\n      jump\t// in\n    tag_502:\n        /* \"#utility.yul\":18602:18631   */\n      tag_503\n        /* \"#utility.yul\":18620:18630   */\n      dup5\n        /* \"#utility.yul\":18602:18631   */\n      tag_278\n      jump\t// in\n    tag_503:\n        /* \"#utility.yul\":18592:18600   */\n      dup2\n        /* \"#utility.yul\":18588:18632   */\n      add\n        /* \"#utility.yul\":18785:18787   */\n      0x20\n        /* \"#utility.yul\":18773:18783   */\n      dup6\n        /* \"#utility.yul\":18770:18788   */\n      lt\n        /* \"#utility.yul\":18767:18816   */\n      iszero\n      tag_504\n      jumpi\n        /* \"#utility.yul\":18806:18814   */\n      dup2\n        /* \"#utility.yul\":18791:18814   */\n      swap1\n      pop\n        /* \"#utility.yul\":18767:18816   */\n    tag_504:\n        /* \"#utility.yul\":18829:18909   */\n      tag_505\n        /* \"#utility.yul\":18885:18907   */\n      tag_506\n        /* \"#utility.yul\":18903:18906   */\n      dup6\n        /* \"#utility.yul\":18885:18907   */\n      tag_278\n      jump\t// in\n    tag_506:\n        /* \"#utility.yul\":18875:18883   */\n      dup4\n        /* \"#utility.yul\":18871:18908   */\n      add\n        /* \"#utility.yul\":18858:18869   */\n      dup3\n        /* \"#utility.yul\":18829:18909   */\n      tag_287\n      jump\t// in\n    tag_505:\n        /* \"#utility.yul\":18488:18919   */\n      pop\n      pop\n        /* \"#utility.yul\":18473:18919   */\n    tag_501:\n        /* \"#utility.yul\":18383:18926   */\n      pop\n      pop\n      pop\n      jump\t// out\n        /* \"#utility.yul\":18932:19049   */\n    tag_289:\n        /* \"#utility.yul\":18986:18994   */\n      0x00\n        /* \"#utility.yul\":19036:19041   */\n      dup3\n        /* \"#utility.yul\":19030:19034   */\n      dup3\n        /* \"#utility.yul\":19026:19042   */\n      shr\n        /* \"#utility.yul\":19005:19042   */\n      swap1\n      pop\n        /* \"#utility.yul\":18932:19049   */\n      swap3\n      swap2\n      pop\n      pop\n      jump\t// out\n        /* \"#utility.yul\":19055:19224   */\n    tag_290:\n        /* \"#utility.yul\":19099:19105   */\n      0x00\n        /* \"#utility.yul\":19132:19183   */\n      tag_509\n        /* \"#utility.yul\":19180:19181   */\n      0x00\n        /* \"#utility.yul\":19176:19182   */\n      not\n        /* \"#utility.yul\":19168:19173   */\n      dup5\n        /* \"#utility.yul\":19165:19166   */\n      0x08\n        /* \"#utility.yul\":19161:19174   */\n      mul\n        /* \"#utility.yul\":19132:19183   */\n      tag_289\n      jump\t// in\n    tag_509:\n        /* \"#utility.yul\":19128:19184   */\n      not\n        /* \"#utility.yul\":19213:19217   */\n      dup1\n        /* \"#utility.yul\":19207:19211   */\n      dup4\n        /* \"#utility.yul\":19203:19218   */\n      and\n        /* \"#utility.yul\":19193:19218   */\n      swap2\n      pop\n        /* \"#utility.yul\":19106:19224   */\n      pop\n        /* \"#utility.yul\":19055:19224   */\n      swap3\n      swap2\n      pop\n      pop\n      jump\t// out\n        /* \"#utility.yul\":19229:19524   */\n    tag_291:\n        /* \"#utility.yul\":19305:19309   */\n      0x00\n        /* \"#utility.yul\":19451:19480   */\n      tag_511\n        /* \"#utility.yul\":19476:19479   */\n      dup4\n        /* \"#utility.yul\":19470:19474   */\n      dup4\n        /* \"#utility.yul\":19451:19480   */\n      tag_290\n      jump\t// in\n    tag_511:\n        /* \"#utility.yul\":19443:19480   */\n      swap2\n      pop\n        /* \"#utility.yul\":19513:19516   */\n      dup3\n        /* \"#utility.yul\":19510:19511   */\n      0x02\n        /* \"#utility.yul\":19506:19517   */\n      mul\n        /* \"#utility.yul\":19500:19504   */\n      dup3\n        /* \"#utility.yul\":19497:19518   */\n      or\n        /* \"#utility.yul\":19489:19518   */\n      swap1\n      pop\n        /* \"#utility.yul\":19229:19524   */\n      swap3\n      swap2\n      pop\n      pop\n      jump\t// out\n        /* \"#utility.yul\":19529:20924   */\n    tag_207:\n        /* \"#utility.yul\":19646:19683   */\n      tag_513\n        /* \"#utility.yul\":19679:19682   */\n      dup3\n        /* \"#utility.yul\":19646:19683   */\n      tag_242\n      jump\t// in\n    tag_513:\n        /* \"#utility.yul\":19748:19766   */\n      0xffffffffffffffff\n        /* \"#utility.yul\":19740:19746   */\n      dup2\n        /* \"#utility.yul\":19737:19767   */\n      gt\n        /* \"#utility.yul\":19734:19790   */\n      iszero\n      tag_514\n      jumpi\n        /* \"#utility.yul\":19770:19788   */\n      tag_515\n      tag_260\n      jump\t// in\n    tag_515:\n        /* \"#utility.yul\":19734:19790   */\n    tag_514:\n        /* \"#utility.yul\":19814:19852   */\n      tag_516\n        /* \"#utility.yul\":19846:19850   */\n      dup3\n        /* \"#utility.yul\":19840:19851   */\n      sload\n        /* \"#utility.yul\":19814:19852   */\n      tag_93\n      jump\t// in\n    tag_516:\n        /* \"#utility.yul\":19899:19966   */\n      tag_517\n        /* \"#utility.yul\":19959:19965   */\n      dup3\n        /* \"#utility.yul\":19951:19957   */\n      dup3\n        /* \"#utility.yul\":19945:19949   */\n      dup6\n        /* \"#utility.yul\":19899:19966   */\n      tag_288\n      jump\t// in\n    tag_517:\n        /* \"#utility.yul\":19993:19994   */\n      0x00\n        /* \"#utility.yul\":20017:20021   */\n      0x20\n        /* \"#utility.yul\":20004:20021   */\n      swap1\n      pop\n        /* \"#utility.yul\":20049:20051   */\n      0x1f\n        /* \"#utility.yul\":20041:20047   */\n      dup4\n        /* \"#utility.yul\":20038:20052   */\n      gt\n        /* \"#utility.yul\":20066:20067   */\n      0x01\n        /* \"#utility.yul\":20061:20679   */\n      dup2\n      eq\n      tag_519\n      jumpi\n        /* \"#utility.yul\":20723:20724   */\n      0x00\n        /* \"#utility.yul\":20740:20746   */\n      dup5\n        /* \"#utility.yul\":20737:20814   */\n      iszero\n      tag_520\n      jumpi\n        /* \"#utility.yul\":20789:20798   */\n      dup3\n        /* \"#utility.yul\":20784:20787   */\n      dup8\n        /* \"#utility.yul\":20780:20799   */\n      add\n        /* \"#utility.yul\":20774:20800   */\n      mload\n        /* \"#utility.yul\":20765:20800   */\n      swap1\n      pop\n        /* \"#utility.yul\":20737:20814   */\n    tag_520:\n        /* \"#utility.yul\":20840:20907   */\n      tag_521\n        /* \"#utility.yul\":20900:20906   */\n      dup6\n        /* \"#utility.yul\":20893:20898   */\n      dup3\n        /* \"#utility.yul\":20840:20907   */\n      tag_291\n      jump\t// in\n    tag_521:\n        /* \"#utility.yul\":20834:20838   */\n      dup7\n        /* \"#utility.yul\":20827:20908   */\n      sstore\n        /* \"#utility.yul\":20696:20918   */\n      pop\n        /* \"#utility.yul\":20031:20918   */\n      jump(tag_518)\n        /* \"#utility.yul\":20061:20679   */\n    tag_519:\n        /* \"#utility.yul\":20113:20117   */\n      0x1f\n        /* \"#utility.yul\":20109:20118   */\n      not\n        /* \"#utility.yul\":20101:20107   */\n      dup5\n        /* \"#utility.yul\":20097:20119   */\n      and\n        /* \"#utility.yul\":20147:20184   */\n      tag_522\n        /* \"#utility.yul\":20179:20183   */\n      dup7\n        /* \"#utility.yul\":20147:20184   */\n      tag_277\n      jump\t// in\n    tag_522:\n        /* \"#utility.yul\":20206:20207   */\n      0x00\n        /* \"#utility.yul\":20220:20428   */\n    tag_523:\n        /* \"#utility.yul\":20234:20241   */\n      dup3\n        /* \"#utility.yul\":20231:20232   */\n      dup2\n        /* \"#utility.yul\":20228:20242   */\n      lt\n        /* \"#utility.yul\":20220:20428   */\n      iszero\n      tag_525\n      jumpi\n        /* \"#utility.yul\":20313:20322   */\n      dup5\n        /* \"#utility.yul\":20308:20311   */\n      dup10\n        /* \"#utility.yul\":20304:20323   */\n      add\n        /* \"#utility.yul\":20298:20324   */\n      mload\n        /* \"#utility.yul\":20290:20296   */\n      dup3\n        /* \"#utility.yul\":20283:20325   */\n      sstore\n        /* \"#utility.yul\":20364:20365   */\n      0x01\n        /* \"#utility.yul\":20356:20362   */\n      dup3\n        /* \"#utility.yul\":20352:20366   */\n      add\n        /* \"#utility.yul\":20342:20366   */\n      swap2\n      pop\n        /* \"#utility.yul\":20411:20413   */\n      0x20\n        /* \"#utility.yul\":20400:20409   */\n      dup6\n        /* \"#utility.yul\":20396:20414   */\n      add\n        /* \"#utility.yul\":20383:20414   */\n      swap5\n      pop\n        /* \"#utility.yul\":20257:20261   */\n      0x20\n        /* \"#utility.yul\":20254:20255   */\n      dup2\n        /* \"#utility.yul\":20250:20262   */\n      add\n        /* \"#utility.yul\":20245:20262   */\n      swap1\n      pop\n        /* \"#utility.yul\":20220:20428   */\n      jump(tag_523)\n    tag_525:\n        /* \"#utility.yul\":20456:20462   */\n      dup7\n        /* \"#utility.yul\":20447:20454   */\n      dup4\n        /* \"#utility.yul\":20444:20463   */\n      lt\n        /* \"#utility.yul\":20441:20620   */\n      iszero\n      tag_526\n      jumpi\n        /* \"#utility.yul\":20514:20523   */\n      dup5\n        /* \"#utility.yul\":20509:20512   */\n      dup10\n        /* \"#utility.yul\":20505:20524   */\n      add\n        /* \"#utility.yul\":20499:20525   */\n      mload\n        /* \"#utility.yul\":20557:20605   */\n      tag_527\n        /* \"#utility.yul\":20599:20603   */\n      0x1f\n        /* \"#utility.yul\":20591:20597   */\n      dup10\n        /* \"#utility.yul\":20587:20604   */\n      and\n        /* \"#utility.yul\":20576:20585   */\n      dup3\n        /* \"#utility.yul\":20557:20605   */\n      tag_290\n      jump\t// in\n    tag_527:\n        /* \"#utility.yul\":20549:20555   */\n      dup4\n        /* \"#utility.yul\":20542:20606   */\n      sstore\n        /* \"#utility.yul\":20464:20620   */\n      pop\n        /* \"#utility.yul\":20441:20620   */\n    tag_526:\n        /* \"#utility.yul\":20666:20667   */\n      0x01\n        /* \"#utility.yul\":20662:20663   */\n      0x02\n        /* \"#utility.yul\":20654:20660   */\n      dup9\n        /* \"#utility.yul\":20650:20664   */\n      mul\n        /* \"#utility.yul\":20646:20668   */\n      add\n        /* \"#utility.yul\":20640:20644   */\n      dup9\n        /* \"#utility.yul\":20633:20669   */\n      sstore\n        /* \"#utility.yul\":20068:20679   */\n      pop\n      pop\n      pop\n        /* \"#utility.yul\":20031:20918   */\n    tag_518:\n      pop\n        /* \"#utility.yul\":19621:20924   */\n      pop\n      pop\n      pop\n        /* \"#utility.yul\":19529:20924   */\n      pop\n      pop\n      jump\t// out\n        /* \"#utility.yul\":20930:21262   */\n    tag_227:\n        /* \"#utility.yul\":21051:21055   */\n      0x00\n        /* \"#utility.yul\":21089:21091   */\n      0x40\n        /* \"#utility.yul\":21078:21087   */\n      dup3\n        /* \"#utility.yul\":21074:21092   */\n      add\n        /* \"#utility.yul\":21066:21092   */\n      swap1\n      pop\n        /* \"#utility.yul\":21102:21173   */\n      tag_529\n        /* \"#utility.yul\":21170:21171   */\n      0x00\n        /* \"#utility.yul\":21159:21168   */\n      dup4\n        /* \"#utility.yul\":21155:21172   */\n      add\n        /* \"#utility.yul\":21146:21152   */\n      dup6\n        /* \"#utility.yul\":21102:21173   */\n      tag_252\n      jump\t// in\n    tag_529:\n        /* \"#utility.yul\":21183:21255   */\n      tag_530\n        /* \"#utility.yul\":21251:21253   */\n      0x20\n        /* \"#utility.yul\":21240:21249   */\n      dup4\n        /* \"#utility.yul\":21236:21254   */\n      add\n        /* \"#utility.yul\":21227:21233   */\n      dup5\n        /* \"#utility.yul\":21183:21255   */\n      tag_257\n      jump\t// in\n    tag_530:\n        /* \"#utility.yul\":20930:21262   */\n      swap4\n      swap3\n      pop\n      pop\n      pop\n      jump\t// out\n\n    auxdata: 0xa2646970667358221220f82d21166be4780fd07c4a529de0dbd4435f67a2dd3ea129864863e214b9a11964736f6c63430008140033\n}\n",
				"bytecode": {
					"linkReferences": {},
					"object": "608060405234801562000010575f80fd5b5060405162002522380380620025228339818101604052810190620000369190620001ea565b8181815f9081620000489190620004a4565b5080600190816200005a9190620004a4565b505050505062000588565b5f604051905090565b5f80fd5b5f80fd5b5f80fd5b5f80fd5b5f601f19601f8301169050919050565b7f4e487b71000000000000000000000000000000000000000000000000000000005f52604160045260245ffd5b620000c6826200007e565b810181811067ffffffffffffffff82111715620000e857620000e76200008e565b5b80604052505050565b5f620000fc62000065565b90506200010a8282620000bb565b919050565b5f67ffffffffffffffff8211156200012c576200012b6200008e565b5b62000137826200007e565b9050602081019050919050565b5f5b838110156200016357808201518184015260208101905062000146565b5f8484015250505050565b5f620001846200017e846200010f565b620000f1565b905082815260208101848484011115620001a357620001a26200007a565b5b620001b084828562000144565b509392505050565b5f82601f830112620001cf57620001ce62000076565b5b8151620001e18482602086016200016e565b91505092915050565b5f80604083850312156200020357620002026200006e565b5b5f83015167ffffffffffffffff81111562000223576200022262000072565b5b6200023185828601620001b8565b925050602083015167ffffffffffffffff81111562000255576200025462000072565b5b6200026385828601620001b8565b9150509250929050565b5f81519050919050565b7f4e487b71000000000000000000000000000000000000000000000000000000005f52602260045260245ffd5b5f6002820490506001821680620002bc57607f821691505b602082108103620002d257620002d162000277565b5b50919050565b5f819050815f5260205f209050919050565b5f6020601f8301049050919050565b5f82821b905092915050565b5f60088302620003367fffffffffffffffffffffffffffffffffffffffffffffffffffffffffffffffff82620002f9565b620003428683620002f9565b95508019841693508086168417925050509392505050565b5f819050919050565b5f819050919050565b5f6200038c6200038662000380846200035a565b62000363565b6200035a565b9050919050565b5f819050919050565b620003a7836200036c565b620003bf620003b68262000393565b84845462000305565b825550505050565b5f90565b620003d5620003c7565b620003e28184846200039c565b505050565b5b818110156200040957620003fd5f82620003cb565b600181019050620003e8565b5050565b601f82111562000458576200042281620002d8565b6200042d84620002ea565b810160208510156200043d578190505b620004556200044c85620002ea565b830182620003e7565b50505b505050565b5f82821c905092915050565b5f6200047a5f19846008026200045d565b1980831691505092915050565b5f62000494838362000469565b9150826002028217905092915050565b620004af826200026d565b67ffffffffffffffff811115620004cb57620004ca6200008e565b5b620004d78254620002a4565b620004e48282856200040d565b5f60209050601f8311600181146200051a575f841562000505578287015190505b62000511858262000487565b86555062000580565b601f1984166200052a86620002d8565b5f5b8281101562000553578489015182556001820191506020850194506020810190506200052c565b868310156200057357848901516200056f601f89168262000469565b8355505b6001600288020188555050505b505050505050565b611f8c80620005965f395ff3fe608060405234801561000f575f80fd5b50600436106100f3575f3560e01c80636352211e11610095578063b88d4fde11610064578063b88d4fde1461027f578063c87b56dd1461029b578063e2c4c4b2146102cb578063e985e9c5146102e7576100f3565b80636352211e146101e557806370a082311461021557806395d89b4114610245578063a22cb46514610263576100f3565b8063095ea7b3116100d1578063095ea7b31461017557806323b872dd1461019157806329d6724e146101ad57806342842e0e146101c9576100f3565b806301ffc9a7146100f757806306fdde0314610127578063081812fc14610145575b5f80fd5b610111600480360381019061010c919061148b565b610317565b60405161011e91906114d0565b60405180910390f35b61012f6103f8565b60405161013c9190611573565b60405180910390f35b61015f600480360381019061015a91906115c6565b610487565b60405161016c9190611630565b60405180910390f35b61018f600480360381019061018a9190611673565b6104a2565b005b6101ab60048036038101906101a691906116b1565b6104b8565b005b6101c760048036038101906101c2919061172b565b6105b7565b005b6101e360048036038101906101de91906116b1565b6105c7565b005b6101ff60048036038101906101fa91906115c6565b6105e6565b60405161020c9190611630565b60405180910390f35b61022f600480360381019061022a919061177b565b6105f7565b60405161023c91906117b5565b60405180910390f35b61024d6106ad565b60405161025a9190611573565b60405180910390f35b61027d600480360381019061027891906117ce565b61073d565b005b61029960048036038101906102949190611938565b610753565b005b6102b560048036038101906102b091906115c6565b610770565b6040516102c29190611573565b60405180910390f35b6102e560048036038101906102e09190611a56565b610887565b005b61030160048036038101906102fc9190611ab0565b61089f565b60405161030e91906114d0565b60405180910390f35b5f7f80ac58cd000000000000000000000000000000000000000000000000000000007bffffffffffffffffffffffffffffffffffffffffffffffffffffffff1916827bffffffffffffffffffffffffffffffffffffffffffffffffffffffff191614806103e157507f5b5e139f000000000000000000000000000000000000000000000000000000007bffffffffffffffffffffffffffffffffffffffffffffffffffffffff1916827bffffffffffffffffffffffffffffffffffffffffffffffffffffffff1916145b806103f157506103f08261092d565b5b9050919050565b60605f805461040690611b1b565b80601f016020809104026020016040519081016040528092919081815260200182805461043290611b1b565b801561047d5780601f106104545761010080835404028352916020019161047d565b820191905f5260205f20905b81548152906001019060200180831161046057829003601f168201915b5050505050905090565b5f61049182610996565b5061049b82610a1c565b9050919050565b6104b482826104af610a55565b610a5c565b5050565b5f73ffffffffffffffffffffffffffffffffffffffff168273ffffffffffffffffffffffffffffffffffffffff1603610528575f6040517f64a0ae9200000000000000000000000000000000000000000000000000000000815260040161051f9190611630565b60405180910390fd5b5f61053b8383610536610a55565b610a6e565b90508373ffffffffffffffffffffffffffffffffffffffff168173ffffffffffffffffffffffffffffffffffffffff16146105b1578382826040517f64283d7b0000000000000000000000000000000000000000000000000000000081526004016105a893929190611b4b565b60405180910390fd5b50505050565b6105c2838383610c79565b505050565b6105e183838360405180602001604052805f815250610753565b505050565b5f6105f082610996565b9050919050565b5f8073ffffffffffffffffffffffffffffffffffffffff168273ffffffffffffffffffffffffffffffffffffffff1603610668575f6040517f89c62b6400000000000000000000000000000000000000000000000000000000815260040161065f9190611630565b60405180910390fd5b60035f8373ffffffffffffffffffffffffffffffffffffffff1673ffffffffffffffffffffffffffffffffffffffff1681526020019081526020015f20549050919050565b6060600180546106bc90611b1b565b80601f01602080910402602001604051908101604052809291908181526020018280546106e890611b1b565b80156107335780601f1061070a57610100808354040283529160200191610733565b820191905f5260205f20905b81548152906001019060200180831161071657829003601f168201915b5050505050905090565b61074f610748610a55565b8383610c79565b5050565b61075e8484846104b8565b61076a84848484610de2565b50505050565b60605f73ffffffffffffffffffffffffffffffffffffffff16610792836105e6565b73ffffffffffffffffffffffffffffffffffffffff16036107e8576040517f08c379a00000000000000000000000000000000000000000000000000000000081526004016107df90611bca565b60405180910390fd5b60065f8381526020019081526020015f20805461080490611b1b565b80601f016020809104026020016040519081016040528092919081815260200182805461083090611b1b565b801561087b5780601f106108525761010080835404028352916020019161087b565b820191905f5260205f20905b81548152906001019060200180831161085e57829003601f168201915b50505050509050919050565b6108913383610f94565b61089b8282611087565b5050565b5f60055f8473ffffffffffffffffffffffffffffffffffffffff1673ffffffffffffffffffffffffffffffffffffffff1681526020019081526020015f205f8373ffffffffffffffffffffffffffffffffffffffff1673ffffffffffffffffffffffffffffffffffffffff1681526020019081526020015f205f9054906101000a900460ff16905092915050565b5f7f01ffc9a7000000000000000000000000000000000000000000000000000000007bffffffffffffffffffffffffffffffffffffffffffffffffffffffff1916827bffffffffffffffffffffffffffffffffffffffffffffffffffffffff1916149050919050565b5f806109a1836110aa565b90505f73ffffffffffffffffffffffffffffffffffffffff168173ffffffffffffffffffffffffffffffffffffffff1603610a1357826040517f7e273289000000000000000000000000000000000000000000000000000000008152600401610a0a91906117b5565b60405180910390fd5b80915050919050565b5f60045f8381526020019081526020015f205f9054906101000a900473ffffffffffffffffffffffffffffffffffffffff169050919050565b5f33905090565b610a6983838360016110e3565b505050565b5f80610a79846110aa565b90505f73ffffffffffffffffffffffffffffffffffffffff168373ffffffffffffffffffffffffffffffffffffffff1614610aba57610ab98184866112a2565b5b5f73ffffffffffffffffffffffffffffffffffffffff168173ffffffffffffffffffffffffffffffffffffffff1614610b4557610af95f855f806110e3565b600160035f8373ffffffffffffffffffffffffffffffffffffffff1673ffffffffffffffffffffffffffffffffffffffff1681526020019081526020015f205f82825403925050819055505b5f73ffffffffffffffffffffffffffffffffffffffff168573ffffffffffffffffffffffffffffffffffffffff1614610bc457600160035f8773ffffffffffffffffffffffffffffffffffffffff1673ffffffffffffffffffffffffffffffffffffffff1681526020019081526020015f205f82825401925050819055505b8460025f8681526020019081526020015f205f6101000a81548173ffffffffffffffffffffffffffffffffffffffff021916908373ffffffffffffffffffffffffffffffffffffffff160217905550838573ffffffffffffffffffffffffffffffffffffffff168273ffffffffffffffffffffffffffffffffffffffff167fddf252ad1be2c89b69c2b068fc378daa952ba7f163c4a11628f55a4df523b3ef60405160405180910390a4809150509392505050565b5f73ffffffffffffffffffffffffffffffffffffffff168273ffffffffffffffffffffffffffffffffffffffff1603610ce957816040517f5b08ba18000000000000000000000000000000000000000000000000000000008152600401610ce09190611630565b60405180910390fd5b8060055f8573ffffffffffffffffffffffffffffffffffffffff1673ffffffffffffffffffffffffffffffffffffffff1681526020019081526020015f205f8473ffffffffffffffffffffffffffffffffffffffff1673ffffffffffffffffffffffffffffffffffffffff1681526020019081526020015f205f6101000a81548160ff0219169083151502179055508173ffffffffffffffffffffffffffffffffffffffff168373ffffffffffffffffffffffffffffffffffffffff167f17307eab39ab6107e8899845ad3d59bd9653f200f220920489ca2b5937696c3183604051610dd591906114d0565b60405180910390a3505050565b5f8373ffffffffffffffffffffffffffffffffffffffff163b1115610f8e578273ffffffffffffffffffffffffffffffffffffffff1663150b7a02610e25610a55565b8685856040518563ffffffff1660e01b8152600401610e479493929190611c3a565b6020604051808303815f875af1925050508015610e8257506040513d601f19601f82011682018060405250810190610e7f9190611c98565b60015b610f03573d805f8114610eb0576040519150601f19603f3d011682016040523d82523d5f602084013e610eb5565b606091505b505f815103610efb57836040517f64a0ae92000000000000000000000000000000000000000000000000000000008152600401610ef29190611630565b60405180910390fd5b805181602001fd5b63150b7a0260e01b7bffffffffffffffffffffffffffffffffffffffffffffffffffffffff1916817bffffffffffffffffffffffffffffffffffffffffffffffffffffffff191614610f8c57836040517f64a0ae92000000000000000000000000000000000000000000000000000000008152600401610f839190611630565b60405180910390fd5b505b50505050565b5f73ffffffffffffffffffffffffffffffffffffffff168273ffffffffffffffffffffffffffffffffffffffff1603611004575f6040517f64a0ae92000000000000000000000000000000000000000000000000000000008152600401610ffb9190611630565b60405180910390fd5b5f61101083835f610a6e565b90505f73ffffffffffffffffffffffffffffffffffffffff168173ffffffffffffffffffffffffffffffffffffffff1614611082575f6040517f73c6ac6e0000000000000000000000000000000000000000000000000000000081526004016110799190611630565b60405180910390fd5b505050565b8060065f8481526020019081526020015f2090816110a59190611e60565b505050565b5f60025f8381526020019081526020015f205f9054906101000a900473ffffffffffffffffffffffffffffffffffffffff169050919050565b808061111b57505f73ffffffffffffffffffffffffffffffffffffffff168273ffffffffffffffffffffffffffffffffffffffff1614155b1561124d575f61112a84610996565b90505f73ffffffffffffffffffffffffffffffffffffffff168373ffffffffffffffffffffffffffffffffffffffff161415801561119457508273ffffffffffffffffffffffffffffffffffffffff168173ffffffffffffffffffffffffffffffffffffffff1614155b80156111a757506111a5818461089f565b155b156111e957826040517fa9fbf51f0000000000000000000000000000000000000000000000000000000081526004016111e09190611630565b60405180910390fd5b811561124b57838573ffffffffffffffffffffffffffffffffffffffff168273ffffffffffffffffffffffffffffffffffffffff167f8c5be1e5ebec7d5bd14f71427d1e84f3dd0314c0f7b2291e5b200ac8c7c3b92560405160405180910390a45b505b8360045f8581526020019081526020015f205f6101000a81548173ffffffffffffffffffffffffffffffffffffffff021916908373ffffffffffffffffffffffffffffffffffffffff16021790555050505050565b6112ad838383611365565b611360575f73ffffffffffffffffffffffffffffffffffffffff168373ffffffffffffffffffffffffffffffffffffffff160361132157806040517f7e27328900000000000000000000000000000000000000000000000000000000815260040161131891906117b5565b60405180910390fd5b81816040517f177e802f000000000000000000000000000000000000000000000000000000008152600401611357929190611f2f565b60405180910390fd5b505050565b5f8073ffffffffffffffffffffffffffffffffffffffff168373ffffffffffffffffffffffffffffffffffffffff161415801561141c57508273ffffffffffffffffffffffffffffffffffffffff168473ffffffffffffffffffffffffffffffffffffffff1614806113dd57506113dc848461089f565b5b8061141b57508273ffffffffffffffffffffffffffffffffffffffff1661140383610a1c565b73ffffffffffffffffffffffffffffffffffffffff16145b5b90509392505050565b5f604051905090565b5f80fd5b5f80fd5b5f7fffffffff0000000000000000000000000000000000000000000000000000000082169050919050565b61146a81611436565b8114611474575f80fd5b50565b5f8135905061148581611461565b92915050565b5f602082840312156114a05761149f61142e565b5b5f6114ad84828501611477565b91505092915050565b5f8115159050919050565b6114ca816114b6565b82525050565b5f6020820190506114e35f8301846114c1565b92915050565b5f81519050919050565b5f82825260208201905092915050565b5f5b83811015611520578082015181840152602081019050611505565b5f8484015250505050565b5f601f19601f8301169050919050565b5f611545826114e9565b61154f81856114f3565b935061155f818560208601611503565b6115688161152b565b840191505092915050565b5f6020820190508181035f83015261158b818461153b565b905092915050565b5f819050919050565b6115a581611593565b81146115af575f80fd5b50565b5f813590506115c08161159c565b92915050565b5f602082840312156115db576115da61142e565b5b5f6115e8848285016115b2565b91505092915050565b5f73ffffffffffffffffffffffffffffffffffffffff82169050919050565b5f61161a826115f1565b9050919050565b61162a81611610565b82525050565b5f6020820190506116435f830184611621565b92915050565b61165281611610565b811461165c575f80fd5b50565b5f8135905061166d81611649565b92915050565b5f80604083850312156116895761168861142e565b5b5f6116968582860161165f565b92505060206116a7858286016115b2565b9150509250929050565b5f805f606084860312156116c8576116c761142e565b5b5f6116d58682870161165f565b93505060206116e68682870161165f565b92505060406116f7868287016115b2565b9150509250925092565b61170a816114b6565b8114611714575f80fd5b50565b5f8135905061172581611701565b92915050565b5f805f606084860312156117425761174161142e565b5b5f61174f8682870161165f565b93505060206117608682870161165f565b925050604061177186828701611717565b9150509250925092565b5f602082840312156117905761178f61142e565b5b5f61179d8482850161165f565b91505092915050565b6117af81611593565b82525050565b5f6020820190506117c85f8301846117a6565b92915050565b5f80604083850312156117e4576117e361142e565b5b5f6117f18582860161165f565b925050602061180285828601611717565b9150509250929050565b5f80fd5b5f80fd5b7f4e487b71000000000000000000000000000000000000000000000000000000005f52604160045260245ffd5b61184a8261152b565b810181811067ffffffffffffffff8211171561186957611868611814565b5b80604052505050565b5f61187b611425565b90506118878282611841565b919050565b5f67ffffffffffffffff8211156118a6576118a5611814565b5b6118af8261152b565b9050602081019050919050565b828183375f83830152505050565b5f6118dc6118d78461188c565b611872565b9050828152602081018484840111156118f8576118f7611810565b5b6119038482856118bc565b509392505050565b5f82601f83011261191f5761191e61180c565b5b813561192f8482602086016118ca565b91505092915050565b5f805f80608085870312156119505761194f61142e565b5b5f61195d8782880161165f565b945050602061196e8782880161165f565b935050604061197f878288016115b2565b925050606085013567ffffffffffffffff8111156119a05761199f611432565b5b6119ac8782880161190b565b91505092959194509250565b5f67ffffffffffffffff8211156119d2576119d1611814565b5b6119db8261152b565b9050602081019050919050565b5f6119fa6119f5846119b8565b611872565b905082815260208101848484011115611a1657611a15611810565b5b611a218482856118bc565b509392505050565b5f82601f830112611a3d57611a3c61180c565b5b8135611a4d8482602086016119e8565b91505092915050565b5f8060408385031215611a6c57611a6b61142e565b5b5f611a79858286016115b2565b925050602083013567ffffffffffffffff811115611a9a57611a99611432565b5b611aa685828601611a29565b9150509250929050565b5f8060408385031215611ac657611ac561142e565b5b5f611ad38582860161165f565b9250506020611ae48582860161165f565b9150509250929050565b7f4e487b71000000000000000000000000000000000000000000000000000000005f52602260045260245ffd5b5f6002820490506001821680611b3257607f821691505b602082108103611b4557611b44611aee565b5b50919050565b5f606082019050611b5e5f830186611621565b611b6b60208301856117a6565b611b786040830184611621565b949350505050565b7f555249206973206e6f742076616c6964000000000000000000000000000000005f82015250565b5f611bb46010836114f3565b9150611bbf82611b80565b602082019050919050565b5f6020820190508181035f830152611be181611ba8565b9050919050565b5f81519050919050565b5f82825260208201905092915050565b5f611c0c82611be8565b611c168185611bf2565b9350611c26818560208601611503565b611c2f8161152b565b840191505092915050565b5f608082019050611c4d5f830187611621565b611c5a6020830186611621565b611c6760408301856117a6565b8181036060830152611c798184611c02565b905095945050505050565b5f81519050611c9281611461565b92915050565b5f60208284031215611cad57611cac61142e565b5b5f611cba84828501611c84565b91505092915050565b5f819050815f5260205f209050919050565b5f6020601f8301049050919050565b5f82821b905092915050565b5f60088302611d1f7fffffffffffffffffffffffffffffffffffffffffffffffffffffffffffffffff82611ce4565b611d298683611ce4565b95508019841693508086168417925050509392505050565b5f819050919050565b5f611d64611d5f611d5a84611593565b611d41565b611593565b9050919050565b5f819050919050565b611d7d83611d4a565b611d91611d8982611d6b565b848454611cf0565b825550505050565b5f90565b611da5611d99565b611db0818484611d74565b505050565b5b81811015611dd357611dc85f82611d9d565b600181019050611db6565b5050565b601f821115611e1857611de981611cc3565b611df284611cd5565b81016020851015611e01578190505b611e15611e0d85611cd5565b830182611db5565b50505b505050565b5f82821c905092915050565b5f611e385f1984600802611e1d565b1980831691505092915050565b5f611e508383611e29565b9150826002028217905092915050565b611e69826114e9565b67ffffffffffffffff811115611e8257611e81611814565b5b611e8c8254611b1b565b611e97828285611dd7565b5f60209050601f831160018114611ec8575f8415611eb6578287015190505b611ec08582611e45565b865550611f27565b601f198416611ed686611cc3565b5f5b82811015611efd57848901518255600182019150602085019450602081019050611ed8565b86831015611f1a5784890151611f16601f891682611e29565b8355505b6001600288020188555050505b505050505050565b5f604082019050611f425f830185611621565b611f4f60208301846117a6565b939250505056fea2646970667358221220f82d21166be4780fd07c4a529de0dbd4435f67a2dd3ea129864863e214b9a11964736f6c63430008140033",
					"opcodes": "PUSH1 0x80 PUSH1 0x40 MSTORE CALLVALUE DUP1 ISZERO PUSH3 0x10 JUMPI PUSH0 DUP1 REVERT JUMPDEST POP PUSH1 0x40 MLOAD PUSH3 0x2522 CODESIZE SUB DUP1 PUSH3 0x2522 DUP4 CODECOPY DUP2 DUP2 ADD PUSH1 0x40 MSTORE DUP2 ADD SWAP1 PUSH3 0x36 SWAP2 SWAP1 PUSH3 0x1EA JUMP JUMPDEST DUP2 DUP2 DUP2 PUSH0 SWAP1 DUP2 PUSH3 0x48 SWAP2 SWAP1 PUSH3 0x4A4 JUMP JUMPDEST POP DUP1 PUSH1 0x1 SWAP1 DUP2 PUSH3 0x5A SWAP2 SWAP1 PUSH3 0x4A4 JUMP JUMPDEST POP POP POP POP POP PUSH3 0x588 JUMP JUMPDEST PUSH0 PUSH1 0x40 MLOAD SWAP1 POP SWAP1 JUMP JUMPDEST PUSH0 DUP1 REVERT JUMPDEST PUSH0 DUP1 REVERT JUMPDEST PUSH0 DUP1 REVERT JUMPDEST PUSH0 DUP1 REVERT JUMPDEST PUSH0 PUSH1 0x1F NOT PUSH1 0x1F DUP4 ADD AND SWAP1 POP SWAP2 SWAP1 POP JUMP JUMPDEST PUSH32 0x4E487B7100000000000000000000000000000000000000000000000000000000 PUSH0 MSTORE PUSH1 0x41 PUSH1 0x4 MSTORE PUSH1 0x24 PUSH0 REVERT JUMPDEST PUSH3 0xC6 DUP3 PUSH3 0x7E JUMP JUMPDEST DUP2 ADD DUP2 DUP2 LT PUSH8 0xFFFFFFFFFFFFFFFF DUP3 GT OR ISZERO PUSH3 0xE8 JUMPI PUSH3 0xE7 PUSH3 0x8E JUMP JUMPDEST JUMPDEST DUP1 PUSH1 0x40 MSTORE POP POP POP JUMP JUMPDEST PUSH0 PUSH3 0xFC PUSH3 0x65 JUMP JUMPDEST SWAP1 POP PUSH3 0x10A DUP3 DUP3 PUSH3 0xBB JUMP JUMPDEST SWAP2 SWAP1 POP JUMP JUMPDEST PUSH0 PUSH8 0xFFFFFFFFFFFFFFFF DUP3 GT ISZERO PUSH3 0x12C JUMPI PUSH3 0x12B PUSH3 0x8E JUMP JUMPDEST JUMPDEST PUSH3 0x137 DUP3 PUSH3 0x7E JUMP JUMPDEST SWAP1 POP PUSH1 0x20 DUP2 ADD SWAP1 POP SWAP2 SWAP1 POP JUMP JUMPDEST PUSH0 JUMPDEST DUP4 DUP2 LT ISZERO PUSH3 0x163 JUMPI DUP1 DUP3 ADD MLOAD DUP2 DUP5 ADD MSTORE PUSH1 0x20 DUP2 ADD SWAP1 POP PUSH3 0x146 JUMP JUMPDEST PUSH0 DUP5 DUP5 ADD MSTORE POP POP POP POP JUMP JUMPDEST PUSH0 PUSH3 0x184 PUSH3 0x17E DUP5 PUSH3 0x10F JUMP JUMPDEST PUSH3 0xF1 JUMP JUMPDEST SWAP1 POP DUP3 DUP2 MSTORE PUSH1 0x20 DUP2 ADD DUP5 DUP5 DUP5 ADD GT ISZERO PUSH3 0x1A3 JUMPI PUSH3 0x1A2 PUSH3 0x7A JUMP JUMPDEST JUMPDEST PUSH3 0x1B0 DUP5 DUP3 DUP6 PUSH3 0x144 JUMP JUMPDEST POP SWAP4 SWAP3 POP POP POP JUMP JUMPDEST PUSH0 DUP3 PUSH1 0x1F DUP4 ADD SLT PUSH3 0x1CF JUMPI PUSH3 0x1CE PUSH3 0x76 JUMP JUMPDEST JUMPDEST DUP2 MLOAD PUSH3 0x1E1 DUP5 DUP3 PUSH1 0x20 DUP7 ADD PUSH3 0x16E JUMP JUMPDEST SWAP2 POP POP SWAP3 SWAP2 POP POP JUMP JUMPDEST PUSH0 DUP1 PUSH1 0x40 DUP4 DUP6 SUB SLT ISZERO PUSH3 0x203 JUMPI PUSH3 0x202 PUSH3 0x6E JUMP JUMPDEST JUMPDEST PUSH0 DUP4 ADD MLOAD PUSH8 0xFFFFFFFFFFFFFFFF DUP2 GT ISZERO PUSH3 0x223 JUMPI PUSH3 0x222 PUSH3 0x72 JUMP JUMPDEST JUMPDEST PUSH3 0x231 DUP6 DUP3 DUP7 ADD PUSH3 0x1B8 JUMP JUMPDEST SWAP3 POP POP PUSH1 0x20 DUP4 ADD MLOAD PUSH8 0xFFFFFFFFFFFFFFFF DUP2 GT ISZERO PUSH3 0x255 JUMPI PUSH3 0x254 PUSH3 0x72 JUMP JUMPDEST JUMPDEST PUSH3 0x263 DUP6 DUP3 DUP7 ADD PUSH3 0x1B8 JUMP JUMPDEST SWAP2 POP POP SWAP3 POP SWAP3 SWAP1 POP JUMP JUMPDEST PUSH0 DUP2 MLOAD SWAP1 POP SWAP2 SWAP1 POP JUMP JUMPDEST PUSH32 0x4E487B7100000000000000000000000000000000000000000000000000000000 PUSH0 MSTORE PUSH1 0x22 PUSH1 0x4 MSTORE PUSH1 0x24 PUSH0 REVERT JUMPDEST PUSH0 PUSH1 0x2 DUP3 DIV SWAP1 POP PUSH1 0x1 DUP3 AND DUP1 PUSH3 0x2BC JUMPI PUSH1 0x7F DUP3 AND SWAP2 POP JUMPDEST PUSH1 0x20 DUP3 LT DUP2 SUB PUSH3 0x2D2 JUMPI PUSH3 0x2D1 PUSH3 0x277 JUMP JUMPDEST JUMPDEST POP SWAP2 SWAP1 POP JUMP JUMPDEST PUSH0 DUP2 SWAP1 POP DUP2 PUSH0 MSTORE PUSH1 0x20 PUSH0 KECCAK256 SWAP1 POP SWAP2 SWAP1 POP JUMP JUMPDEST PUSH0 PUSH1 0x20 PUSH1 0x1F DUP4 ADD DIV SWAP1 POP SWAP2 SWAP1 POP JUMP JUMPDEST PUSH0 DUP3 DUP3 SHL SWAP1 POP SWAP3 SWAP2 POP POP JUMP JUMPDEST PUSH0 PUSH1 0x8 DUP4 MUL PUSH3 0x336 PUSH32 0xFFFFFFFFFFFFFFFFFFFFFFFFFFFFFFFFFFFFFFFFFFFFFFFFFFFFFFFFFFFFFFFF DUP3 PUSH3 0x2F9 JUMP JUMPDEST PUSH3 0x342 DUP7 DUP4 PUSH3 0x2F9 JUMP JUMPDEST SWAP6 POP DUP1 NOT DUP5 AND SWAP4 POP DUP1 DUP7 AND DUP5 OR SWAP3 POP POP POP SWAP4 SWAP3 POP POP POP JUMP JUMPDEST PUSH0 DUP2 SWAP1 POP SWAP2 SWAP1 POP JUMP JUMPDEST PUSH0 DUP2 SWAP1 POP SWAP2 SWAP1 POP JUMP JUMPDEST PUSH0 PUSH3 0x38C PUSH3 0x386 PUSH3 0x380 DUP5 PUSH3 0x35A JUMP JUMPDEST PUSH3 0x363 JUMP JUMPDEST PUSH3 0x35A JUMP JUMPDEST SWAP1 POP SWAP2 SWAP1 POP JUMP JUMPDEST PUSH0 DUP2 SWAP1 POP SWAP2 SWAP1 POP JUMP JUMPDEST PUSH3 0x3A7 DUP4 PUSH3 0x36C JUMP JUMPDEST PUSH3 0x3BF PUSH3 0x3B6 DUP3 PUSH3 0x393 JUMP JUMPDEST DUP5 DUP5 SLOAD PUSH3 0x305 JUMP JUMPDEST DUP3 SSTORE POP POP POP POP JUMP JUMPDEST PUSH0 SWAP1 JUMP JUMPDEST PUSH3 0x3D5 PUSH3 0x3C7 JUMP JUMPDEST PUSH3 0x3E2 DUP2 DUP5 DUP5 PUSH3 0x39C JUMP JUMPDEST POP POP POP JUMP JUMPDEST JUMPDEST DUP2 DUP2 LT ISZERO PUSH3 0x409 JUMPI PUSH3 0x3FD PUSH0 DUP3 PUSH3 0x3CB JUMP JUMPDEST PUSH1 0x1 DUP2 ADD SWAP1 POP PUSH3 0x3E8 JUMP JUMPDEST POP POP JUMP JUMPDEST PUSH1 0x1F DUP3 GT ISZERO PUSH3 0x458 JUMPI PUSH3 0x422 DUP2 PUSH3 0x2D8 JUMP JUMPDEST PUSH3 0x42D DUP5 PUSH3 0x2EA JUMP JUMPDEST DUP2 ADD PUSH1 0x20 DUP6 LT ISZERO PUSH3 0x43D JUMPI DUP2 SWAP1 POP JUMPDEST PUSH3 0x455 PUSH3 0x44C DUP6 PUSH3 0x2EA JUMP JUMPDEST DUP4 ADD DUP3 PUSH3 0x3E7 JUMP JUMPDEST POP POP JUMPDEST POP POP POP JUMP JUMPDEST PUSH0 DUP3 DUP3 SHR SWAP1 POP SWAP3 SWAP2 POP POP JUMP JUMPDEST PUSH0 PUSH3 0x47A PUSH0 NOT DUP5 PUSH1 0x8 MUL PUSH3 0x45D JUMP JUMPDEST NOT DUP1 DUP4 AND SWAP2 POP POP SWAP3 SWAP2 POP POP JUMP JUMPDEST PUSH0 PUSH3 0x494 DUP4 DUP4 PUSH3 0x469 JUMP JUMPDEST SWAP2 POP DUP3 PUSH1 0x2 MUL DUP3 OR SWAP1 POP SWAP3 SWAP2 POP POP JUMP JUMPDEST PUSH3 0x4AF DUP3 PUSH3 0x26D JUMP JUMPDEST PUSH8 0xFFFFFFFFFFFFFFFF DUP2 GT ISZERO PUSH3 0x4CB JUMPI PUSH3 0x4CA PUSH3 0x8E JUMP JUMPDEST JUMPDEST PUSH3 0x4D7 DUP3 SLOAD PUSH3 0x2A4 JUMP JUMPDEST PUSH3 0x4E4 DUP3 DUP3 DUP6 PUSH3 0x40D JUMP JUMPDEST PUSH0 PUSH1 0x20 SWAP1 POP PUSH1 0x1F DUP4 GT PUSH1 0x1 DUP2 EQ PUSH3 0x51A JUMPI PUSH0 DUP5 ISZERO PUSH3 0x505 JUMPI DUP3 DUP8 ADD MLOAD SWAP1 POP JUMPDEST PUSH3 0x511 DUP6 DUP3 PUSH3 0x487 JUMP JUMPDEST DUP7 SSTORE POP PUSH3 0x580 JUMP JUMPDEST PUSH1 0x1F NOT DUP5 AND PUSH3 0x52A DUP7 PUSH3 0x2D8 JUMP JUMPDEST PUSH0 JUMPDEST DUP3 DUP2 LT ISZERO PUSH3 0x553 JUMPI DUP5 DUP10 ADD MLOAD DUP3 SSTORE PUSH1 0x1 DUP3 ADD SWAP2 POP PUSH1 0x20 DUP6 ADD SWAP5 POP PUSH1 0x20 DUP2 ADD SWAP1 POP PUSH3 0x52C JUMP JUMPDEST DUP7 DUP4 LT ISZERO PUSH3 0x573 JUMPI DUP5 DUP10 ADD MLOAD PUSH3 0x56F PUSH1 0x1F DUP10 AND DUP3 PUSH3 0x469 JUMP JUMPDEST DUP4 SSTORE POP JUMPDEST PUSH1 0x1 PUSH1 0x2 DUP9 MUL ADD DUP9 SSTORE POP POP POP JUMPDEST POP POP POP POP POP POP JUMP JUMPDEST PUSH2 0x1F8C DUP1 PUSH3 0x596 PUSH0 CODECOPY PUSH0 RETURN INVALID PUSH1 0x80 PUSH1 0x40 MSTORE CALLVALUE DUP1 ISZERO PUSH2 0xF JUMPI PUSH0 DUP1 REVERT JUMPDEST POP PUSH1 0x4 CALLDATASIZE LT PUSH2 0xF3 JUMPI PUSH0 CALLDATALOAD PUSH1 0xE0 SHR DUP1 PUSH4 0x6352211E GT PUSH2 0x95 JUMPI DUP1 PUSH4 0xB88D4FDE GT PUSH2 0x64 JUMPI DUP1 PUSH4 0xB88D4FDE EQ PUSH2 0x27F JUMPI DUP1 PUSH4 0xC87B56DD EQ PUSH2 0x29B JUMPI DUP1 PUSH4 0xE2C4C4B2 EQ PUSH2 0x2CB JUMPI DUP1 PUSH4 0xE985E9C5 EQ PUSH2 0x2E7 JUMPI PUSH2 0xF3 JUMP JUMPDEST DUP1 PUSH4 0x6352211E EQ PUSH2 0x1E5 JUMPI DUP1 PUSH4 0x70A08231 EQ PUSH2 0x215 JUMPI DUP1 PUSH4 0x95D89B41 EQ PUSH2 0x245 JUMPI DUP1 PUSH4 0xA22CB465 EQ PUSH2 0x263 JUMPI PUSH2 0xF3 JUMP JUMPDEST DUP1 PUSH4 0x95EA7B3 GT PUSH2 0xD1 JUMPI DUP1 PUSH4 0x95EA7B3 EQ PUSH2 0x175 JUMPI DUP1 PUSH4 0x23B872DD EQ PUSH2 0x191 JUMPI DUP1 PUSH4 0x29D6724E EQ PUSH2 0x1AD JUMPI DUP1 PUSH4 0x42842E0E EQ PUSH2 0x1C9 JUMPI PUSH2 0xF3 JUMP JUMPDEST DUP1 PUSH4 0x1FFC9A7 EQ PUSH2 0xF7 JUMPI DUP1 PUSH4 0x6FDDE03 EQ PUSH2 0x127 JUMPI DUP1 PUSH4 0x81812FC EQ PUSH2 0x145 JUMPI JUMPDEST PUSH0 DUP1 REVERT JUMPDEST PUSH2 0x111 PUSH1 0x4 DUP1 CALLDATASIZE SUB DUP2 ADD SWAP1 PUSH2 0x10C SWAP2 SWAP1 PUSH2 0x148B JUMP JUMPDEST PUSH2 0x317 JUMP JUMPDEST PUSH1 0x40 MLOAD PUSH2 0x11E SWAP2 SWAP1 PUSH2 0x14D0 JUMP JUMPDEST PUSH1 0x40 MLOAD DUP1 SWAP2 SUB SWAP1 RETURN JUMPDEST PUSH2 0x12F PUSH2 0x3F8 JUMP JUMPDEST PUSH1 0x40 MLOAD PUSH2 0x13C SWAP2 SWAP1 PUSH2 0x1573 JUMP JUMPDEST PUSH1 0x40 MLOAD DUP1 SWAP2 SUB SWAP1 RETURN JUMPDEST PUSH2 0x15F PUSH1 0x4 DUP1 CALLDATASIZE SUB DUP2 ADD SWAP1 PUSH2 0x15A SWAP2 SWAP1 PUSH2 0x15C6 JUMP JUMPDEST PUSH2 0x487 JUMP JUMPDEST PUSH1 0x40 MLOAD PUSH2 0x16C SWAP2 SWAP1 PUSH2 0x1630 JUMP JUMPDEST PUSH1 0x40 MLOAD DUP1 SWAP2 SUB SWAP1 RETURN JUMPDEST PUSH2 0x18F PUSH1 0x4 DUP1 CALLDATASIZE SUB DUP2 ADD SWAP1 PUSH2 0x18A SWAP2 SWAP1 PUSH2 0x1673 JUMP JUMPDEST PUSH2 0x4A2 JUMP JUMPDEST STOP JUMPDEST PUSH2 0x1AB PUSH1 0x4 DUP1 CALLDATASIZE SUB DUP2 ADD SWAP1 PUSH2 0x1A6 SWAP2 SWAP1 PUSH2 0x16B1 JUMP JUMPDEST PUSH2 0x4B8 JUMP JUMPDEST STOP JUMPDEST PUSH2 0x1C7 PUSH1 0x4 DUP1 CALLDATASIZE SUB DUP2 ADD SWAP1 PUSH2 0x1C2 SWAP2 SWAP1 PUSH2 0x172B JUMP JUMPDEST PUSH2 0x5B7 JUMP JUMPDEST STOP JUMPDEST PUSH2 0x1E3 PUSH1 0x4 DUP1 CALLDATASIZE SUB DUP2 ADD SWAP1 PUSH2 0x1DE SWAP2 SWAP1 PUSH2 0x16B1 JUMP JUMPDEST PUSH2 0x5C7 JUMP JUMPDEST STOP JUMPDEST PUSH2 0x1FF PUSH1 0x4 DUP1 CALLDATASIZE SUB DUP2 ADD SWAP1 PUSH2 0x1FA SWAP2 SWAP1 PUSH2 0x15C6 JUMP JUMPDEST PUSH2 0x5E6 JUMP JUMPDEST PUSH1 0x40 MLOAD PUSH2 0x20C SWAP2 SWAP1 PUSH2 0x1630 JUMP JUMPDEST PUSH1 0x40 MLOAD DUP1 SWAP2 SUB SWAP1 RETURN JUMPDEST PUSH2 0x22F PUSH1 0x4 DUP1 CALLDATASIZE SUB DUP2 ADD SWAP1 PUSH2 0x22A SWAP2 SWAP1 PUSH2 0x177B JUMP JUMPDEST PUSH2 0x5F7 JUMP JUMPDEST PUSH1 0x40 MLOAD PUSH2 0x23C SWAP2 SWAP1 PUSH2 0x17B5 JUMP JUMPDEST PUSH1 0x40 MLOAD DUP1 SWAP2 SUB SWAP1 RETURN JUMPDEST PUSH2 0x24D PUSH2 0x6AD JUMP JUMPDEST PUSH1 0x40 MLOAD PUSH2 0x25A SWAP2 SWAP1 PUSH2 0x1573 JUMP JUMPDEST PUSH1 0x40 MLOAD DUP1 SWAP2 SUB SWAP1 RETURN JUMPDEST PUSH2 0x27D PUSH1 0x4 DUP1 CALLDATASIZE SUB DUP2 ADD SWAP1 PUSH2 0x278 SWAP2 SWAP1 PUSH2 0x17CE JUMP JUMPDEST PUSH2 0x73D JUMP JUMPDEST STOP JUMPDEST PUSH2 0x299 PUSH1 0x4 DUP1 CALLDATASIZE SUB DUP2 ADD SWAP1 PUSH2 0x294 SWAP2 SWAP1 PUSH2 0x1938 JUMP JUMPDEST PUSH2 0x753 JUMP JUMPDEST STOP JUMPDEST PUSH2 0x2B5 PUSH1 0x4 DUP1 CALLDATASIZE SUB DUP2 ADD SWAP1 PUSH2 0x2B0 SWAP2 SWAP1 PUSH2 0x15C6 JUMP JUMPDEST PUSH2 0x770 JUMP JUMPDEST PUSH1 0x40 MLOAD PUSH2 0x2C2 SWAP2 SWAP1 PUSH2 0x1573 JUMP JUMPDEST PUSH1 0x40 MLOAD DUP1 SWAP2 SUB SWAP1 RETURN JUMPDEST PUSH2 0x2E5 PUSH1 0x4 DUP1 CALLDATASIZE SUB DUP2 ADD SWAP1 PUSH2 0x2E0 SWAP2 SWAP1 PUSH2 0x1A56 JUMP JUMPDEST PUSH2 0x887 JUMP JUMPDEST STOP JUMPDEST PUSH2 0x301 PUSH1 0x4 DUP1 CALLDATASIZE SUB DUP2 ADD SWAP1 PUSH2 0x2FC SWAP2 SWAP1 PUSH2 0x1AB0 JUMP JUMPDEST PUSH2 0x89F JUMP JUMPDEST PUSH1 0x40 MLOAD PUSH2 0x30E SWAP2 SWAP1 PUSH2 0x14D0 JUMP JUMPDEST PUSH1 0x40 MLOAD DUP1 SWAP2 SUB SWAP1 RETURN JUMPDEST PUSH0 PUSH32 0x80AC58CD00000000000000000000000000000000000000000000000000000000 PUSH28 0xFFFFFFFFFFFFFFFFFFFFFFFFFFFFFFFFFFFFFFFFFFFFFFFFFFFFFFFF NOT AND DUP3 PUSH28 0xFFFFFFFFFFFFFFFFFFFFFFFFFFFFFFFFFFFFFFFFFFFFFFFFFFFFFFFF NOT AND EQ DUP1 PUSH2 0x3E1 JUMPI POP PUSH32 0x5B5E139F00000000000000000000000000000000000000000000000000000000 PUSH28 0xFFFFFFFFFFFFFFFFFFFFFFFFFFFFFFFFFFFFFFFFFFFFFFFFFFFFFFFF NOT AND DUP3 PUSH28 0xFFFFFFFFFFFFFFFFFFFFFFFFFFFFFFFFFFFFFFFFFFFFFFFFFFFFFFFF NOT AND EQ JUMPDEST DUP1 PUSH2 0x3F1 JUMPI POP PUSH2 0x3F0 DUP3 PUSH2 0x92D JUMP JUMPDEST JUMPDEST SWAP1 POP SWAP2 SWAP1 POP JUMP JUMPDEST PUSH1 0x60 PUSH0 DUP1 SLOAD PUSH2 0x406 SWAP1 PUSH2 0x1B1B JUMP JUMPDEST DUP1 PUSH1 0x1F ADD PUSH1 0x20 DUP1 SWAP2 DIV MUL PUSH1 0x20 ADD PUSH1 0x40 MLOAD SWAP1 DUP2 ADD PUSH1 0x40 MSTORE DUP1 SWAP3 SWAP2 SWAP1 DUP2 DUP2 MSTORE PUSH1 0x20 ADD DUP3 DUP1 SLOAD PUSH2 0x432 SWAP1 PUSH2 0x1B1B JUMP JUMPDEST DUP1 ISZERO PUSH2 0x47D JUMPI DUP1 PUSH1 0x1F LT PUSH2 0x454 JUMPI PUSH2 0x100 DUP1 DUP4 SLOAD DIV MUL DUP4 MSTORE SWAP2 PUSH1 0x20 ADD SWAP2 PUSH2 0x47D JUMP JUMPDEST DUP3 ADD SWAP2 SWAP1 PUSH0 MSTORE PUSH1 0x20 PUSH0 KECCAK256 SWAP1 JUMPDEST DUP2 SLOAD DUP2 MSTORE SWAP1 PUSH1 0x1 ADD SWAP1 PUSH1 0x20 ADD DUP1 DUP4 GT PUSH2 0x460 JUMPI DUP3 SWAP1 SUB PUSH1 0x1F AND DUP3 ADD SWAP2 JUMPDEST POP POP POP POP POP SWAP1 POP SWAP1 JUMP JUMPDEST PUSH0 PUSH2 0x491 DUP3 PUSH2 0x996 JUMP JUMPDEST POP PUSH2 0x49B DUP3 PUSH2 0xA1C JUMP JUMPDEST SWAP1 POP SWAP2 SWAP1 POP JUMP JUMPDEST PUSH2 0x4B4 DUP3 DUP3 PUSH2 0x4AF PUSH2 0xA55 JUMP JUMPDEST PUSH2 0xA5C JUMP JUMPDEST POP POP JUMP JUMPDEST PUSH0 PUSH20 0xFFFFFFFFFFFFFFFFFFFFFFFFFFFFFFFFFFFFFFFF AND DUP3 PUSH20 0xFFFFFFFFFFFFFFFFFFFFFFFFFFFFFFFFFFFFFFFF AND SUB PUSH2 0x528 JUMPI PUSH0 PUSH1 0x40 MLOAD PUSH32 0x64A0AE9200000000000000000000000000000000000000000000000000000000 DUP2 MSTORE PUSH1 0x4 ADD PUSH2 0x51F SWAP2 SWAP1 PUSH2 0x1630 JUMP JUMPDEST PUSH1 0x40 MLOAD DUP1 SWAP2 SUB SWAP1 REVERT JUMPDEST PUSH0 PUSH2 0x53B DUP4 DUP4 PUSH2 0x536 PUSH2 0xA55 JUMP JUMPDEST PUSH2 0xA6E JUMP JUMPDEST SWAP1 POP DUP4 PUSH20 0xFFFFFFFFFFFFFFFFFFFFFFFFFFFFFFFFFFFFFFFF AND DUP2 PUSH20 0xFFFFFFFFFFFFFFFFFFFFFFFFFFFFFFFFFFFFFFFF AND EQ PUSH2 0x5B1 JUMPI DUP4 DUP3 DUP3 PUSH1 0x40 MLOAD PUSH32 0x64283D7B00000000000000000000000000000000000000000000000000000000 DUP2 MSTORE PUSH1 0x4 ADD PUSH2 0x5A8 SWAP4 SWAP3 SWAP2 SWAP1 PUSH2 0x1B4B JUMP JUMPDEST PUSH1 0x40 MLOAD DUP1 SWAP2 SUB SWAP1 REVERT JUMPDEST POP POP POP POP JUMP JUMPDEST PUSH2 0x5C2 DUP4 DUP4 DUP4 PUSH2 0xC79 JUMP JUMPDEST POP POP POP JUMP JUMPDEST PUSH2 0x5E1 DUP4 DUP4 DUP4 PUSH1 0x40 MLOAD DUP1 PUSH1 0x20 ADD PUSH1 0x40 MSTORE DUP1 PUSH0 DUP2 MSTORE POP PUSH2 0x753 JUMP JUMPDEST POP POP POP JUMP JUMPDEST PUSH0 PUSH2 0x5F0 DUP3 PUSH2 0x996 JUMP JUMPDEST SWAP1 POP SWAP2 SWAP1 POP JUMP JUMPDEST PUSH0 DUP1 PUSH20 0xFFFFFFFFFFFFFFFFFFFFFFFFFFFFFFFFFFFFFFFF AND DUP3 PUSH20 0xFFFFFFFFFFFFFFFFFFFFFFFFFFFFFFFFFFFFFFFF AND SUB PUSH2 0x668 JUMPI PUSH0 PUSH1 0x40 MLOAD PUSH32 0x89C62B6400000000000000000000000000000000000000000000000000000000 DUP2 MSTORE PUSH1 0x4 ADD PUSH2 0x65F SWAP2 SWAP1 PUSH2 0x1630 JUMP JUMPDEST PUSH1 0x40 MLOAD DUP1 SWAP2 SUB SWAP1 REVERT JUMPDEST PUSH1 0x3 PUSH0 DUP4 PUSH20 0xFFFFFFFFFFFFFFFFFFFFFFFFFFFFFFFFFFFFFFFF AND PUSH20 0xFFFFFFFFFFFFFFFFFFFFFFFFFFFFFFFFFFFFFFFF AND DUP2 MSTORE PUSH1 0x20 ADD SWAP1 DUP2 MSTORE PUSH1 0x20 ADD PUSH0 KECCAK256 SLOAD SWAP1 POP SWAP2 SWAP1 POP JUMP JUMPDEST PUSH1 0x60 PUSH1 0x1 DUP1 SLOAD PUSH2 0x6BC SWAP1 PUSH2 0x1B1B JUMP JUMPDEST DUP1 PUSH1 0x1F ADD PUSH1 0x20 DUP1 SWAP2 DIV MUL PUSH1 0x20 ADD PUSH1 0x40 MLOAD SWAP1 DUP2 ADD PUSH1 0x40 MSTORE DUP1 SWAP3 SWAP2 SWAP1 DUP2 DUP2 MSTORE PUSH1 0x20 ADD DUP3 DUP1 SLOAD PUSH2 0x6E8 SWAP1 PUSH2 0x1B1B JUMP JUMPDEST DUP1 ISZERO PUSH2 0x733 JUMPI DUP1 PUSH1 0x1F LT PUSH2 0x70A JUMPI PUSH2 0x100 DUP1 DUP4 SLOAD DIV MUL DUP4 MSTORE SWAP2 PUSH1 0x20 ADD SWAP2 PUSH2 0x733 JUMP JUMPDEST DUP3 ADD SWAP2 SWAP1 PUSH0 MSTORE PUSH1 0x20 PUSH0 KECCAK256 SWAP1 JUMPDEST DUP2 SLOAD DUP2 MSTORE SWAP1 PUSH1 0x1 ADD SWAP1 PUSH1 0x20 ADD DUP1 DUP4 GT PUSH2 0x716 JUMPI DUP3 SWAP1 SUB PUSH1 0x1F AND DUP3 ADD SWAP2 JUMPDEST POP POP POP POP POP SWAP1 POP SWAP1 JUMP JUMPDEST PUSH2 0x74F PUSH2 0x748 PUSH2 0xA55 JUMP JUMPDEST DUP4 DUP4 PUSH2 0xC79 JUMP JUMPDEST POP POP JUMP JUMPDEST PUSH2 0x75E DUP5 DUP5 DUP5 PUSH2 0x4B8 JUMP JUMPDEST PUSH2 0x76A DUP5 DUP5 DUP5 DUP5 PUSH2 0xDE2 JUMP JUMPDEST POP POP POP POP JUMP JUMPDEST PUSH1 0x60 PUSH0 PUSH20 0xFFFFFFFFFFFFFFFFFFFFFFFFFFFFFFFFFFFFFFFF AND PUSH2 0x792 DUP4 PUSH2 0x5E6 JUMP JUMPDEST PUSH20 0xFFFFFFFFFFFFFFFFFFFFFFFFFFFFFFFFFFFFFFFF AND SUB PUSH2 0x7E8 JUMPI PUSH1 0x40 MLOAD PUSH32 0x8C379A000000000000000000000000000000000000000000000000000000000 DUP2 MSTORE PUSH1 0x4 ADD PUSH2 0x7DF SWAP1 PUSH2 0x1BCA JUMP JUMPDEST PUSH1 0x40 MLOAD DUP1 SWAP2 SUB SWAP1 REVERT JUMPDEST PUSH1 0x6 PUSH0 DUP4 DUP2 MSTORE PUSH1 0x20 ADD SWAP1 DUP2 MSTORE PUSH1 0x20 ADD PUSH0 KECCAK256 DUP1 SLOAD PUSH2 0x804 SWAP1 PUSH2 0x1B1B JUMP JUMPDEST DUP1 PUSH1 0x1F ADD PUSH1 0x20 DUP1 SWAP2 DIV MUL PUSH1 0x20 ADD PUSH1 0x40 MLOAD SWAP1 DUP2 ADD PUSH1 0x40 MSTORE DUP1 SWAP3 SWAP2 SWAP1 DUP2 DUP2 MSTORE PUSH1 0x20 ADD DUP3 DUP1 SLOAD PUSH2 0x830 SWAP1 PUSH2 0x1B1B JUMP JUMPDEST DUP1 ISZERO PUSH2 0x87B JUMPI DUP1 PUSH1 0x1F LT PUSH2 0x852 JUMPI PUSH2 0x100 DUP1 DUP4 SLOAD DIV MUL DUP4 MSTORE SWAP2 PUSH1 0x20 ADD SWAP2 PUSH2 0x87B JUMP JUMPDEST DUP3 ADD SWAP2 SWAP1 PUSH0 MSTORE PUSH1 0x20 PUSH0 KECCAK256 SWAP1 JUMPDEST DUP2 SLOAD DUP2 MSTORE SWAP1 PUSH1 0x1 ADD SWAP1 PUSH1 0x20 ADD DUP1 DUP4 GT PUSH2 0x85E JUMPI DUP3 SWAP1 SUB PUSH1 0x1F AND DUP3 ADD SWAP2 JUMPDEST POP POP POP POP POP SWAP1 POP SWAP2 SWAP1 POP JUMP JUMPDEST PUSH2 0x891 CALLER DUP4 PUSH2 0xF94 JUMP JUMPDEST PUSH2 0x89B DUP3 DUP3 PUSH2 0x1087 JUMP JUMPDEST POP POP JUMP JUMPDEST PUSH0 PUSH1 0x5 PUSH0 DUP5 PUSH20 0xFFFFFFFFFFFFFFFFFFFFFFFFFFFFFFFFFFFFFFFF AND PUSH20 0xFFFFFFFFFFFFFFFFFFFFFFFFFFFFFFFFFFFFFFFF AND DUP2 MSTORE PUSH1 0x20 ADD SWAP1 DUP2 MSTORE PUSH1 0x20 ADD PUSH0 KECCAK256 PUSH0 DUP4 PUSH20 0xFFFFFFFFFFFFFFFFFFFFFFFFFFFFFFFFFFFFFFFF AND PUSH20 0xFFFFFFFFFFFFFFFFFFFFFFFFFFFFFFFFFFFFFFFF AND DUP2 MSTORE PUSH1 0x20 ADD SWAP1 DUP2 MSTORE PUSH1 0x20 ADD PUSH0 KECCAK256 PUSH0 SWAP1 SLOAD SWAP1 PUSH2 0x100 EXP SWAP1 DIV PUSH1 0xFF AND SWAP1 POP SWAP3 SWAP2 POP POP JUMP JUMPDEST PUSH0 PUSH32 0x1FFC9A700000000000000000000000000000000000000000000000000000000 PUSH28 0xFFFFFFFFFFFFFFFFFFFFFFFFFFFFFFFFFFFFFFFFFFFFFFFFFFFFFFFF NOT AND DUP3 PUSH28 0xFFFFFFFFFFFFFFFFFFFFFFFFFFFFFFFFFFFFFFFFFFFFFFFFFFFFFFFF NOT AND EQ SWAP1 POP SWAP2 SWAP1 POP JUMP JUMPDEST PUSH0 DUP1 PUSH2 0x9A1 DUP4 PUSH2 0x10AA JUMP JUMPDEST SWAP1 POP PUSH0 PUSH20 0xFFFFFFFFFFFFFFFFFFFFFFFFFFFFFFFFFFFFFFFF AND DUP2 PUSH20 0xFFFFFFFFFFFFFFFFFFFFFFFFFFFFFFFFFFFFFFFF AND SUB PUSH2 0xA13 JUMPI DUP3 PUSH1 0x40 MLOAD PUSH32 0x7E27328900000000000000000000000000000000000000000000000000000000 DUP2 MSTORE PUSH1 0x4 ADD PUSH2 0xA0A SWAP2 SWAP1 PUSH2 0x17B5 JUMP JUMPDEST PUSH1 0x40 MLOAD DUP1 SWAP2 SUB SWAP1 REVERT JUMPDEST DUP1 SWAP2 POP POP SWAP2 SWAP1 POP JUMP JUMPDEST PUSH0 PUSH1 0x4 PUSH0 DUP4 DUP2 MSTORE PUSH1 0x20 ADD SWAP1 DUP2 MSTORE PUSH1 0x20 ADD PUSH0 KECCAK256 PUSH0 SWAP1 SLOAD SWAP1 PUSH2 0x100 EXP SWAP1 DIV PUSH20 0xFFFFFFFFFFFFFFFFFFFFFFFFFFFFFFFFFFFFFFFF AND SWAP1 POP SWAP2 SWAP1 POP JUMP JUMPDEST PUSH0 CALLER SWAP1 POP SWAP1 JUMP JUMPDEST PUSH2 0xA69 DUP4 DUP4 DUP4 PUSH1 0x1 PUSH2 0x10E3 JUMP JUMPDEST POP POP POP JUMP JUMPDEST PUSH0 DUP1 PUSH2 0xA79 DUP5 PUSH2 0x10AA JUMP JUMPDEST SWAP1 POP PUSH0 PUSH20 0xFFFFFFFFFFFFFFFFFFFFFFFFFFFFFFFFFFFFFFFF AND DUP4 PUSH20 0xFFFFFFFFFFFFFFFFFFFFFFFFFFFFFFFFFFFFFFFF AND EQ PUSH2 0xABA JUMPI PUSH2 0xAB9 DUP2 DUP5 DUP7 PUSH2 0x12A2 JUMP JUMPDEST JUMPDEST PUSH0 PUSH20 0xFFFFFFFFFFFFFFFFFFFFFFFFFFFFFFFFFFFFFFFF AND DUP2 PUSH20 0xFFFFFFFFFFFFFFFFFFFFFFFFFFFFFFFFFFFFFFFF AND EQ PUSH2 0xB45 JUMPI PUSH2 0xAF9 PUSH0 DUP6 PUSH0 DUP1 PUSH2 0x10E3 JUMP JUMPDEST PUSH1 0x1 PUSH1 0x3 PUSH0 DUP4 PUSH20 0xFFFFFFFFFFFFFFFFFFFFFFFFFFFFFFFFFFFFFFFF AND PUSH20 0xFFFFFFFFFFFFFFFFFFFFFFFFFFFFFFFFFFFFFFFF AND DUP2 MSTORE PUSH1 0x20 ADD SWAP1 DUP2 MSTORE PUSH1 0x20 ADD PUSH0 KECCAK256 PUSH0 DUP3 DUP3 SLOAD SUB SWAP3 POP POP DUP2 SWAP1 SSTORE POP JUMPDEST PUSH0 PUSH20 0xFFFFFFFFFFFFFFFFFFFFFFFFFFFFFFFFFFFFFFFF AND DUP6 PUSH20 0xFFFFFFFFFFFFFFFFFFFFFFFFFFFFFFFFFFFFFFFF AND EQ PUSH2 0xBC4 JUMPI PUSH1 0x1 PUSH1 0x3 PUSH0 DUP8 PUSH20 0xFFFFFFFFFFFFFFFFFFFFFFFFFFFFFFFFFFFFFFFF AND PUSH20 0xFFFFFFFFFFFFFFFFFFFFFFFFFFFFFFFFFFFFFFFF AND DUP2 MSTORE PUSH1 0x20 ADD SWAP1 DUP2 MSTORE PUSH1 0x20 ADD PUSH0 KECCAK256 PUSH0 DUP3 DUP3 SLOAD ADD SWAP3 POP POP DUP2 SWAP1 SSTORE POP JUMPDEST DUP5 PUSH1 0x2 PUSH0 DUP7 DUP2 MSTORE PUSH1 0x20 ADD SWAP1 DUP2 MSTORE PUSH1 0x20 ADD PUSH0 KECCAK256 PUSH0 PUSH2 0x100 EXP DUP2 SLOAD DUP2 PUSH20 0xFFFFFFFFFFFFFFFFFFFFFFFFFFFFFFFFFFFFFFFF MUL NOT AND SWAP1 DUP4 PUSH20 0xFFFFFFFFFFFFFFFFFFFFFFFFFFFFFFFFFFFFFFFF AND MUL OR SWAP1 SSTORE POP DUP4 DUP6 PUSH20 0xFFFFFFFFFFFFFFFFFFFFFFFFFFFFFFFFFFFFFFFF AND DUP3 PUSH20 0xFFFFFFFFFFFFFFFFFFFFFFFFFFFFFFFFFFFFFFFF AND PUSH32 0xDDF252AD1BE2C89B69C2B068FC378DAA952BA7F163C4A11628F55A4DF523B3EF PUSH1 0x40 MLOAD PUSH1 0x40 MLOAD DUP1 SWAP2 SUB SWAP1 LOG4 DUP1 SWAP2 POP POP SWAP4 SWAP3 POP POP POP JUMP JUMPDEST PUSH0 PUSH20 0xFFFFFFFFFFFFFFFFFFFFFFFFFFFFFFFFFFFFFFFF AND DUP3 PUSH20 0xFFFFFFFFFFFFFFFFFFFFFFFFFFFFFFFFFFFFFFFF AND SUB PUSH2 0xCE9 JUMPI DUP2 PUSH1 0x40 MLOAD PUSH32 0x5B08BA1800000000000000000000000000000000000000000000000000000000 DUP2 MSTORE PUSH1 0x4 ADD PUSH2 0xCE0 SWAP2 SWAP1 PUSH2 0x1630 JUMP JUMPDEST PUSH1 0x40 MLOAD DUP1 SWAP2 SUB SWAP1 REVERT JUMPDEST DUP1 PUSH1 0x5 PUSH0 DUP6 PUSH20 0xFFFFFFFFFFFFFFFFFFFFFFFFFFFFFFFFFFFFFFFF AND PUSH20 0xFFFFFFFFFFFFFFFFFFFFFFFFFFFFFFFFFFFFFFFF AND DUP2 MSTORE PUSH1 0x20 ADD SWAP1 DUP2 MSTORE PUSH1 0x20 ADD PUSH0 KECCAK256 PUSH0 DUP5 PUSH20 0xFFFFFFFFFFFFFFFFFFFFFFFFFFFFFFFFFFFFFFFF AND PUSH20 0xFFFFFFFFFFFFFFFFFFFFFFFFFFFFFFFFFFFFFFFF AND DUP2 MSTORE PUSH1 0x20 ADD SWAP1 DUP2 MSTORE PUSH1 0x20 ADD PUSH0 KECCAK256 PUSH0 PUSH2 0x100 EXP DUP2 SLOAD DUP2 PUSH1 0xFF MUL NOT AND SWAP1 DUP4 ISZERO ISZERO MUL OR SWAP1 SSTORE POP DUP2 PUSH20 0xFFFFFFFFFFFFFFFFFFFFFFFFFFFFFFFFFFFFFFFF AND DUP4 PUSH20 0xFFFFFFFFFFFFFFFFFFFFFFFFFFFFFFFFFFFFFFFF AND PUSH32 0x17307EAB39AB6107E8899845AD3D59BD9653F200F220920489CA2B5937696C31 DUP4 PUSH1 0x40 MLOAD PUSH2 0xDD5 SWAP2 SWAP1 PUSH2 0x14D0 JUMP JUMPDEST PUSH1 0x40 MLOAD DUP1 SWAP2 SUB SWAP1 LOG3 POP POP POP JUMP JUMPDEST PUSH0 DUP4 PUSH20 0xFFFFFFFFFFFFFFFFFFFFFFFFFFFFFFFFFFFFFFFF AND EXTCODESIZE GT ISZERO PUSH2 0xF8E JUMPI DUP3 PUSH20 0xFFFFFFFFFFFFFFFFFFFFFFFFFFFFFFFFFFFFFFFF AND PUSH4 0x150B7A02 PUSH2 0xE25 PUSH2 0xA55 JUMP JUMPDEST DUP7 DUP6 DUP6 PUSH1 0x40 MLOAD DUP6 PUSH4 0xFFFFFFFF AND PUSH1 0xE0 SHL DUP2 MSTORE PUSH1 0x4 ADD PUSH2 0xE47 SWAP5 SWAP4 SWAP3 SWAP2 SWAP1 PUSH2 0x1C3A JUMP JUMPDEST PUSH1 0x20 PUSH1 0x40 MLOAD DUP1 DUP4 SUB DUP2 PUSH0 DUP8 GAS CALL SWAP3 POP POP POP DUP1 ISZERO PUSH2 0xE82 JUMPI POP PUSH1 0x40 MLOAD RETURNDATASIZE PUSH1 0x1F NOT PUSH1 0x1F DUP3 ADD AND DUP3 ADD DUP1 PUSH1 0x40 MSTORE POP DUP2 ADD SWAP1 PUSH2 0xE7F SWAP2 SWAP1 PUSH2 0x1C98 JUMP JUMPDEST PUSH1 0x1 JUMPDEST PUSH2 0xF03 JUMPI RETURNDATASIZE DUP1 PUSH0 DUP2 EQ PUSH2 0xEB0 JUMPI PUSH1 0x40 MLOAD SWAP2 POP PUSH1 0x1F NOT PUSH1 0x3F RETURNDATASIZE ADD AND DUP3 ADD PUSH1 0x40 MSTORE RETURNDATASIZE DUP3 MSTORE RETURNDATASIZE PUSH0 PUSH1 0x20 DUP5 ADD RETURNDATACOPY PUSH2 0xEB5 JUMP JUMPDEST PUSH1 0x60 SWAP2 POP JUMPDEST POP PUSH0 DUP2 MLOAD SUB PUSH2 0xEFB JUMPI DUP4 PUSH1 0x40 MLOAD PUSH32 0x64A0AE9200000000000000000000000000000000000000000000000000000000 DUP2 MSTORE PUSH1 0x4 ADD PUSH2 0xEF2 SWAP2 SWAP1 PUSH2 0x1630 JUMP JUMPDEST PUSH1 0x40 MLOAD DUP1 SWAP2 SUB SWAP1 REVERT JUMPDEST DUP1 MLOAD DUP2 PUSH1 0x20 ADD REVERT JUMPDEST PUSH4 0x150B7A02 PUSH1 0xE0 SHL PUSH28 0xFFFFFFFFFFFFFFFFFFFFFFFFFFFFFFFFFFFFFFFFFFFFFFFFFFFFFFFF NOT AND DUP2 PUSH28 0xFFFFFFFFFFFFFFFFFFFFFFFFFFFFFFFFFFFFFFFFFFFFFFFFFFFFFFFF NOT AND EQ PUSH2 0xF8C JUMPI DUP4 PUSH1 0x40 MLOAD PUSH32 0x64A0AE9200000000000000000000000000000000000000000000000000000000 DUP2 MSTORE PUSH1 0x4 ADD PUSH2 0xF83 SWAP2 SWAP1 PUSH2 0x1630 JUMP JUMPDEST PUSH1 0x40 MLOAD DUP1 SWAP2 SUB SWAP1 REVERT JUMPDEST POP JUMPDEST POP POP POP POP JUMP JUMPDEST PUSH0 PUSH20 0xFFFFFFFFFFFFFFFFFFFFFFFFFFFFFFFFFFFFFFFF AND DUP3 PUSH20 0xFFFFFFFFFFFFFFFFFFFFFFFFFFFFFFFFFFFFFFFF AND SUB PUSH2 0x1004 JUMPI PUSH0 PUSH1 0x40 MLOAD PUSH32 0x64A0AE9200000000000000000000000000000000000000000000000000000000 DUP2 MSTORE PUSH1 0x4 ADD PUSH2 0xFFB SWAP2 SWAP1 PUSH2 0x1630 JUMP JUMPDEST PUSH1 0x40 MLOAD DUP1 SWAP2 SUB SWAP1 REVERT JUMPDEST PUSH0 PUSH2 0x1010 DUP4 DUP4 PUSH0 PUSH2 0xA6E JUMP JUMPDEST SWAP1 POP PUSH0 PUSH20 0xFFFFFFFFFFFFFFFFFFFFFFFFFFFFFFFFFFFFFFFF AND DUP2 PUSH20 0xFFFFFFFFFFFFFFFFFFFFFFFFFFFFFFFFFFFFFFFF AND EQ PUSH2 0x1082 JUMPI PUSH0 PUSH1 0x40 MLOAD PUSH32 0x73C6AC6E00000000000000000000000000000000000000000000000000000000 DUP2 MSTORE PUSH1 0x4 ADD PUSH2 0x1079 SWAP2 SWAP1 PUSH2 0x1630 JUMP JUMPDEST PUSH1 0x40 MLOAD DUP1 SWAP2 SUB SWAP1 REVERT JUMPDEST POP POP POP JUMP JUMPDEST DUP1 PUSH1 0x6 PUSH0 DUP5 DUP2 MSTORE PUSH1 0x20 ADD SWAP1 DUP2 MSTORE PUSH1 0x20 ADD PUSH0 KECCAK256 SWAP1 DUP2 PUSH2 0x10A5 SWAP2 SWAP1 PUSH2 0x1E60 JUMP JUMPDEST POP POP POP JUMP JUMPDEST PUSH0 PUSH1 0x2 PUSH0 DUP4 DUP2 MSTORE PUSH1 0x20 ADD SWAP1 DUP2 MSTORE PUSH1 0x20 ADD PUSH0 KECCAK256 PUSH0 SWAP1 SLOAD SWAP1 PUSH2 0x100 EXP SWAP1 DIV PUSH20 0xFFFFFFFFFFFFFFFFFFFFFFFFFFFFFFFFFFFFFFFF AND SWAP1 POP SWAP2 SWAP1 POP JUMP JUMPDEST DUP1 DUP1 PUSH2 0x111B JUMPI POP PUSH0 PUSH20 0xFFFFFFFFFFFFFFFFFFFFFFFFFFFFFFFFFFFFFFFF AND DUP3 PUSH20 0xFFFFFFFFFFFFFFFFFFFFFFFFFFFFFFFFFFFFFFFF AND EQ ISZERO JUMPDEST ISZERO PUSH2 0x124D JUMPI PUSH0 PUSH2 0x112A DUP5 PUSH2 0x996 JUMP JUMPDEST SWAP1 POP PUSH0 PUSH20 0xFFFFFFFFFFFFFFFFFFFFFFFFFFFFFFFFFFFFFFFF AND DUP4 PUSH20 0xFFFFFFFFFFFFFFFFFFFFFFFFFFFFFFFFFFFFFFFF AND EQ ISZERO DUP1 ISZERO PUSH2 0x1194 JUMPI POP DUP3 PUSH20 0xFFFFFFFFFFFFFFFFFFFFFFFFFFFFFFFFFFFFFFFF AND DUP2 PUSH20 0xFFFFFFFFFFFFFFFFFFFFFFFFFFFFFFFFFFFFFFFF AND EQ ISZERO JUMPDEST DUP1 ISZERO PUSH2 0x11A7 JUMPI POP PUSH2 0x11A5 DUP2 DUP5 PUSH2 0x89F JUMP JUMPDEST ISZERO JUMPDEST ISZERO PUSH2 0x11E9 JUMPI DUP3 PUSH1 0x40 MLOAD PUSH32 0xA9FBF51F00000000000000000000000000000000000000000000000000000000 DUP2 MSTORE PUSH1 0x4 ADD PUSH2 0x11E0 SWAP2 SWAP1 PUSH2 0x1630 JUMP JUMPDEST PUSH1 0x40 MLOAD DUP1 SWAP2 SUB SWAP1 REVERT JUMPDEST DUP2 ISZERO PUSH2 0x124B JUMPI DUP4 DUP6 PUSH20 0xFFFFFFFFFFFFFFFFFFFFFFFFFFFFFFFFFFFFFFFF AND DUP3 PUSH20 0xFFFFFFFFFFFFFFFFFFFFFFFFFFFFFFFFFFFFFFFF AND PUSH32 0x8C5BE1E5EBEC7D5BD14F71427D1E84F3DD0314C0F7B2291E5B200AC8C7C3B925 PUSH1 0x40 MLOAD PUSH1 0x40 MLOAD DUP1 SWAP2 SUB SWAP1 LOG4 JUMPDEST POP JUMPDEST DUP4 PUSH1 0x4 PUSH0 DUP6 DUP2 MSTORE PUSH1 0x20 ADD SWAP1 DUP2 MSTORE PUSH1 0x20 ADD PUSH0 KECCAK256 PUSH0 PUSH2 0x100 EXP DUP2 SLOAD DUP2 PUSH20 0xFFFFFFFFFFFFFFFFFFFFFFFFFFFFFFFFFFFFFFFF MUL NOT AND SWAP1 DUP4 PUSH20 0xFFFFFFFFFFFFFFFFFFFFFFFFFFFFFFFFFFFFFFFF AND MUL OR SWAP1 SSTORE POP POP POP POP POP JUMP JUMPDEST PUSH2 0x12AD DUP4 DUP4 DUP4 PUSH2 0x1365 JUMP JUMPDEST PUSH2 0x1360 JUMPI PUSH0 PUSH20 0xFFFFFFFFFFFFFFFFFFFFFFFFFFFFFFFFFFFFFFFF AND DUP4 PUSH20 0xFFFFFFFFFFFFFFFFFFFFFFFFFFFFFFFFFFFFFFFF AND SUB PUSH2 0x1321 JUMPI DUP1 PUSH1 0x40 MLOAD PUSH32 0x7E27328900000000000000000000000000000000000000000000000000000000 DUP2 MSTORE PUSH1 0x4 ADD PUSH2 0x1318 SWAP2 SWAP1 PUSH2 0x17B5 JUMP JUMPDEST PUSH1 0x40 MLOAD DUP1 SWAP2 SUB SWAP1 REVERT JUMPDEST DUP2 DUP2 PUSH1 0x40 MLOAD PUSH32 0x177E802F00000000000000000000000000000000000000000000000000000000 DUP2 MSTORE PUSH1 0x4 ADD PUSH2 0x1357 SWAP3 SWAP2 SWAP1 PUSH2 0x1F2F JUMP JUMPDEST PUSH1 0x40 MLOAD DUP1 SWAP2 SUB SWAP1 REVERT JUMPDEST POP POP POP JUMP JUMPDEST PUSH0 DUP1 PUSH20 0xFFFFFFFFFFFFFFFFFFFFFFFFFFFFFFFFFFFFFFFF AND DUP4 PUSH20 0xFFFFFFFFFFFFFFFFFFFFFFFFFFFFFFFFFFFFFFFF AND EQ ISZERO DUP1 ISZERO PUSH2 0x141C JUMPI POP DUP3 PUSH20 0xFFFFFFFFFFFFFFFFFFFFFFFFFFFFFFFFFFFFFFFF AND DUP5 PUSH20 0xFFFFFFFFFFFFFFFFFFFFFFFFFFFFFFFFFFFFFFFF AND EQ DUP1 PUSH2 0x13DD JUMPI POP PUSH2 0x13DC DUP5 DUP5 PUSH2 0x89F JUMP JUMPDEST JUMPDEST DUP1 PUSH2 0x141B JUMPI POP DUP3 PUSH20 0xFFFFFFFFFFFFFFFFFFFFFFFFFFFFFFFFFFFFFFFF AND PUSH2 0x1403 DUP4 PUSH2 0xA1C JUMP JUMPDEST PUSH20 0xFFFFFFFFFFFFFFFFFFFFFFFFFFFFFFFFFFFFFFFF AND EQ JUMPDEST JUMPDEST SWAP1 POP SWAP4 SWAP3 POP POP POP JUMP JUMPDEST PUSH0 PUSH1 0x40 MLOAD SWAP1 POP SWAP1 JUMP JUMPDEST PUSH0 DUP1 REVERT JUMPDEST PUSH0 DUP1 REVERT JUMPDEST PUSH0 PUSH32 0xFFFFFFFF00000000000000000000000000000000000000000000000000000000 DUP3 AND SWAP1 POP SWAP2 SWAP1 POP JUMP JUMPDEST PUSH2 0x146A DUP2 PUSH2 0x1436 JUMP JUMPDEST DUP2 EQ PUSH2 0x1474 JUMPI PUSH0 DUP1 REVERT JUMPDEST POP JUMP JUMPDEST PUSH0 DUP2 CALLDATALOAD SWAP1 POP PUSH2 0x1485 DUP2 PUSH2 0x1461 JUMP JUMPDEST SWAP3 SWAP2 POP POP JUMP JUMPDEST PUSH0 PUSH1 0x20 DUP3 DUP5 SUB SLT ISZERO PUSH2 0x14A0 JUMPI PUSH2 0x149F PUSH2 0x142E JUMP JUMPDEST JUMPDEST PUSH0 PUSH2 0x14AD DUP5 DUP3 DUP6 ADD PUSH2 0x1477 JUMP JUMPDEST SWAP2 POP POP SWAP3 SWAP2 POP POP JUMP JUMPDEST PUSH0 DUP2 ISZERO ISZERO SWAP1 POP SWAP2 SWAP1 POP JUMP JUMPDEST PUSH2 0x14CA DUP2 PUSH2 0x14B6 JUMP JUMPDEST DUP3 MSTORE POP POP JUMP JUMPDEST PUSH0 PUSH1 0x20 DUP3 ADD SWAP1 POP PUSH2 0x14E3 PUSH0 DUP4 ADD DUP5 PUSH2 0x14C1 JUMP JUMPDEST SWAP3 SWAP2 POP POP JUMP JUMPDEST PUSH0 DUP2 MLOAD SWAP1 POP SWAP2 SWAP1 POP JUMP JUMPDEST PUSH0 DUP3 DUP3 MSTORE PUSH1 0x20 DUP3 ADD SWAP1 POP SWAP3 SWAP2 POP POP JUMP JUMPDEST PUSH0 JUMPDEST DUP4 DUP2 LT ISZERO PUSH2 0x1520 JUMPI DUP1 DUP3 ADD MLOAD DUP2 DUP5 ADD MSTORE PUSH1 0x20 DUP2 ADD SWAP1 POP PUSH2 0x1505 JUMP JUMPDEST PUSH0 DUP5 DUP5 ADD MSTORE POP POP POP POP JUMP JUMPDEST PUSH0 PUSH1 0x1F NOT PUSH1 0x1F DUP4 ADD AND SWAP1 POP SWAP2 SWAP1 POP JUMP JUMPDEST PUSH0 PUSH2 0x1545 DUP3 PUSH2 0x14E9 JUMP JUMPDEST PUSH2 0x154F DUP2 DUP6 PUSH2 0x14F3 JUMP JUMPDEST SWAP4 POP PUSH2 0x155F DUP2 DUP6 PUSH1 0x20 DUP7 ADD PUSH2 0x1503 JUMP JUMPDEST PUSH2 0x1568 DUP2 PUSH2 0x152B JUMP JUMPDEST DUP5 ADD SWAP2 POP POP SWAP3 SWAP2 POP POP JUMP JUMPDEST PUSH0 PUSH1 0x20 DUP3 ADD SWAP1 POP DUP2 DUP2 SUB PUSH0 DUP4 ADD MSTORE PUSH2 0x158B DUP2 DUP5 PUSH2 0x153B JUMP JUMPDEST SWAP1 POP SWAP3 SWAP2 POP POP JUMP JUMPDEST PUSH0 DUP2 SWAP1 POP SWAP2 SWAP1 POP JUMP JUMPDEST PUSH2 0x15A5 DUP2 PUSH2 0x1593 JUMP JUMPDEST DUP2 EQ PUSH2 0x15AF JUMPI PUSH0 DUP1 REVERT JUMPDEST POP JUMP JUMPDEST PUSH0 DUP2 CALLDATALOAD SWAP1 POP PUSH2 0x15C0 DUP2 PUSH2 0x159C JUMP JUMPDEST SWAP3 SWAP2 POP POP JUMP JUMPDEST PUSH0 PUSH1 0x20 DUP3 DUP5 SUB SLT ISZERO PUSH2 0x15DB JUMPI PUSH2 0x15DA PUSH2 0x142E JUMP JUMPDEST JUMPDEST PUSH0 PUSH2 0x15E8 DUP5 DUP3 DUP6 ADD PUSH2 0x15B2 JUMP JUMPDEST SWAP2 POP POP SWAP3 SWAP2 POP POP JUMP JUMPDEST PUSH0 PUSH20 0xFFFFFFFFFFFFFFFFFFFFFFFFFFFFFFFFFFFFFFFF DUP3 AND SWAP1 POP SWAP2 SWAP1 POP JUMP JUMPDEST PUSH0 PUSH2 0x161A DUP3 PUSH2 0x15F1 JUMP JUMPDEST SWAP1 POP SWAP2 SWAP1 POP JUMP JUMPDEST PUSH2 0x162A DUP2 PUSH2 0x1610 JUMP JUMPDEST DUP3 MSTORE POP POP JUMP JUMPDEST PUSH0 PUSH1 0x20 DUP3 ADD SWAP1 POP PUSH2 0x1643 PUSH0 DUP4 ADD DUP5 PUSH2 0x1621 JUMP JUMPDEST SWAP3 SWAP2 POP POP JUMP JUMPDEST PUSH2 0x1652 DUP2 PUSH2 0x1610 JUMP JUMPDEST DUP2 EQ PUSH2 0x165C JUMPI PUSH0 DUP1 REVERT JUMPDEST POP JUMP JUMPDEST PUSH0 DUP2 CALLDATALOAD SWAP1 POP PUSH2 0x166D DUP2 PUSH2 0x1649 JUMP JUMPDEST SWAP3 SWAP2 POP POP JUMP JUMPDEST PUSH0 DUP1 PUSH1 0x40 DUP4 DUP6 SUB SLT ISZERO PUSH2 0x1689 JUMPI PUSH2 0x1688 PUSH2 0x142E JUMP JUMPDEST JUMPDEST PUSH0 PUSH2 0x1696 DUP6 DUP3 DUP7 ADD PUSH2 0x165F JUMP JUMPDEST SWAP3 POP POP PUSH1 0x20 PUSH2 0x16A7 DUP6 DUP3 DUP7 ADD PUSH2 0x15B2 JUMP JUMPDEST SWAP2 POP POP SWAP3 POP SWAP3 SWAP1 POP JUMP JUMPDEST PUSH0 DUP1 PUSH0 PUSH1 0x60 DUP5 DUP7 SUB SLT ISZERO PUSH2 0x16C8 JUMPI PUSH2 0x16C7 PUSH2 0x142E JUMP JUMPDEST JUMPDEST PUSH0 PUSH2 0x16D5 DUP7 DUP3 DUP8 ADD PUSH2 0x165F JUMP JUMPDEST SWAP4 POP POP PUSH1 0x20 PUSH2 0x16E6 DUP7 DUP3 DUP8 ADD PUSH2 0x165F JUMP JUMPDEST SWAP3 POP POP PUSH1 0x40 PUSH2 0x16F7 DUP7 DUP3 DUP8 ADD PUSH2 0x15B2 JUMP JUMPDEST SWAP2 POP POP SWAP3 POP SWAP3 POP SWAP3 JUMP JUMPDEST PUSH2 0x170A DUP2 PUSH2 0x14B6 JUMP JUMPDEST DUP2 EQ PUSH2 0x1714 JUMPI PUSH0 DUP1 REVERT JUMPDEST POP JUMP JUMPDEST PUSH0 DUP2 CALLDATALOAD SWAP1 POP PUSH2 0x1725 DUP2 PUSH2 0x1701 JUMP JUMPDEST SWAP3 SWAP2 POP POP JUMP JUMPDEST PUSH0 DUP1 PUSH0 PUSH1 0x60 DUP5 DUP7 SUB SLT ISZERO PUSH2 0x1742 JUMPI PUSH2 0x1741 PUSH2 0x142E JUMP JUMPDEST JUMPDEST PUSH0 PUSH2 0x174F DUP7 DUP3 DUP8 ADD PUSH2 0x165F JUMP JUMPDEST SWAP4 POP POP PUSH1 0x20 PUSH2 0x1760 DUP7 DUP3 DUP8 ADD PUSH2 0x165F JUMP JUMPDEST SWAP3 POP POP PUSH1 0x40 PUSH2 0x1771 DUP7 DUP3 DUP8 ADD PUSH2 0x1717 JUMP JUMPDEST SWAP2 POP POP SWAP3 POP SWAP3 POP SWAP3 JUMP JUMPDEST PUSH0 PUSH1 0x20 DUP3 DUP5 SUB SLT ISZERO PUSH2 0x1790 JUMPI PUSH2 0x178F PUSH2 0x142E JUMP JUMPDEST JUMPDEST PUSH0 PUSH2 0x179D DUP5 DUP3 DUP6 ADD PUSH2 0x165F JUMP JUMPDEST SWAP2 POP POP SWAP3 SWAP2 POP POP JUMP JUMPDEST PUSH2 0x17AF DUP2 PUSH2 0x1593 JUMP JUMPDEST DUP3 MSTORE POP POP JUMP JUMPDEST PUSH0 PUSH1 0x20 DUP3 ADD SWAP1 POP PUSH2 0x17C8 PUSH0 DUP4 ADD DUP5 PUSH2 0x17A6 JUMP JUMPDEST SWAP3 SWAP2 POP POP JUMP JUMPDEST PUSH0 DUP1 PUSH1 0x40 DUP4 DUP6 SUB SLT ISZERO PUSH2 0x17E4 JUMPI PUSH2 0x17E3 PUSH2 0x142E JUMP JUMPDEST JUMPDEST PUSH0 PUSH2 0x17F1 DUP6 DUP3 DUP7 ADD PUSH2 0x165F JUMP JUMPDEST SWAP3 POP POP PUSH1 0x20 PUSH2 0x1802 DUP6 DUP3 DUP7 ADD PUSH2 0x1717 JUMP JUMPDEST SWAP2 POP POP SWAP3 POP SWAP3 SWAP1 POP JUMP JUMPDEST PUSH0 DUP1 REVERT JUMPDEST PUSH0 DUP1 REVERT JUMPDEST PUSH32 0x4E487B7100000000000000000000000000000000000000000000000000000000 PUSH0 MSTORE PUSH1 0x41 PUSH1 0x4 MSTORE PUSH1 0x24 PUSH0 REVERT JUMPDEST PUSH2 0x184A DUP3 PUSH2 0x152B JUMP JUMPDEST DUP2 ADD DUP2 DUP2 LT PUSH8 0xFFFFFFFFFFFFFFFF DUP3 GT OR ISZERO PUSH2 0x1869 JUMPI PUSH2 0x1868 PUSH2 0x1814 JUMP JUMPDEST JUMPDEST DUP1 PUSH1 0x40 MSTORE POP POP POP JUMP JUMPDEST PUSH0 PUSH2 0x187B PUSH2 0x1425 JUMP JUMPDEST SWAP1 POP PUSH2 0x1887 DUP3 DUP3 PUSH2 0x1841 JUMP JUMPDEST SWAP2 SWAP1 POP JUMP JUMPDEST PUSH0 PUSH8 0xFFFFFFFFFFFFFFFF DUP3 GT ISZERO PUSH2 0x18A6 JUMPI PUSH2 0x18A5 PUSH2 0x1814 JUMP JUMPDEST JUMPDEST PUSH2 0x18AF DUP3 PUSH2 0x152B JUMP JUMPDEST SWAP1 POP PUSH1 0x20 DUP2 ADD SWAP1 POP SWAP2 SWAP1 POP JUMP JUMPDEST DUP3 DUP2 DUP4 CALLDATACOPY PUSH0 DUP4 DUP4 ADD MSTORE POP POP POP JUMP JUMPDEST PUSH0 PUSH2 0x18DC PUSH2 0x18D7 DUP5 PUSH2 0x188C JUMP JUMPDEST PUSH2 0x1872 JUMP JUMPDEST SWAP1 POP DUP3 DUP2 MSTORE PUSH1 0x20 DUP2 ADD DUP5 DUP5 DUP5 ADD GT ISZERO PUSH2 0x18F8 JUMPI PUSH2 0x18F7 PUSH2 0x1810 JUMP JUMPDEST JUMPDEST PUSH2 0x1903 DUP5 DUP3 DUP6 PUSH2 0x18BC JUMP JUMPDEST POP SWAP4 SWAP3 POP POP POP JUMP JUMPDEST PUSH0 DUP3 PUSH1 0x1F DUP4 ADD SLT PUSH2 0x191F JUMPI PUSH2 0x191E PUSH2 0x180C JUMP JUMPDEST JUMPDEST DUP2 CALLDATALOAD PUSH2 0x192F DUP5 DUP3 PUSH1 0x20 DUP7 ADD PUSH2 0x18CA JUMP JUMPDEST SWAP2 POP POP SWAP3 SWAP2 POP POP JUMP JUMPDEST PUSH0 DUP1 PUSH0 DUP1 PUSH1 0x80 DUP6 DUP8 SUB SLT ISZERO PUSH2 0x1950 JUMPI PUSH2 0x194F PUSH2 0x142E JUMP JUMPDEST JUMPDEST PUSH0 PUSH2 0x195D DUP8 DUP3 DUP9 ADD PUSH2 0x165F JUMP JUMPDEST SWAP5 POP POP PUSH1 0x20 PUSH2 0x196E DUP8 DUP3 DUP9 ADD PUSH2 0x165F JUMP JUMPDEST SWAP4 POP POP PUSH1 0x40 PUSH2 0x197F DUP8 DUP3 DUP9 ADD PUSH2 0x15B2 JUMP JUMPDEST SWAP3 POP POP PUSH1 0x60 DUP6 ADD CALLDATALOAD PUSH8 0xFFFFFFFFFFFFFFFF DUP2 GT ISZERO PUSH2 0x19A0 JUMPI PUSH2 0x199F PUSH2 0x1432 JUMP JUMPDEST JUMPDEST PUSH2 0x19AC DUP8 DUP3 DUP9 ADD PUSH2 0x190B JUMP JUMPDEST SWAP2 POP POP SWAP3 SWAP6 SWAP2 SWAP5 POP SWAP3 POP JUMP JUMPDEST PUSH0 PUSH8 0xFFFFFFFFFFFFFFFF DUP3 GT ISZERO PUSH2 0x19D2 JUMPI PUSH2 0x19D1 PUSH2 0x1814 JUMP JUMPDEST JUMPDEST PUSH2 0x19DB DUP3 PUSH2 0x152B JUMP JUMPDEST SWAP1 POP PUSH1 0x20 DUP2 ADD SWAP1 POP SWAP2 SWAP1 POP JUMP JUMPDEST PUSH0 PUSH2 0x19FA PUSH2 0x19F5 DUP5 PUSH2 0x19B8 JUMP JUMPDEST PUSH2 0x1872 JUMP JUMPDEST SWAP1 POP DUP3 DUP2 MSTORE PUSH1 0x20 DUP2 ADD DUP5 DUP5 DUP5 ADD GT ISZERO PUSH2 0x1A16 JUMPI PUSH2 0x1A15 PUSH2 0x1810 JUMP JUMPDEST JUMPDEST PUSH2 0x1A21 DUP5 DUP3 DUP6 PUSH2 0x18BC JUMP JUMPDEST POP SWAP4 SWAP3 POP POP POP JUMP JUMPDEST PUSH0 DUP3 PUSH1 0x1F DUP4 ADD SLT PUSH2 0x1A3D JUMPI PUSH2 0x1A3C PUSH2 0x180C JUMP JUMPDEST JUMPDEST DUP2 CALLDATALOAD PUSH2 0x1A4D DUP5 DUP3 PUSH1 0x20 DUP7 ADD PUSH2 0x19E8 JUMP JUMPDEST SWAP2 POP POP SWAP3 SWAP2 POP POP JUMP JUMPDEST PUSH0 DUP1 PUSH1 0x40 DUP4 DUP6 SUB SLT ISZERO PUSH2 0x1A6C JUMPI PUSH2 0x1A6B PUSH2 0x142E JUMP JUMPDEST JUMPDEST PUSH0 PUSH2 0x1A79 DUP6 DUP3 DUP7 ADD PUSH2 0x15B2 JUMP JUMPDEST SWAP3 POP POP PUSH1 0x20 DUP4 ADD CALLDATALOAD PUSH8 0xFFFFFFFFFFFFFFFF DUP2 GT ISZERO PUSH2 0x1A9A JUMPI PUSH2 0x1A99 PUSH2 0x1432 JUMP JUMPDEST JUMPDEST PUSH2 0x1AA6 DUP6 DUP3 DUP7 ADD PUSH2 0x1A29 JUMP JUMPDEST SWAP2 POP POP SWAP3 POP SWAP3 SWAP1 POP JUMP JUMPDEST PUSH0 DUP1 PUSH1 0x40 DUP4 DUP6 SUB SLT ISZERO PUSH2 0x1AC6 JUMPI PUSH2 0x1AC5 PUSH2 0x142E JUMP JUMPDEST JUMPDEST PUSH0 PUSH2 0x1AD3 DUP6 DUP3 DUP7 ADD PUSH2 0x165F JUMP JUMPDEST SWAP3 POP POP PUSH1 0x20 PUSH2 0x1AE4 DUP6 DUP3 DUP7 ADD PUSH2 0x165F JUMP JUMPDEST SWAP2 POP POP SWAP3 POP SWAP3 SWAP1 POP JUMP JUMPDEST PUSH32 0x4E487B7100000000000000000000000000000000000000000000000000000000 PUSH0 MSTORE PUSH1 0x22 PUSH1 0x4 MSTORE PUSH1 0x24 PUSH0 REVERT JUMPDEST PUSH0 PUSH1 0x2 DUP3 DIV SWAP1 POP PUSH1 0x1 DUP3 AND DUP1 PUSH2 0x1B32 JUMPI PUSH1 0x7F DUP3 AND SWAP2 POP JUMPDEST PUSH1 0x20 DUP3 LT DUP2 SUB PUSH2 0x1B45 JUMPI PUSH2 0x1B44 PUSH2 0x1AEE JUMP JUMPDEST JUMPDEST POP SWAP2 SWAP1 POP JUMP JUMPDEST PUSH0 PUSH1 0x60 DUP3 ADD SWAP1 POP PUSH2 0x1B5E PUSH0 DUP4 ADD DUP7 PUSH2 0x1621 JUMP JUMPDEST PUSH2 0x1B6B PUSH1 0x20 DUP4 ADD DUP6 PUSH2 0x17A6 JUMP JUMPDEST PUSH2 0x1B78 PUSH1 0x40 DUP4 ADD DUP5 PUSH2 0x1621 JUMP JUMPDEST SWAP5 SWAP4 POP POP POP POP JUMP JUMPDEST PUSH32 0x555249206973206E6F742076616C696400000000000000000000000000000000 PUSH0 DUP3 ADD MSTORE POP JUMP JUMPDEST PUSH0 PUSH2 0x1BB4 PUSH1 0x10 DUP4 PUSH2 0x14F3 JUMP JUMPDEST SWAP2 POP PUSH2 0x1BBF DUP3 PUSH2 0x1B80 JUMP JUMPDEST PUSH1 0x20 DUP3 ADD SWAP1 POP SWAP2 SWAP1 POP JUMP JUMPDEST PUSH0 PUSH1 0x20 DUP3 ADD SWAP1 POP DUP2 DUP2 SUB PUSH0 DUP4 ADD MSTORE PUSH2 0x1BE1 DUP2 PUSH2 0x1BA8 JUMP JUMPDEST SWAP1 POP SWAP2 SWAP1 POP JUMP JUMPDEST PUSH0 DUP2 MLOAD SWAP1 POP SWAP2 SWAP1 POP JUMP JUMPDEST PUSH0 DUP3 DUP3 MSTORE PUSH1 0x20 DUP3 ADD SWAP1 POP SWAP3 SWAP2 POP POP JUMP JUMPDEST PUSH0 PUSH2 0x1C0C DUP3 PUSH2 0x1BE8 JUMP JUMPDEST PUSH2 0x1C16 DUP2 DUP6 PUSH2 0x1BF2 JUMP JUMPDEST SWAP4 POP PUSH2 0x1C26 DUP2 DUP6 PUSH1 0x20 DUP7 ADD PUSH2 0x1503 JUMP JUMPDEST PUSH2 0x1C2F DUP2 PUSH2 0x152B JUMP JUMPDEST DUP5 ADD SWAP2 POP POP SWAP3 SWAP2 POP POP JUMP JUMPDEST PUSH0 PUSH1 0x80 DUP3 ADD SWAP1 POP PUSH2 0x1C4D PUSH0 DUP4 ADD DUP8 PUSH2 0x1621 JUMP JUMPDEST PUSH2 0x1C5A PUSH1 0x20 DUP4 ADD DUP7 PUSH2 0x1621 JUMP JUMPDEST PUSH2 0x1C67 PUSH1 0x40 DUP4 ADD DUP6 PUSH2 0x17A6 JUMP JUMPDEST DUP2 DUP2 SUB PUSH1 0x60 DUP4 ADD MSTORE PUSH2 0x1C79 DUP2 DUP5 PUSH2 0x1C02 JUMP JUMPDEST SWAP1 POP SWAP6 SWAP5 POP POP POP POP POP JUMP JUMPDEST PUSH0 DUP2 MLOAD SWAP1 POP PUSH2 0x1C92 DUP2 PUSH2 0x1461 JUMP JUMPDEST SWAP3 SWAP2 POP POP JUMP JUMPDEST PUSH0 PUSH1 0x20 DUP3 DUP5 SUB SLT ISZERO PUSH2 0x1CAD JUMPI PUSH2 0x1CAC PUSH2 0x142E JUMP JUMPDEST JUMPDEST PUSH0 PUSH2 0x1CBA DUP5 DUP3 DUP6 ADD PUSH2 0x1C84 JUMP JUMPDEST SWAP2 POP POP SWAP3 SWAP2 POP POP JUMP JUMPDEST PUSH0 DUP2 SWAP1 POP DUP2 PUSH0 MSTORE PUSH1 0x20 PUSH0 KECCAK256 SWAP1 POP SWAP2 SWAP1 POP JUMP JUMPDEST PUSH0 PUSH1 0x20 PUSH1 0x1F DUP4 ADD DIV SWAP1 POP SWAP2 SWAP1 POP JUMP JUMPDEST PUSH0 DUP3 DUP3 SHL SWAP1 POP SWAP3 SWAP2 POP POP JUMP JUMPDEST PUSH0 PUSH1 0x8 DUP4 MUL PUSH2 0x1D1F PUSH32 0xFFFFFFFFFFFFFFFFFFFFFFFFFFFFFFFFFFFFFFFFFFFFFFFFFFFFFFFFFFFFFFFF DUP3 PUSH2 0x1CE4 JUMP JUMPDEST PUSH2 0x1D29 DUP7 DUP4 PUSH2 0x1CE4 JUMP JUMPDEST SWAP6 POP DUP1 NOT DUP5 AND SWAP4 POP DUP1 DUP7 AND DUP5 OR SWAP3 POP POP POP SWAP4 SWAP3 POP POP POP JUMP JUMPDEST PUSH0 DUP2 SWAP1 POP SWAP2 SWAP1 POP JUMP JUMPDEST PUSH0 PUSH2 0x1D64 PUSH2 0x1D5F PUSH2 0x1D5A DUP5 PUSH2 0x1593 JUMP JUMPDEST PUSH2 0x1D41 JUMP JUMPDEST PUSH2 0x1593 JUMP JUMPDEST SWAP1 POP SWAP2 SWAP1 POP JUMP JUMPDEST PUSH0 DUP2 SWAP1 POP SWAP2 SWAP1 POP JUMP JUMPDEST PUSH2 0x1D7D DUP4 PUSH2 0x1D4A JUMP JUMPDEST PUSH2 0x1D91 PUSH2 0x1D89 DUP3 PUSH2 0x1D6B JUMP JUMPDEST DUP5 DUP5 SLOAD PUSH2 0x1CF0 JUMP JUMPDEST DUP3 SSTORE POP POP POP POP JUMP JUMPDEST PUSH0 SWAP1 JUMP JUMPDEST PUSH2 0x1DA5 PUSH2 0x1D99 JUMP JUMPDEST PUSH2 0x1DB0 DUP2 DUP5 DUP5 PUSH2 0x1D74 JUMP JUMPDEST POP POP POP JUMP JUMPDEST JUMPDEST DUP2 DUP2 LT ISZERO PUSH2 0x1DD3 JUMPI PUSH2 0x1DC8 PUSH0 DUP3 PUSH2 0x1D9D JUMP JUMPDEST PUSH1 0x1 DUP2 ADD SWAP1 POP PUSH2 0x1DB6 JUMP JUMPDEST POP POP JUMP JUMPDEST PUSH1 0x1F DUP3 GT ISZERO PUSH2 0x1E18 JUMPI PUSH2 0x1DE9 DUP2 PUSH2 0x1CC3 JUMP JUMPDEST PUSH2 0x1DF2 DUP5 PUSH2 0x1CD5 JUMP JUMPDEST DUP2 ADD PUSH1 0x20 DUP6 LT ISZERO PUSH2 0x1E01 JUMPI DUP2 SWAP1 POP JUMPDEST PUSH2 0x1E15 PUSH2 0x1E0D DUP6 PUSH2 0x1CD5 JUMP JUMPDEST DUP4 ADD DUP3 PUSH2 0x1DB5 JUMP JUMPDEST POP POP JUMPDEST POP POP POP JUMP JUMPDEST PUSH0 DUP3 DUP3 SHR SWAP1 POP SWAP3 SWAP2 POP POP JUMP JUMPDEST PUSH0 PUSH2 0x1E38 PUSH0 NOT DUP5 PUSH1 0x8 MUL PUSH2 0x1E1D JUMP JUMPDEST NOT DUP1 DUP4 AND SWAP2 POP POP SWAP3 SWAP2 POP POP JUMP JUMPDEST PUSH0 PUSH2 0x1E50 DUP4 DUP4 PUSH2 0x1E29 JUMP JUMPDEST SWAP2 POP DUP3 PUSH1 0x2 MUL DUP3 OR SWAP1 POP SWAP3 SWAP2 POP POP JUMP JUMPDEST PUSH2 0x1E69 DUP3 PUSH2 0x14E9 JUMP JUMPDEST PUSH8 0xFFFFFFFFFFFFFFFF DUP2 GT ISZERO PUSH2 0x1E82 JUMPI PUSH2 0x1E81 PUSH2 0x1814 JUMP JUMPDEST JUMPDEST PUSH2 0x1E8C DUP3 SLOAD PUSH2 0x1B1B JUMP JUMPDEST PUSH2 0x1E97 DUP3 DUP3 DUP6 PUSH2 0x1DD7 JUMP JUMPDEST PUSH0 PUSH1 0x20 SWAP1 POP PUSH1 0x1F DUP4 GT PUSH1 0x1 DUP2 EQ PUSH2 0x1EC8 JUMPI PUSH0 DUP5 ISZERO PUSH2 0x1EB6 JUMPI DUP3 DUP8 ADD MLOAD SWAP1 POP JUMPDEST PUSH2 0x1EC0 DUP6 DUP3 PUSH2 0x1E45 JUMP JUMPDEST DUP7 SSTORE POP PUSH2 0x1F27 JUMP JUMPDEST PUSH1 0x1F NOT DUP5 AND PUSH2 0x1ED6 DUP7 PUSH2 0x1CC3 JUMP JUMPDEST PUSH0 JUMPDEST DUP3 DUP2 LT ISZERO PUSH2 0x1EFD JUMPI DUP5 DUP10 ADD MLOAD DUP3 SSTORE PUSH1 0x1 DUP3 ADD SWAP2 POP PUSH1 0x20 DUP6 ADD SWAP5 POP PUSH1 0x20 DUP2 ADD SWAP1 POP PUSH2 0x1ED8 JUMP JUMPDEST DUP7 DUP4 LT ISZERO PUSH2 0x1F1A JUMPI DUP5 DUP10 ADD MLOAD PUSH2 0x1F16 PUSH1 0x1F DUP10 AND DUP3 PUSH2 0x1E29 JUMP JUMPDEST DUP4 SSTORE POP JUMPDEST PUSH1 0x1 PUSH1 0x2 DUP9 MUL ADD DUP9 SSTORE POP POP POP JUMPDEST POP POP POP POP POP POP JUMP JUMPDEST PUSH0 PUSH1 0x40 DUP3 ADD SWAP1 POP PUSH2 0x1F42 PUSH0 DUP4 ADD DUP6 PUSH2 0x1621 JUMP JUMPDEST PUSH2 0x1F4F PUSH1 0x20 DUP4 ADD DUP5 PUSH2 0x17A6 JUMP JUMPDEST SWAP4 SWAP3 POP POP POP JUMP INVALID LOG2 PUSH5 0x6970667358 0x22 SLT KECCAK256 0xF8 0x2D 0x21 AND PUSH12 0xE4780FD07C4A529DE0DBD443 PUSH0 PUSH8 0xA2DD3EA129864863 0xE2 EQ 0xB9 LOG1 NOT PUSH5 0x736F6C6343 STOP ADDMOD EQ STOP CALLER "
				},
				"gasEstimates": {
					"creation": {
						"codeDepositCost": "1615200",
						"executionCost": "infinite",
						"totalCost": "infinite"
					},
					"external": {
						"approve(address,uint256)": "infinite",
						"balanceOf(address)": "infinite",
						"getApproved(uint256)": "infinite",
						"isApprovedForAll(address,address)": "infinite",
						"minting(uint256,string)": "infinite",
						"name()": "infinite",
						"ownerOf(uint256)": "infinite",
						"safeTransferFrom(address,address,uint256)": "infinite",
						"safeTransferFrom(address,address,uint256,bytes)": "infinite",
						"setAppAll(address,address,bool)": "infinite",
						"setApprovalForAll(address,bool)": "infinite",
						"supportsInterface(bytes4)": "787",
						"symbol()": "infinite",
						"tokenURI(uint256)": "infinite",
						"transferFrom(address,address,uint256)": "infinite"
					},
					"internal": {
						"_baseURI()": "infinite",
						"_setTokenURI(uint256,string memory)": "infinite"
					}
				},
				"methodIdentifiers": {
					"approve(address,uint256)": "095ea7b3",
					"balanceOf(address)": "70a08231",
					"getApproved(uint256)": "081812fc",
					"isApprovedForAll(address,address)": "e985e9c5",
					"minting(uint256,string)": "e2c4c4b2",
					"name()": "06fdde03",
					"ownerOf(uint256)": "6352211e",
					"safeTransferFrom(address,address,uint256)": "42842e0e",
					"safeTransferFrom(address,address,uint256,bytes)": "b88d4fde",
					"setAppAll(address,address,bool)": "29d6724e",
					"setApprovalForAll(address,bool)": "a22cb465",
					"supportsInterface(bytes4)": "01ffc9a7",
					"symbol()": "95d89b41",
					"tokenURI(uint256)": "c87b56dd",
					"transferFrom(address,address,uint256)": "23b872dd"
				}
			},
			"storageLayout": {
				"storage": [
					{
						"astId": 274,
						"contract": "myNFT.sol:MyNFT",
						"label": "_name",
						"offset": 0,
						"slot": "0",
						"type": "t_string_storage"
					},
					{
						"astId": 276,
						"contract": "myNFT.sol:MyNFT",
						"label": "_symbol",
						"offset": 0,
						"slot": "1",
						"type": "t_string_storage"
					},
					{
						"astId": 280,
						"contract": "myNFT.sol:MyNFT",
						"label": "_owners",
						"offset": 0,
						"slot": "2",
						"type": "t_mapping(t_uint256,t_address)"
					},
					{
						"astId": 284,
						"contract": "myNFT.sol:MyNFT",
						"label": "_balances",
						"offset": 0,
						"slot": "3",
						"type": "t_mapping(t_address,t_uint256)"
					},
					{
						"astId": 288,
						"contract": "myNFT.sol:MyNFT",
						"label": "_tokenApprovals",
						"offset": 0,
						"slot": "4",
						"type": "t_mapping(t_uint256,t_address)"
					},
					{
						"astId": 294,
						"contract": "myNFT.sol:MyNFT",
						"label": "_operatorApprovals",
						"offset": 0,
						"slot": "5",
						"type": "t_mapping(t_address,t_mapping(t_address,t_bool))"
					},
					{
						"astId": 8,
						"contract": "myNFT.sol:MyNFT",
						"label": "_tokenURIs",
						"offset": 0,
						"slot": "6",
						"type": "t_mapping(t_uint256,t_string_storage)"
					}
				],
				"types": {
					"t_address": {
						"encoding": "inplace",
						"label": "address",
						"numberOfBytes": "20"
					},
					"t_bool": {
						"encoding": "inplace",
						"label": "bool",
						"numberOfBytes": "1"
					},
					"t_mapping(t_address,t_bool)": {
						"encoding": "mapping",
						"key": "t_address",
						"label": "mapping(address => bool)",
						"numberOfBytes": "32",
						"value": "t_bool"
					},
					"t_mapping(t_address,t_mapping(t_address,t_bool))": {
						"encoding": "mapping",
						"key": "t_address",
						"label": "mapping(address => mapping(address => bool))",
						"numberOfBytes": "32",
						"value": "t_mapping(t_address,t_bool)"
					},
					"t_mapping(t_address,t_uint256)": {
						"encoding": "mapping",
						"key": "t_address",
						"label": "mapping(address => uint256)",
						"numberOfBytes": "32",
						"value": "t_uint256"
					},
					"t_mapping(t_uint256,t_address)": {
						"encoding": "mapping",
						"key": "t_uint256",
						"label": "mapping(uint256 => address)",
						"numberOfBytes": "32",
						"value": "t_address"
					},
					"t_mapping(t_uint256,t_string_storage)": {
						"encoding": "mapping",
						"key": "t_uint256",
						"label": "mapping(uint256 => string)",
						"numberOfBytes": "32",
						"value": "t_string_storage"
					},
					"t_string_storage": {
						"encoding": "bytes",
						"label": "string",
						"numberOfBytes": "32"
					},
					"t_uint256": {
						"encoding": "inplace",
						"label": "uint256",
						"numberOfBytes": "32"
					}
				}
			},
			"userdoc": {
				"kind": "user",
				"methods": {},
				"version": 1
			}
		}
	}
}